{
  "contractName": "Market",
  "abi": [
    {
      "inputs": [],
      "stateMutability": "nonpayable",
      "type": "constructor"
    },
    {
      "anonymous": false,
      "inputs": [
        {
          "indexed": true,
          "internalType": "uint256",
          "name": "itemId",
          "type": "uint256"
        },
        {
          "indexed": true,
          "internalType": "address",
          "name": "nftContract",
          "type": "address"
        },
        {
          "indexed": true,
          "internalType": "uint256",
          "name": "tokenId",
          "type": "uint256"
        },
        {
          "indexed": false,
          "internalType": "address",
          "name": "creator",
          "type": "address"
        },
        {
          "indexed": false,
          "internalType": "address",
          "name": "seller",
          "type": "address"
        },
        {
          "indexed": false,
          "internalType": "address",
          "name": "owner",
          "type": "address"
        },
        {
          "indexed": false,
          "internalType": "uint256",
          "name": "price",
          "type": "uint256"
        }
      ],
      "name": "MarketItemCreated",
      "type": "event"
    },
    {
      "anonymous": false,
      "inputs": [
        {
          "indexed": false,
          "internalType": "uint256",
          "name": "itemId",
          "type": "uint256"
        }
      ],
      "name": "MarketItemDeleted",
      "type": "event"
    },
    {
      "anonymous": false,
      "inputs": [
        {
          "indexed": true,
          "internalType": "uint256",
          "name": "itemId",
          "type": "uint256"
        }
      ],
      "name": "ProductListed",
      "type": "event"
    },
    {
      "anonymous": false,
      "inputs": [
        {
          "indexed": true,
          "internalType": "uint256",
          "name": "itemId",
          "type": "uint256"
        },
        {
          "indexed": true,
          "internalType": "address",
          "name": "nftContract",
          "type": "address"
        },
        {
          "indexed": true,
          "internalType": "uint256",
          "name": "tokenId",
          "type": "uint256"
        },
        {
          "indexed": false,
          "internalType": "address",
          "name": "creator",
          "type": "address"
        },
        {
          "indexed": false,
          "internalType": "address",
          "name": "seller",
          "type": "address"
        },
        {
          "indexed": false,
          "internalType": "address",
          "name": "owner",
          "type": "address"
        },
        {
          "indexed": false,
          "internalType": "uint256",
          "name": "price",
          "type": "uint256"
        }
      ],
      "name": "ProductSold",
      "type": "event"
    },
    {
      "anonymous": false,
      "inputs": [
        {
          "indexed": true,
          "internalType": "uint256",
          "name": "itemId",
          "type": "uint256"
        },
        {
          "indexed": true,
          "internalType": "uint256",
          "name": "oldPrice",
          "type": "uint256"
        },
        {
          "indexed": true,
          "internalType": "uint256",
          "name": "newPrice",
          "type": "uint256"
        }
      ],
      "name": "ProductUpdated",
      "type": "event"
    },
    {
      "inputs": [],
      "name": "getListingPrice",
      "outputs": [
        {
          "internalType": "uint256",
          "name": "",
          "type": "uint256"
        }
      ],
      "stateMutability": "view",
      "type": "function",
      "constant": true
    },
    {
      "inputs": [
        {
          "internalType": "address",
          "name": "nftContract",
          "type": "address"
        },
        {
          "internalType": "uint256",
          "name": "tokenId",
          "type": "uint256"
        },
        {
          "internalType": "uint256",
          "name": "price",
          "type": "uint256"
        }
      ],
      "name": "registMarketItem",
      "outputs": [],
      "stateMutability": "payable",
      "type": "function",
      "payable": true
    },
    {
      "inputs": [
        {
          "internalType": "address",
          "name": "nftContract",
          "type": "address"
        },
        {
          "internalType": "uint256",
          "name": "itemId",
          "type": "uint256"
        },
        {
          "internalType": "uint256",
          "name": "price",
          "type": "uint256"
        }
      ],
      "name": "createMarketItem",
      "outputs": [],
      "stateMutability": "payable",
      "type": "function",
      "payable": true
    },
    {
      "inputs": [
        {
          "internalType": "uint256",
          "name": "id",
          "type": "uint256"
        },
        {
          "internalType": "uint256",
          "name": "newPrice",
          "type": "uint256"
        }
      ],
      "name": "updateMarketItemPrice",
      "outputs": [],
      "stateMutability": "payable",
      "type": "function",
      "payable": true
    },
    {
      "inputs": [
        {
          "internalType": "address",
          "name": "nftContract",
          "type": "address"
        },
        {
          "internalType": "uint256",
          "name": "itemId",
          "type": "uint256"
        }
      ],
      "name": "createMarketSale",
      "outputs": [],
      "stateMutability": "payable",
      "type": "function",
      "payable": true
    },
    {
      "inputs": [
        {
          "internalType": "address",
          "name": "nftContract",
          "type": "address"
        },
        {
          "internalType": "uint256",
          "name": "itemId",
          "type": "uint256"
        },
        {
          "internalType": "uint256",
          "name": "newPrice",
          "type": "uint256"
        }
      ],
      "name": "putItemToResell",
      "outputs": [],
      "stateMutability": "payable",
      "type": "function",
      "payable": true
    },
    {
      "inputs": [],
      "name": "fetchMarketItems",
      "outputs": [
        {
          "components": [
            {
              "internalType": "uint256",
              "name": "itemId",
              "type": "uint256"
            },
            {
              "internalType": "address",
              "name": "nftContract",
              "type": "address"
            },
            {
              "internalType": "uint256",
              "name": "tokenId",
              "type": "uint256"
            },
            {
              "internalType": "address payable",
              "name": "creator",
              "type": "address"
            },
            {
              "internalType": "address payable",
              "name": "seller",
              "type": "address"
            },
            {
              "internalType": "address payable",
              "name": "owner",
              "type": "address"
            },
            {
              "internalType": "uint256",
              "name": "price",
              "type": "uint256"
            },
            {
              "internalType": "bool",
              "name": "sold",
              "type": "bool"
            }
          ],
          "internalType": "struct Market.MarketItem[]",
          "name": "",
          "type": "tuple[]"
        }
      ],
      "stateMutability": "view",
      "type": "function",
      "constant": true
    },
    {
      "inputs": [
        {
          "internalType": "uint256",
          "name": "id",
          "type": "uint256"
        }
      ],
      "name": "fetchSingleItem",
      "outputs": [
        {
          "components": [
            {
              "internalType": "uint256",
              "name": "itemId",
              "type": "uint256"
            },
            {
              "internalType": "address",
              "name": "nftContract",
              "type": "address"
            },
            {
              "internalType": "uint256",
              "name": "tokenId",
              "type": "uint256"
            },
            {
              "internalType": "address payable",
              "name": "creator",
              "type": "address"
            },
            {
              "internalType": "address payable",
              "name": "seller",
              "type": "address"
            },
            {
              "internalType": "address payable",
              "name": "owner",
              "type": "address"
            },
            {
              "internalType": "uint256",
              "name": "price",
              "type": "uint256"
            },
            {
              "internalType": "bool",
              "name": "sold",
              "type": "bool"
            }
          ],
          "internalType": "struct Market.MarketItem",
          "name": "",
          "type": "tuple"
        }
      ],
      "stateMutability": "view",
      "type": "function",
      "constant": true
    },
    {
      "inputs": [],
      "name": "fetchMyNFTs",
      "outputs": [
        {
          "components": [
            {
              "internalType": "uint256",
              "name": "itemId",
              "type": "uint256"
            },
            {
              "internalType": "address",
              "name": "nftContract",
              "type": "address"
            },
            {
              "internalType": "uint256",
              "name": "tokenId",
              "type": "uint256"
            },
            {
              "internalType": "address payable",
              "name": "creator",
              "type": "address"
            },
            {
              "internalType": "address payable",
              "name": "seller",
              "type": "address"
            },
            {
              "internalType": "address payable",
              "name": "owner",
              "type": "address"
            },
            {
              "internalType": "uint256",
              "name": "price",
              "type": "uint256"
            },
            {
              "internalType": "bool",
              "name": "sold",
              "type": "bool"
            }
          ],
          "internalType": "struct Market.MarketItem[]",
          "name": "",
          "type": "tuple[]"
        }
      ],
      "stateMutability": "view",
      "type": "function",
      "constant": true
    },
    {
      "inputs": [
        {
          "internalType": "address",
          "name": "author",
          "type": "address"
        }
      ],
      "name": "fetchAuthorsCreations",
      "outputs": [
        {
          "components": [
            {
              "internalType": "uint256",
              "name": "itemId",
              "type": "uint256"
            },
            {
              "internalType": "address",
              "name": "nftContract",
              "type": "address"
            },
            {
              "internalType": "uint256",
              "name": "tokenId",
              "type": "uint256"
            },
            {
              "internalType": "address payable",
              "name": "creator",
              "type": "address"
            },
            {
              "internalType": "address payable",
              "name": "seller",
              "type": "address"
            },
            {
              "internalType": "address payable",
              "name": "owner",
              "type": "address"
            },
            {
              "internalType": "uint256",
              "name": "price",
              "type": "uint256"
            },
            {
              "internalType": "bool",
              "name": "sold",
              "type": "bool"
            }
          ],
          "internalType": "struct Market.MarketItem[]",
          "name": "",
          "type": "tuple[]"
        }
      ],
      "stateMutability": "view",
      "type": "function",
      "constant": true
    }
  ],
  "bytecode": "0x608060405266038d7ea4c6800060055534801561001b57600080fd5b50600160008190555033600460006101000a81548173ffffffffffffffffffffffffffffffffffffffff021916908373ffffffffffffffffffffffffffffffffffffffff160217905550612a4d806100746000396000f3fe6080604052600436106100915760003560e01c806358eb2df51161005957806358eb2df51461014f5780636c8081ed1461016b578063a2bf932a146101a8578063ae13a317146101e5578063c23b139e1461020157610091565b80630f08efe01461009657806312e85585146100c15780631d02b149146100ec578063202e37401461010857806358271fff14610133575b600080fd5b3480156100a257600080fd5b506100ab61021d565b6040516100b8919061210e565b60405180910390f35b3480156100cd57600080fd5b506100d66105c0565b6040516100e3919061213f565b60405180910390f35b610106600480360381019061010191906121b7565b6105ca565b005b34801561011457600080fd5b5061011d6108de565b60405161012a919061210e565b60405180910390f35b61014d600480360381019061014891906121b7565b610c81565b005b610169600480360381019061016491906121b7565b611001565b005b34801561017757600080fd5b50610192600480360381019061018d919061220a565b6112cb565b60405161019f919061210e565b60405180910390f35b3480156101b457600080fd5b506101cf60048036038101906101ca9190612237565b6116e4565b6040516101dc9190612306565b60405180910390f35b6101ff60048036038101906101fa9190612322565b6118a3565b005b61021b60048036038101906102169190612362565b611a15565b005b6060600061022b6001611e07565b905060006102396003611e07565b6102436002611e07565b61024d6001611e07565b61025791906123d1565b61026191906123d1565b90506000808267ffffffffffffffff8111156102805761027f612405565b5b6040519080825280602002602001820160405280156102b957816020015b6102a6611e87565b81526020019060019003908161029e5790505b50905060005b848110156105b557600073ffffffffffffffffffffffffffffffffffffffff16600660006001846102f09190612434565b815260200190815260200160002060050160009054906101000a900473ffffffffffffffffffffffffffffffffffffffff1673ffffffffffffffffffffffffffffffffffffffff16148015610378575060001515600660006001846103559190612434565b815260200190815260200160002060070160009054906101000a900460ff161515145b80156103a757506000600660006001846103929190612434565b81526020019081526020016000206002015414155b156105a25760006001826103bb9190612434565b905060006006600083815260200190815260200160002090508060405180610100016040529081600082015481526020016001820160009054906101000a900473ffffffffffffffffffffffffffffffffffffffff1673ffffffffffffffffffffffffffffffffffffffff1673ffffffffffffffffffffffffffffffffffffffff168152602001600282015481526020016003820160009054906101000a900473ffffffffffffffffffffffffffffffffffffffff1673ffffffffffffffffffffffffffffffffffffffff1673ffffffffffffffffffffffffffffffffffffffff1681526020016004820160009054906101000a900473ffffffffffffffffffffffffffffffffffffffff1673ffffffffffffffffffffffffffffffffffffffff1673ffffffffffffffffffffffffffffffffffffffff1681526020016005820160009054906101000a900473ffffffffffffffffffffffffffffffffffffffff1673ffffffffffffffffffffffffffffffffffffffff1673ffffffffffffffffffffffffffffffffffffffff168152602001600682015481526020016007820160009054906101000a900460ff16151515158152505084868151811061058557610584612468565b5b602002602001018190525060018561059d9190612434565b945050505b80806105ad90612497565b9150506102bf565b508094505050505090565b6000600554905090565b60026000540361060f576040517f08c379a00000000000000000000000000000000000000000000000000000000081526004016106069061253c565b60405180910390fd5b60026000819055506000811161065a576040517f08c379a0000000000000000000000000000000000000000000000000000000008152600401610651906125a8565b60405180910390fd5b6106646001611e15565b60006106706001611e07565b90506040518061010001604052808281526020018573ffffffffffffffffffffffffffffffffffffffff168152602001848152602001600073ffffffffffffffffffffffffffffffffffffffff168152602001600073ffffffffffffffffffffffffffffffffffffffff1681526020013373ffffffffffffffffffffffffffffffffffffffff16815260200183815260200160011515815250600660008381526020019081526020016000206000820151816000015560208201518160010160006101000a81548173ffffffffffffffffffffffffffffffffffffffff021916908373ffffffffffffffffffffffffffffffffffffffff1602179055506040820151816002015560608201518160030160006101000a81548173ffffffffffffffffffffffffffffffffffffffff021916908373ffffffffffffffffffffffffffffffffffffffff16021790555060808201518160040160006101000a81548173ffffffffffffffffffffffffffffffffffffffff021916908373ffffffffffffffffffffffffffffffffffffffff16021790555060a08201518160050160006101000a81548173ffffffffffffffffffffffffffffffffffffffff021916908373ffffffffffffffffffffffffffffffffffffffff16021790555060c0820151816006015560e08201518160070160006101000a81548160ff021916908315150217905550905050828473ffffffffffffffffffffffffffffffffffffffff16827f7990294cab81bf6b251c45c1a6b14c27edfac0c2b574fc3dbea97ebe60dfbb9460008033886040516108c894939291906125d7565b60405180910390a4506001600081905550505050565b606060006108ec6001611e07565b905060008060005b83811015610994573373ffffffffffffffffffffffffffffffffffffffff16600660006001846109249190612434565b815260200190815260200160002060050160009054906101000a900473ffffffffffffffffffffffffffffffffffffffff1673ffffffffffffffffffffffffffffffffffffffff16036109815760018361097e9190612434565b92505b808061098c90612497565b9150506108f4565b5060008267ffffffffffffffff8111156109b1576109b0612405565b5b6040519080825280602002602001820160405280156109ea57816020015b6109d7611e87565b8152602001906001900390816109cf5790505b50905060005b84811015610c76573373ffffffffffffffffffffffffffffffffffffffff1660066000600184610a209190612434565b815260200190815260200160002060050160009054906101000a900473ffffffffffffffffffffffffffffffffffffffff1673ffffffffffffffffffffffffffffffffffffffff1603610c63576000600182610a7c9190612434565b905060006006600083815260200190815260200160002090508060405180610100016040529081600082015481526020016001820160009054906101000a900473ffffffffffffffffffffffffffffffffffffffff1673ffffffffffffffffffffffffffffffffffffffff1673ffffffffffffffffffffffffffffffffffffffff168152602001600282015481526020016003820160009054906101000a900473ffffffffffffffffffffffffffffffffffffffff1673ffffffffffffffffffffffffffffffffffffffff1673ffffffffffffffffffffffffffffffffffffffff1681526020016004820160009054906101000a900473ffffffffffffffffffffffffffffffffffffffff1673ffffffffffffffffffffffffffffffffffffffff1673ffffffffffffffffffffffffffffffffffffffff1681526020016005820160009054906101000a900473ffffffffffffffffffffffffffffffffffffffff1673ffffffffffffffffffffffffffffffffffffffff1673ffffffffffffffffffffffffffffffffffffffff168152602001600682015481526020016007820160009054906101000a900460ff161515151581525050848681518110610c4657610c45612468565b5b6020026020010181905250600185610c5e9190612434565b945050505b8080610c6e90612497565b9150506109f0565b508094505050505090565b600260005403610cc6576040517f08c379a0000000000000000000000000000000000000000000000000000000008152600401610cbd9061253c565b60405180910390fd5b6002600081905550813373ffffffffffffffffffffffffffffffffffffffff166006600083815260200190815260200160002060050160009054906101000a900473ffffffffffffffffffffffffffffffffffffffff1673ffffffffffffffffffffffffffffffffffffffff1614610d73576040517f08c379a0000000000000000000000000000000000000000000000000000000008152600401610d6a9061268e565b60405180910390fd5b60006006600085815260200190815260200160002060020154905060008311610dd1576040517f08c379a0000000000000000000000000000000000000000000000000000000008152600401610dc8906125a8565b60405180910390fd5b6005543414610e15576040517f08c379a0000000000000000000000000000000000000000000000000000000008152600401610e0c90612720565b60405180910390fd5b60008590508073ffffffffffffffffffffffffffffffffffffffff1663f5537ede3330856040518463ffffffff1660e01b8152600401610e5793929190612740565b600060405180830381600087803b158015610e7157600080fd5b505af1158015610e85573d6000803e3d6000fd5b5050505060006006600087815260200190815260200160002060050160009054906101000a900473ffffffffffffffffffffffffffffffffffffffff16905060006006600088815260200190815260200160002060050160006101000a81548173ffffffffffffffffffffffffffffffffffffffff021916908373ffffffffffffffffffffffffffffffffffffffff160217905550806006600088815260200190815260200160002060040160006101000a81548173ffffffffffffffffffffffffffffffffffffffff021916908373ffffffffffffffffffffffffffffffffffffffff16021790555084600660008881526020019081526020016000206006018190555060006006600088815260200190815260200160002060070160006101000a81548160ff021916908315150217905550610fc36002611e2b565b857f221866c21613d6f0d77d42f9309b122a25deed1bc186cff9c2f1ddafc52c34f660405160405180910390a2505050506001600081905550505050565b600260005403611046576040517f08c379a000000000000000000000000000000000000000000000000000000000815260040161103d9061253c565b60405180910390fd5b6002600081905550600060066000848152602001908152602001600020600201549050600082116110ac576040517f08c379a00000000000000000000000000000000000000000000000000000000081526004016110a3906125a8565b60405180910390fd5b60055434146110f0576040517f08c379a00000000000000000000000000000000000000000000000000000000081526004016110e7906127c3565b60405180910390fd5b60006006600085815260200190815260200160002060050160009054906101000a900473ffffffffffffffffffffffffffffffffffffffff16905060006006600086815260200190815260200160002060050160006101000a81548173ffffffffffffffffffffffffffffffffffffffff021916908373ffffffffffffffffffffffffffffffffffffffff160217905550806006600086815260200190815260200160002060040160006101000a81548173ffffffffffffffffffffffffffffffffffffffff021916908373ffffffffffffffffffffffffffffffffffffffff16021790555082600660008681526020019081526020016000206006018190555060006006600086815260200190815260200160002060070160006101000a81548160ff0219169083151502179055508473ffffffffffffffffffffffffffffffffffffffff166323b872dd3330856040518463ffffffff1660e01b815260040161125d93929190612740565b600060405180830381600087803b15801561127757600080fd5b505af115801561128b573d6000803e3d6000fd5b50505050837f221866c21613d6f0d77d42f9309b122a25deed1bc186cff9c2f1ddafc52c34f660405160405180910390a250506001600081905550505050565b606060006112d96001611e07565b905060008060005b838110156113bb578573ffffffffffffffffffffffffffffffffffffffff16600660006001846113119190612434565b815260200190815260200160002060030160009054906101000a900473ffffffffffffffffffffffffffffffffffffffff1673ffffffffffffffffffffffffffffffffffffffff161480156113935750600660006001836113729190612434565b815260200190815260200160002060070160009054906101000a900460ff16155b156113a8576001836113a59190612434565b92505b80806113b390612497565b9150506112e1565b5060008267ffffffffffffffff8111156113d8576113d7612405565b5b60405190808252806020026020018201604052801561141157816020015b6113fe611e87565b8152602001906001900390816113f65790505b50905060005b848110156116d7578673ffffffffffffffffffffffffffffffffffffffff16600660006001846114479190612434565b815260200190815260200160002060030160009054906101000a900473ffffffffffffffffffffffffffffffffffffffff1673ffffffffffffffffffffffffffffffffffffffff161480156114c95750600660006001836114a89190612434565b815260200190815260200160002060070160009054906101000a900460ff16155b156116c45760006001826114dd9190612434565b905060006006600083815260200190815260200160002090508060405180610100016040529081600082015481526020016001820160009054906101000a900473ffffffffffffffffffffffffffffffffffffffff1673ffffffffffffffffffffffffffffffffffffffff1673ffffffffffffffffffffffffffffffffffffffff168152602001600282015481526020016003820160009054906101000a900473ffffffffffffffffffffffffffffffffffffffff1673ffffffffffffffffffffffffffffffffffffffff1673ffffffffffffffffffffffffffffffffffffffff1681526020016004820160009054906101000a900473ffffffffffffffffffffffffffffffffffffffff1673ffffffffffffffffffffffffffffffffffffffff1673ffffffffffffffffffffffffffffffffffffffff1681526020016005820160009054906101000a900473ffffffffffffffffffffffffffffffffffffffff1673ffffffffffffffffffffffffffffffffffffffff1673ffffffffffffffffffffffffffffffffffffffff168152602001600682015481526020016007820160009054906101000a900460ff1615151515815250508486815181106116a7576116a6612468565b5b60200260200101819052506001856116bf9190612434565b945050505b80806116cf90612497565b915050611417565b5080945050505050919050565b6116ec611e87565b6006600083815260200190815260200160002060405180610100016040529081600082015481526020016001820160009054906101000a900473ffffffffffffffffffffffffffffffffffffffff1673ffffffffffffffffffffffffffffffffffffffff1673ffffffffffffffffffffffffffffffffffffffff168152602001600282015481526020016003820160009054906101000a900473ffffffffffffffffffffffffffffffffffffffff1673ffffffffffffffffffffffffffffffffffffffff1673ffffffffffffffffffffffffffffffffffffffff1681526020016004820160009054906101000a900473ffffffffffffffffffffffffffffffffffffffff1673ffffffffffffffffffffffffffffffffffffffff1673ffffffffffffffffffffffffffffffffffffffff1681526020016005820160009054906101000a900473ffffffffffffffffffffffffffffffffffffffff1673ffffffffffffffffffffffffffffffffffffffff1673ffffffffffffffffffffffffffffffffffffffff168152602001600682015481526020016007820160009054906101000a900460ff1615151515815250509050919050565b81600073ffffffffffffffffffffffffffffffffffffffff166006600083815260200190815260200160002060050160009054906101000a900473ffffffffffffffffffffffffffffffffffffffff1673ffffffffffffffffffffffffffffffffffffffff1614801561197757503373ffffffffffffffffffffffffffffffffffffffff166006600083815260200190815260200160002060040160009054906101000a900473ffffffffffffffffffffffffffffffffffffffff1673ffffffffffffffffffffffffffffffffffffffff16145b6119b6576040517f08c379a00000000000000000000000000000000000000000000000000000000081526004016119ad90612855565b60405180910390fd5b60006006600085815260200190815260200160002090506000816006015490508382600601819055508381867fc598db734b93c7fd9412e07c1e464ebb4d3dcf9b02c03af26710b307f8b773db60405160405180910390a45050505050565b600260005403611a5a576040517f08c379a0000000000000000000000000000000000000000000000000000000008152600401611a519061253c565b60405180910390fd5b6002600081905550600060066000838152602001908152602001600020600601549050600060066000848152602001908152602001600020600201549050813414611ada576040517f08c379a0000000000000000000000000000000000000000000000000000000008152600401611ad1906128e7565b60405180910390fd5b6006600084815260200190815260200160002060040160009054906101000a900473ffffffffffffffffffffffffffffffffffffffff1673ffffffffffffffffffffffffffffffffffffffff166108fc349081150290604051600060405180830381858888f19350505050158015611b56573d6000803e3d6000fd5b508373ffffffffffffffffffffffffffffffffffffffff166323b872dd3033846040518463ffffffff1660e01b8152600401611b9493929190612740565b600060405180830381600087803b158015611bae57600080fd5b505af1158015611bc2573d6000803e3d6000fd5b50505050336006600085815260200190815260200160002060050160006101000a81548173ffffffffffffffffffffffffffffffffffffffff021916908373ffffffffffffffffffffffffffffffffffffffff16021790555060016006600085815260200190815260200160002060070160006101000a81548160ff021916908315150217905550611c546002611e15565b600460009054906101000a900473ffffffffffffffffffffffffffffffffffffffff1673ffffffffffffffffffffffffffffffffffffffff166108fc6005549081150290604051600060405180830381858888f19350505050158015611cbe573d6000803e3d6000fd5b5060066000848152602001908152602001600020600201546006600085815260200190815260200160002060010160009054906101000a900473ffffffffffffffffffffffffffffffffffffffff1673ffffffffffffffffffffffffffffffffffffffff1660066000868152602001908152602001600020600001547fa3995d82a47846edcc310e87a16f5a2cd75d32a7cf59cbd513e132bced64ee8f6006600088815260200190815260200160002060030160009054906101000a900473ffffffffffffffffffffffffffffffffffffffff166006600089815260200190815260200160002060040160009054906101000a900473ffffffffffffffffffffffffffffffffffffffff1633600660008b815260200190815260200160002060060154604051611df19493929190612966565b60405180910390a4505060016000819055505050565b600081600001549050919050565b6001816000016000828254019250508190555050565b60008160000154905060008111611e77576040517f08c379a0000000000000000000000000000000000000000000000000000000008152600401611e6e906129f7565b60405180910390fd5b6001810382600001819055505050565b60405180610100016040528060008152602001600073ffffffffffffffffffffffffffffffffffffffff16815260200160008152602001600073ffffffffffffffffffffffffffffffffffffffff168152602001600073ffffffffffffffffffffffffffffffffffffffff168152602001600073ffffffffffffffffffffffffffffffffffffffff168152602001600081526020016000151581525090565b600081519050919050565b600082825260208201905092915050565b6000819050602082019050919050565b6000819050919050565b611f6581611f52565b82525050565b600073ffffffffffffffffffffffffffffffffffffffff82169050919050565b6000611f9682611f6b565b9050919050565b611fa681611f8b565b82525050565b6000611fb782611f6b565b9050919050565b611fc781611fac565b82525050565b60008115159050919050565b611fe281611fcd565b82525050565b61010082016000820151611fff6000850182611f5c565b5060208201516120126020850182611f9d565b5060408201516120256040850182611f5c565b5060608201516120386060850182611fbe565b50608082015161204b6080850182611fbe565b5060a082015161205e60a0850182611fbe565b5060c082015161207160c0850182611f5c565b5060e082015161208460e0850182611fd9565b50505050565b60006120968383611fe8565b6101008301905092915050565b6000602082019050919050565b60006120bb82611f26565b6120c58185611f31565b93506120d083611f42565b8060005b838110156121015781516120e8888261208a565b97506120f3836120a3565b9250506001810190506120d4565b5085935050505092915050565b6000602082019050818103600083015261212881846120b0565b905092915050565b61213981611f52565b82525050565b60006020820190506121546000830184612130565b92915050565b600080fd5b61216881611f8b565b811461217357600080fd5b50565b6000813590506121858161215f565b92915050565b61219481611f52565b811461219f57600080fd5b50565b6000813590506121b18161218b565b92915050565b6000806000606084860312156121d0576121cf61215a565b5b60006121de86828701612176565b93505060206121ef868287016121a2565b9250506040612200868287016121a2565b9150509250925092565b6000602082840312156122205761221f61215a565b5b600061222e84828501612176565b91505092915050565b60006020828403121561224d5761224c61215a565b5b600061225b848285016121a2565b91505092915050565b6101008201600082015161227b6000850182611f5c565b50602082015161228e6020850182611f9d565b5060408201516122a16040850182611f5c565b5060608201516122b46060850182611fbe565b5060808201516122c76080850182611fbe565b5060a08201516122da60a0850182611fbe565b5060c08201516122ed60c0850182611f5c565b5060e082015161230060e0850182611fd9565b50505050565b60006101008201905061231c6000830184612264565b92915050565b600080604083850312156123395761233861215a565b5b6000612347858286016121a2565b9250506020612358858286016121a2565b9150509250929050565b600080604083850312156123795761237861215a565b5b600061238785828601612176565b9250506020612398858286016121a2565b9150509250929050565b7f4e487b7100000000000000000000000000000000000000000000000000000000600052601160045260246000fd5b60006123dc82611f52565b91506123e783611f52565b92508282039050818111156123ff576123fe6123a2565b5b92915050565b7f4e487b7100000000000000000000000000000000000000000000000000000000600052604160045260246000fd5b600061243f82611f52565b915061244a83611f52565b9250828201905080821115612462576124616123a2565b5b92915050565b7f4e487b7100000000000000000000000000000000000000000000000000000000600052603260045260246000fd5b60006124a282611f52565b91507fffffffffffffffffffffffffffffffffffffffffffffffffffffffffffffffff82036124d4576124d36123a2565b5b600182019050919050565b600082825260208201905092915050565b7f5265656e7472616e637947756172643a207265656e7472616e742063616c6c00600082015250565b6000612526601f836124df565b9150612531826124f0565b602082019050919050565b6000602082019050818103600083015261255581612519565b9050919050565b7f5072696365206d757374206265206174206c6561737420312077656900000000600082015250565b6000612592601c836124df565b915061259d8261255c565b602082019050919050565b600060208201905081810360008301526125c181612585565b9050919050565b6125d181611f8b565b82525050565b60006080820190506125ec60008301876125c8565b6125f960208301866125c8565b61260660408301856125c8565b6126136060830184612130565b95945050505050565b7f4f6e6c792070726f64756374206f776e65722063616e20646f2074686973206f60008201527f7065726174696f6e000000000000000000000000000000000000000000000000602082015250565b60006126786028836124df565b91506126838261261c565b604082019050919050565b600060208201905081810360008301526126a78161266b565b9050919050565b7f5072696365206d75737420626520657175616c20746f206c697374696e67207060008201527f7269636500000000000000000000000000000000000000000000000000000000602082015250565b600061270a6024836124df565b9150612715826126ae565b604082019050919050565b60006020820190508181036000830152612739816126fd565b9050919050565b600060608201905061275560008301866125c8565b61276260208301856125c8565b61276f6040830184612130565b949350505050565b7f4c697374696e6720666565207265717569726564000000000000000000000000600082015250565b60006127ad6014836124df565b91506127b882612777565b602082019050919050565b600060208201905081810360008301526127dc816127a0565b9050919050565b7f4f6e6c79207468652070726f647563742063616e20646f2074686973206f706560008201527f726174696f6e0000000000000000000000000000000000000000000000000000602082015250565b600061283f6026836124df565b915061284a826127e3565b604082019050919050565b6000602082019050818103600083015261286e81612832565b9050919050565b7f506c65617365207375626d6974207468652061736b696e67207072696365206960008201527f6e206f7264657220746f20636f6d706c65746520746865207075726368617365602082015250565b60006128d16040836124df565b91506128dc82612875565b604082019050919050565b60006020820190508181036000830152612900816128c4565b9050919050565b6000819050919050565b600061292c61292761292284611f6b565b612907565b611f6b565b9050919050565b600061293e82612911565b9050919050565b600061295082612933565b9050919050565b61296081612945565b82525050565b600060808201905061297b6000830187612957565b6129886020830186612957565b6129956040830185612957565b6129a26060830184612130565b95945050505050565b7f436f756e7465723a2064656372656d656e74206f766572666c6f770000000000600082015250565b60006129e1601b836124df565b91506129ec826129ab565b602082019050919050565b60006020820190508181036000830152612a10816129d4565b905091905056fea2646970667358221220a567b10d35449edc90b649ef1745c62607cce08ea4d80dcfe9c2ac7b9a59ecda64736f6c63430008110033",
  "immutableReferences": {},
  "source": "// SPDX-License-Identifier: MIT OR Apache-2.0\npragma solidity ^0.8.3;\n\nimport '@openzeppelin/contracts/utils/Counters.sol';\nimport '@openzeppelin/contracts/token/ERC721/extensions/ERC721URIStorage.sol';\nimport '@openzeppelin/contracts/token/ERC721/ERC721.sol';\nimport '@openzeppelin/contracts/security/ReentrancyGuard.sol';\n\nimport './NFT.sol';\n\ncontract Market is ReentrancyGuard {\n  using Counters for Counters.Counter;\n  Counters.Counter private _itemsIds;\n  Counters.Counter private _itemsSold;\n  Counters.Counter private _itemsDeleted;\n\n  // owner of the marketplace\n  address payable owner;\n  // price for putting something to sale in the Marketplace\n  uint256 listingPrice = 0.001 ether;\n\n  constructor() {\n    //set the owner of the contract to the one that deployed it\n    owner = payable(msg.sender);\n  }\n\n  /* Returns the listing price of the contract */\n  // function getListingPrice() public view returns (uint256) {\n  //   return listingPrice;\n  // }\n\n  struct MarketItem {\n    uint256 itemId;\n    address nftContract;\n    uint256 tokenId;\n    address payable creator;\n    address payable seller;\n    address payable owner;\n    uint256 price;\n    bool sold;\n  }\n\n  mapping(uint256 => MarketItem) private idToMarketItem;\n\n  event MarketItemCreated(\n    uint256 indexed itemId,\n    address indexed nftContract,\n    uint256 indexed tokenId,\n    address creator,\n    address seller,\n    address owner,\n    uint256 price\n  );\n\n  //mateus\n\n  event ProductUpdated(\n    uint256 indexed itemId,\n    uint256 indexed oldPrice,\n    uint256 indexed newPrice\n  );\n\n  event MarketItemDeleted(uint256 itemId);\n\n  event ProductSold(\n    uint256 indexed itemId,\n    address indexed nftContract,\n    uint256 indexed tokenId,\n    address creator,\n    address seller,\n    address owner,\n    uint256 price\n  );\n\n  event ProductListed(uint256 indexed itemId);\n\n  modifier onlyProductOrMarketPlaceOwner(uint256 id) {\n    if (idToMarketItem[id].owner != address(0)) {\n      require(idToMarketItem[id].owner == msg.sender);\n    } else {\n      require(idToMarketItem[id].seller == msg.sender || msg.sender == owner);\n    }\n    _;\n  }\n\n  modifier onlyProductSeller(uint256 id) {\n    require(\n      idToMarketItem[id].owner == address(0) &&\n        idToMarketItem[id].seller == msg.sender,\n      'Only the product can do this operation'\n    );\n    _;\n  }\n\n  modifier onlyItemOwner(uint256 id) {\n    require(\n      idToMarketItem[id].owner == msg.sender,\n      'Only product owner can do this operation'\n    );\n    _;\n  }\n\n  function getListingPrice() public view returns (uint256) {\n    return listingPrice;\n  }\n\n  //mateus\n\n  function registMarketItem(\n    address nftContract,\n    uint256 tokenId,\n    uint256 price\n  ) public payable nonReentrant {\n    require(price > 0, 'Price must be at least 1 wei');\n    // obligates the seller to pay the listing price\n    //require(msg.value == listingPrice, 'Listing fee required');\n\n    _itemsIds.increment();\n    uint256 itemId = _itemsIds.current();\n\n    idToMarketItem[itemId] = MarketItem(\n      itemId,\n      nftContract,\n      tokenId,\n      payable(address(0)),\n      payable(address(0)),\n      payable(msg.sender),\n      price,\n      true\n    );\n\n    emit MarketItemCreated(\n      itemId,\n      nftContract,\n      tokenId,\n      address(0),\n      address(0),\n      msg.sender,\n      price\n    );\n  }\n\n  function createMarketItem(\n    address nftContract,\n    uint256 itemId,\n    uint256 price\n  ) public payable nonReentrant {\n    uint256 tokenId = idToMarketItem[itemId].tokenId;\n    require(price > 0, 'Price must be at least 1 wei');\n    // obligates the seller to pay the listing price\n    require(msg.value == listingPrice, 'Listing fee required');\n\n    address payable oldOwner = idToMarketItem[itemId].owner;\n    idToMarketItem[itemId].owner = payable(address(0));\n    idToMarketItem[itemId].seller = oldOwner;\n    idToMarketItem[itemId].price = price;\n    idToMarketItem[itemId].sold = false;\n\n    IERC721(nftContract).transferFrom(msg.sender, address(this), tokenId);\n\n    emit ProductListed(itemId);\n  }\n\n  function updateMarketItemPrice(uint256 id, uint256 newPrice)\n    public\n    payable\n    onlyProductSeller(id)\n  {\n    MarketItem storage item = idToMarketItem[id];\n    uint256 oldPrice = item.price;\n    item.price = newPrice;\n\n    emit ProductUpdated(id, oldPrice, newPrice);\n  }\n\n  // mateus\n\n  function createMarketSale(address nftContract, uint256 itemId)\n    public\n    payable\n    nonReentrant\n  {\n    uint256 price = idToMarketItem[itemId].price;\n    uint256 tokenId = idToMarketItem[itemId].tokenId;\n    require(\n      msg.value == price,\n      'Please submit the asking price in order to complete the purchase'\n    );\n\n    idToMarketItem[itemId].seller.transfer(msg.value);\n    IERC721(nftContract).transferFrom(address(this), msg.sender, tokenId);\n    idToMarketItem[itemId].owner = payable(msg.sender);\n    idToMarketItem[itemId].sold = true;\n    _itemsSold.increment();\n\n    //regards the marketplace with the listingPrice\n    payable(owner).transfer(listingPrice);\n\n    emit ProductSold(\n      idToMarketItem[itemId].itemId,\n      idToMarketItem[itemId].nftContract,\n      idToMarketItem[itemId].tokenId,\n      idToMarketItem[itemId].creator,\n      idToMarketItem[itemId].seller,\n      payable(msg.sender),\n      idToMarketItem[itemId].price\n    );\n  }\n\n  function putItemToResell(\n    address nftContract,\n    uint256 itemId,\n    uint256 newPrice\n  ) public payable nonReentrant onlyItemOwner(itemId) {\n    uint256 tokenId = idToMarketItem[itemId].tokenId;\n    require(newPrice > 0, 'Price must be at least 1 wei');\n    require(msg.value == listingPrice, 'Price must be equal to listing price');\n\n    NFT tokenContract = NFT(nftContract);\n\n    tokenContract.transferToken(msg.sender, address(this), tokenId);\n\n    address payable oldOwner = idToMarketItem[itemId].owner;\n    idToMarketItem[itemId].owner = payable(address(0));\n    idToMarketItem[itemId].seller = oldOwner;\n    idToMarketItem[itemId].price = newPrice;\n    idToMarketItem[itemId].sold = false;\n    _itemsSold.decrement();\n\n    emit ProductListed(itemId);\n  }\n\n  function fetchMarketItems() public view returns (MarketItem[] memory) {\n    uint256 itemCount = _itemsIds.current();\n    uint256 unsoldItemCount = _itemsIds.current() -\n      _itemsSold.current() -\n      _itemsDeleted.current();\n    uint256 currentIndex = 0;\n\n    MarketItem[] memory items = new MarketItem[](unsoldItemCount);\n    for (uint256 i = 0; i < itemCount; i++) {\n      if (\n        idToMarketItem[i + 1].owner == address(0) &&\n        idToMarketItem[i + 1].sold == false &&\n        idToMarketItem[i + 1].tokenId != 0\n      ) {\n        uint256 currentId = i + 1;\n        MarketItem storage currentItem = idToMarketItem[currentId];\n        items[currentIndex] = currentItem;\n        currentIndex += 1;\n      }\n    }\n    return items;\n  }\n\n  function fetchSingleItem(uint256 id) public view returns (MarketItem memory) {\n    return idToMarketItem[id];\n  }\n\n  function fetchMyNFTs() public view returns (MarketItem[] memory) {\n    uint256 totalItemCount = _itemsIds.current();\n    uint256 itemCount = 0;\n    uint256 currentIndex = 0;\n\n    for (uint256 i = 0; i < totalItemCount; i++) {\n      if (idToMarketItem[i + 1].owner == msg.sender) {\n        itemCount += 1;\n      }\n    }\n\n    MarketItem[] memory items = new MarketItem[](itemCount);\n    for (uint256 i = 0; i < totalItemCount; i++) {\n      if (idToMarketItem[i + 1].owner == msg.sender) {\n        uint256 currentId = i + 1;\n        MarketItem storage currentItem = idToMarketItem[currentId];\n        items[currentIndex] = currentItem;\n        currentIndex += 1;\n      }\n    }\n    return items;\n  }\n\n  function fetchAuthorsCreations(address author)\n    public\n    view\n    returns (MarketItem[] memory)\n  {\n    uint256 totalItemCount = _itemsIds.current();\n    uint256 itemCount = 0;\n    uint256 currentIndex = 0;\n\n    for (uint256 i = 0; i < totalItemCount; i++) {\n      if (\n        idToMarketItem[i + 1].creator == author && !idToMarketItem[i + 1].sold\n      ) {\n        itemCount += 1;\n      }\n    }\n\n    MarketItem[] memory items = new MarketItem[](itemCount);\n    for (uint256 i = 0; i < totalItemCount; i++) {\n      if (\n        idToMarketItem[i + 1].creator == author && !idToMarketItem[i + 1].sold\n      ) {\n        uint256 currentId = i + 1;\n        MarketItem storage currentItem = idToMarketItem[currentId];\n        items[currentIndex] = currentItem;\n        currentIndex += 1;\n      }\n    }\n    return items;\n  }\n}\n",
  "sourcePath": "/Users/yjs/Documents/GitHub/planetrunners/backend/contracts/Market.sol",
  "compiler": {
    "name": "solc",
    "version": "0.8.17+commit.8df45f5f.Emscripten.clang"
  },
  "schemaVersion": "3.4.9",
  "updatedAt": "2022-09-29T17:17:42.950Z",
  "networkType": "ethereum",
  "devdoc": {
    "kind": "dev",
    "methods": {},
    "version": 1
  },
  "userdoc": {
    "kind": "user",
    "methods": {},
    "version": 1
  }
}