{
  "contractName": "Market",
  "abi": [
    {
      "inputs": [],
      "stateMutability": "nonpayable",
      "type": "constructor"
    },
    {
      "anonymous": false,
      "inputs": [
        {
          "indexed": true,
          "internalType": "uint256",
          "name": "itemId",
          "type": "uint256"
        },
        {
          "indexed": true,
          "internalType": "address",
          "name": "nftContract",
          "type": "address"
        },
        {
          "indexed": true,
          "internalType": "uint256",
          "name": "tokenId",
          "type": "uint256"
        },
        {
          "indexed": false,
          "internalType": "address",
          "name": "creator",
          "type": "address"
        },
        {
          "indexed": false,
          "internalType": "address",
          "name": "seller",
          "type": "address"
        },
        {
          "indexed": false,
          "internalType": "address",
          "name": "owner",
          "type": "address"
        },
        {
          "indexed": false,
          "internalType": "uint256",
          "name": "price",
          "type": "uint256"
        }
      ],
      "name": "MarketItemCreated",
      "type": "event"
    },
    {
      "anonymous": false,
      "inputs": [
        {
          "indexed": false,
          "internalType": "uint256",
          "name": "itemId",
          "type": "uint256"
        }
      ],
      "name": "MarketItemDeleted",
      "type": "event"
    },
    {
      "anonymous": false,
      "inputs": [
        {
          "indexed": true,
          "internalType": "uint256",
          "name": "itemId",
          "type": "uint256"
        }
      ],
      "name": "ProductListed",
      "type": "event"
    },
    {
      "anonymous": false,
      "inputs": [
        {
          "indexed": true,
          "internalType": "uint256",
          "name": "itemId",
          "type": "uint256"
        },
        {
          "indexed": false,
          "internalType": "address",
          "name": "oldOwner",
          "type": "address"
        },
        {
          "indexed": false,
          "internalType": "address",
          "name": "newOwner",
          "type": "address"
        }
      ],
      "name": "ProductOwnerUpdated",
      "type": "event"
    },
    {
      "anonymous": false,
      "inputs": [
        {
          "indexed": true,
          "internalType": "uint256",
          "name": "itemId",
          "type": "uint256"
        },
        {
          "indexed": true,
          "internalType": "uint256",
          "name": "oldPrice",
          "type": "uint256"
        },
        {
          "indexed": true,
          "internalType": "uint256",
          "name": "newPrice",
          "type": "uint256"
        }
      ],
      "name": "ProductPriceUpdated",
      "type": "event"
    },
    {
      "anonymous": false,
      "inputs": [
        {
          "indexed": true,
          "internalType": "uint256",
          "name": "itemId",
          "type": "uint256"
        },
        {
          "indexed": true,
          "internalType": "address",
          "name": "nftContract",
          "type": "address"
        },
        {
          "indexed": true,
          "internalType": "uint256",
          "name": "tokenId",
          "type": "uint256"
        },
        {
          "indexed": false,
          "internalType": "address",
          "name": "creator",
          "type": "address"
        },
        {
          "indexed": false,
          "internalType": "address",
          "name": "seller",
          "type": "address"
        },
        {
          "indexed": false,
          "internalType": "address",
          "name": "owner",
          "type": "address"
        },
        {
          "indexed": false,
          "internalType": "uint256",
          "name": "price",
          "type": "uint256"
        }
      ],
      "name": "ProductSold",
      "type": "event"
    },
    {
      "inputs": [],
      "name": "getListingPrice",
      "outputs": [
        {
          "internalType": "uint256",
          "name": "",
          "type": "uint256"
        }
      ],
      "stateMutability": "view",
      "type": "function",
      "constant": true
    },
    {
      "inputs": [
        {
          "internalType": "address",
          "name": "nftContract",
          "type": "address"
        },
        {
          "internalType": "uint256",
          "name": "tokenId",
          "type": "uint256"
        },
        {
          "internalType": "uint256",
          "name": "price",
          "type": "uint256"
        }
      ],
      "name": "registMarketItem",
      "outputs": [],
      "stateMutability": "payable",
      "type": "function",
      "payable": true
    },
    {
      "inputs": [
        {
          "internalType": "address",
          "name": "nftContract",
          "type": "address"
        },
        {
          "internalType": "uint256",
          "name": "itemId",
          "type": "uint256"
        },
        {
          "internalType": "uint256",
          "name": "price",
          "type": "uint256"
        }
      ],
      "name": "createMarketItem",
      "outputs": [],
      "stateMutability": "payable",
      "type": "function",
      "payable": true
    },
    {
      "inputs": [
        {
          "internalType": "uint256",
          "name": "id",
          "type": "uint256"
        },
        {
          "internalType": "uint256",
          "name": "newPrice",
          "type": "uint256"
        }
      ],
      "name": "updateMarketItemPrice",
      "outputs": [],
      "stateMutability": "payable",
      "type": "function",
      "payable": true
    },
    {
      "inputs": [
        {
          "internalType": "address",
          "name": "nftContract",
          "type": "address"
        },
        {
          "internalType": "uint256",
          "name": "id",
          "type": "uint256"
        },
        {
          "internalType": "address",
          "name": "newOwner",
          "type": "address"
        }
      ],
      "name": "updateMarketItemOwner",
      "outputs": [],
      "stateMutability": "payable",
      "type": "function",
      "payable": true
    },
    {
      "inputs": [
        {
          "internalType": "address",
          "name": "nftContract",
          "type": "address"
        },
        {
          "internalType": "uint256",
          "name": "itemId",
          "type": "uint256"
        }
      ],
      "name": "createMarketSale",
      "outputs": [],
      "stateMutability": "payable",
      "type": "function",
      "payable": true
    },
    {
      "inputs": [
        {
          "internalType": "address",
          "name": "nftContract",
          "type": "address"
        },
        {
          "internalType": "uint256",
          "name": "itemId",
          "type": "uint256"
        },
        {
          "internalType": "uint256",
          "name": "newPrice",
          "type": "uint256"
        }
      ],
      "name": "putItemToResell",
      "outputs": [],
      "stateMutability": "payable",
      "type": "function",
      "payable": true
    },
    {
      "inputs": [],
      "name": "fetchMarketItems",
      "outputs": [
        {
          "components": [
            {
              "internalType": "uint256",
              "name": "itemId",
              "type": "uint256"
            },
            {
              "internalType": "address",
              "name": "nftContract",
              "type": "address"
            },
            {
              "internalType": "uint256",
              "name": "tokenId",
              "type": "uint256"
            },
            {
              "internalType": "address payable",
              "name": "creator",
              "type": "address"
            },
            {
              "internalType": "address payable",
              "name": "seller",
              "type": "address"
            },
            {
              "internalType": "address payable",
              "name": "owner",
              "type": "address"
            },
            {
              "internalType": "uint256",
              "name": "price",
              "type": "uint256"
            },
            {
              "internalType": "bool",
              "name": "sold",
              "type": "bool"
            }
          ],
          "internalType": "struct Market.MarketItem[]",
          "name": "",
          "type": "tuple[]"
        }
      ],
      "stateMutability": "view",
      "type": "function",
      "constant": true
    },
    {
      "inputs": [
        {
          "internalType": "uint256",
          "name": "id",
          "type": "uint256"
        }
      ],
      "name": "fetchSingleItem",
      "outputs": [
        {
          "components": [
            {
              "internalType": "uint256",
              "name": "itemId",
              "type": "uint256"
            },
            {
              "internalType": "address",
              "name": "nftContract",
              "type": "address"
            },
            {
              "internalType": "uint256",
              "name": "tokenId",
              "type": "uint256"
            },
            {
              "internalType": "address payable",
              "name": "creator",
              "type": "address"
            },
            {
              "internalType": "address payable",
              "name": "seller",
              "type": "address"
            },
            {
              "internalType": "address payable",
              "name": "owner",
              "type": "address"
            },
            {
              "internalType": "uint256",
              "name": "price",
              "type": "uint256"
            },
            {
              "internalType": "bool",
              "name": "sold",
              "type": "bool"
            }
          ],
          "internalType": "struct Market.MarketItem",
          "name": "",
          "type": "tuple"
        }
      ],
      "stateMutability": "view",
      "type": "function",
      "constant": true
    },
    {
      "inputs": [],
      "name": "fetchMyNFTs",
      "outputs": [
        {
          "components": [
            {
              "internalType": "uint256",
              "name": "itemId",
              "type": "uint256"
            },
            {
              "internalType": "address",
              "name": "nftContract",
              "type": "address"
            },
            {
              "internalType": "uint256",
              "name": "tokenId",
              "type": "uint256"
            },
            {
              "internalType": "address payable",
              "name": "creator",
              "type": "address"
            },
            {
              "internalType": "address payable",
              "name": "seller",
              "type": "address"
            },
            {
              "internalType": "address payable",
              "name": "owner",
              "type": "address"
            },
            {
              "internalType": "uint256",
              "name": "price",
              "type": "uint256"
            },
            {
              "internalType": "bool",
              "name": "sold",
              "type": "bool"
            }
          ],
          "internalType": "struct Market.MarketItem[]",
          "name": "",
          "type": "tuple[]"
        }
      ],
      "stateMutability": "view",
      "type": "function",
      "constant": true
    },
    {
      "inputs": [
        {
          "internalType": "address",
          "name": "author",
          "type": "address"
        }
      ],
      "name": "fetchAuthorsCreations",
      "outputs": [
        {
          "components": [
            {
              "internalType": "uint256",
              "name": "itemId",
              "type": "uint256"
            },
            {
              "internalType": "address",
              "name": "nftContract",
              "type": "address"
            },
            {
              "internalType": "uint256",
              "name": "tokenId",
              "type": "uint256"
            },
            {
              "internalType": "address payable",
              "name": "creator",
              "type": "address"
            },
            {
              "internalType": "address payable",
              "name": "seller",
              "type": "address"
            },
            {
              "internalType": "address payable",
              "name": "owner",
              "type": "address"
            },
            {
              "internalType": "uint256",
              "name": "price",
              "type": "uint256"
            },
            {
              "internalType": "bool",
              "name": "sold",
              "type": "bool"
            }
          ],
          "internalType": "struct Market.MarketItem[]",
          "name": "",
          "type": "tuple[]"
        }
      ],
      "stateMutability": "view",
      "type": "function",
      "constant": true
    }
  ],
  "bytecode": "0x608060405266038d7ea4c6800060055534801561001b57600080fd5b50600160008190555033600460006101000a81548173ffffffffffffffffffffffffffffffffffffffff021916908373ffffffffffffffffffffffffffffffffffffffff160217905550612ca5806100746000396000f3fe60806040526004361061009c5760003560e01c806358eb2df51161006457806358eb2df51461015a5780636c8081ed14610176578063a2bf932a146101b3578063ae13a317146101f0578063c23b139e1461020c578063e546760b146102285761009c565b80630f08efe0146100a157806312e85585146100cc5780631d02b149146100f7578063202e37401461011357806358271fff1461013e575b600080fd5b3480156100ad57600080fd5b506100b6610244565b6040516100c391906122ea565b60405180910390f35b3480156100d857600080fd5b506100e16105e7565b6040516100ee919061231b565b60405180910390f35b610111600480360381019061010c9190612393565b6105f1565b005b34801561011f57600080fd5b50610128610905565b60405161013591906122ea565b60405180910390f35b61015860048036038101906101539190612393565b610ca8565b005b610174600480360381019061016f9190612393565b611028565b005b34801561018257600080fd5b5061019d600480360381019061019891906123e6565b6112f2565b6040516101aa91906122ea565b60405180910390f35b3480156101bf57600080fd5b506101da60048036038101906101d59190612413565b61170b565b6040516101e791906124e2565b60405180910390f35b61020a600480360381019061020591906124fe565b6118ca565b005b6102266004803603810190610221919061253e565b611a3c565b005b610242600480360381019061023d919061257e565b611e2e565b005b606060006102526001611fe3565b905060006102606003611fe3565b61026a6002611fe3565b6102746001611fe3565b61027e9190612600565b6102889190612600565b90506000808267ffffffffffffffff8111156102a7576102a6612634565b5b6040519080825280602002602001820160405280156102e057816020015b6102cd612063565b8152602001906001900390816102c55790505b50905060005b848110156105dc57600073ffffffffffffffffffffffffffffffffffffffff16600660006001846103179190612663565b815260200190815260200160002060050160009054906101000a900473ffffffffffffffffffffffffffffffffffffffff1673ffffffffffffffffffffffffffffffffffffffff1614801561039f5750600015156006600060018461037c9190612663565b815260200190815260200160002060070160009054906101000a900460ff161515145b80156103ce57506000600660006001846103b99190612663565b81526020019081526020016000206002015414155b156105c95760006001826103e29190612663565b905060006006600083815260200190815260200160002090508060405180610100016040529081600082015481526020016001820160009054906101000a900473ffffffffffffffffffffffffffffffffffffffff1673ffffffffffffffffffffffffffffffffffffffff1673ffffffffffffffffffffffffffffffffffffffff168152602001600282015481526020016003820160009054906101000a900473ffffffffffffffffffffffffffffffffffffffff1673ffffffffffffffffffffffffffffffffffffffff1673ffffffffffffffffffffffffffffffffffffffff1681526020016004820160009054906101000a900473ffffffffffffffffffffffffffffffffffffffff1673ffffffffffffffffffffffffffffffffffffffff1673ffffffffffffffffffffffffffffffffffffffff1681526020016005820160009054906101000a900473ffffffffffffffffffffffffffffffffffffffff1673ffffffffffffffffffffffffffffffffffffffff1673ffffffffffffffffffffffffffffffffffffffff168152602001600682015481526020016007820160009054906101000a900460ff1615151515815250508486815181106105ac576105ab612697565b5b60200260200101819052506001856105c49190612663565b945050505b80806105d4906126c6565b9150506102e6565b508094505050505090565b6000600554905090565b600260005403610636576040517f08c379a000000000000000000000000000000000000000000000000000000000815260040161062d9061276b565b60405180910390fd5b600260008190555060008111610681576040517f08c379a0000000000000000000000000000000000000000000000000000000008152600401610678906127d7565b60405180910390fd5b61068b6001611ff1565b60006106976001611fe3565b90506040518061010001604052808281526020018573ffffffffffffffffffffffffffffffffffffffff168152602001848152602001600073ffffffffffffffffffffffffffffffffffffffff168152602001600073ffffffffffffffffffffffffffffffffffffffff1681526020013373ffffffffffffffffffffffffffffffffffffffff16815260200183815260200160011515815250600660008381526020019081526020016000206000820151816000015560208201518160010160006101000a81548173ffffffffffffffffffffffffffffffffffffffff021916908373ffffffffffffffffffffffffffffffffffffffff1602179055506040820151816002015560608201518160030160006101000a81548173ffffffffffffffffffffffffffffffffffffffff021916908373ffffffffffffffffffffffffffffffffffffffff16021790555060808201518160040160006101000a81548173ffffffffffffffffffffffffffffffffffffffff021916908373ffffffffffffffffffffffffffffffffffffffff16021790555060a08201518160050160006101000a81548173ffffffffffffffffffffffffffffffffffffffff021916908373ffffffffffffffffffffffffffffffffffffffff16021790555060c0820151816006015560e08201518160070160006101000a81548160ff021916908315150217905550905050828473ffffffffffffffffffffffffffffffffffffffff16827f7990294cab81bf6b251c45c1a6b14c27edfac0c2b574fc3dbea97ebe60dfbb9460008033886040516108ef9493929190612806565b60405180910390a4506001600081905550505050565b606060006109136001611fe3565b905060008060005b838110156109bb573373ffffffffffffffffffffffffffffffffffffffff166006600060018461094b9190612663565b815260200190815260200160002060050160009054906101000a900473ffffffffffffffffffffffffffffffffffffffff1673ffffffffffffffffffffffffffffffffffffffff16036109a8576001836109a59190612663565b92505b80806109b3906126c6565b91505061091b565b5060008267ffffffffffffffff8111156109d8576109d7612634565b5b604051908082528060200260200182016040528015610a1157816020015b6109fe612063565b8152602001906001900390816109f65790505b50905060005b84811015610c9d573373ffffffffffffffffffffffffffffffffffffffff1660066000600184610a479190612663565b815260200190815260200160002060050160009054906101000a900473ffffffffffffffffffffffffffffffffffffffff1673ffffffffffffffffffffffffffffffffffffffff1603610c8a576000600182610aa39190612663565b905060006006600083815260200190815260200160002090508060405180610100016040529081600082015481526020016001820160009054906101000a900473ffffffffffffffffffffffffffffffffffffffff1673ffffffffffffffffffffffffffffffffffffffff1673ffffffffffffffffffffffffffffffffffffffff168152602001600282015481526020016003820160009054906101000a900473ffffffffffffffffffffffffffffffffffffffff1673ffffffffffffffffffffffffffffffffffffffff1673ffffffffffffffffffffffffffffffffffffffff1681526020016004820160009054906101000a900473ffffffffffffffffffffffffffffffffffffffff1673ffffffffffffffffffffffffffffffffffffffff1673ffffffffffffffffffffffffffffffffffffffff1681526020016005820160009054906101000a900473ffffffffffffffffffffffffffffffffffffffff1673ffffffffffffffffffffffffffffffffffffffff1673ffffffffffffffffffffffffffffffffffffffff168152602001600682015481526020016007820160009054906101000a900460ff161515151581525050848681518110610c6d57610c6c612697565b5b6020026020010181905250600185610c859190612663565b945050505b8080610c95906126c6565b915050610a17565b508094505050505090565b600260005403610ced576040517f08c379a0000000000000000000000000000000000000000000000000000000008152600401610ce49061276b565b60405180910390fd5b6002600081905550813373ffffffffffffffffffffffffffffffffffffffff166006600083815260200190815260200160002060050160009054906101000a900473ffffffffffffffffffffffffffffffffffffffff1673ffffffffffffffffffffffffffffffffffffffff1614610d9a576040517f08c379a0000000000000000000000000000000000000000000000000000000008152600401610d91906128bd565b60405180910390fd5b60006006600085815260200190815260200160002060020154905060008311610df8576040517f08c379a0000000000000000000000000000000000000000000000000000000008152600401610def906127d7565b60405180910390fd5b6005543414610e3c576040517f08c379a0000000000000000000000000000000000000000000000000000000008152600401610e339061294f565b60405180910390fd5b60008590508073ffffffffffffffffffffffffffffffffffffffff1663f5537ede3330856040518463ffffffff1660e01b8152600401610e7e9392919061296f565b600060405180830381600087803b158015610e9857600080fd5b505af1158015610eac573d6000803e3d6000fd5b5050505060006006600087815260200190815260200160002060050160009054906101000a900473ffffffffffffffffffffffffffffffffffffffff16905060006006600088815260200190815260200160002060050160006101000a81548173ffffffffffffffffffffffffffffffffffffffff021916908373ffffffffffffffffffffffffffffffffffffffff160217905550806006600088815260200190815260200160002060040160006101000a81548173ffffffffffffffffffffffffffffffffffffffff021916908373ffffffffffffffffffffffffffffffffffffffff16021790555084600660008881526020019081526020016000206006018190555060006006600088815260200190815260200160002060070160006101000a81548160ff021916908315150217905550610fea6002612007565b857f221866c21613d6f0d77d42f9309b122a25deed1bc186cff9c2f1ddafc52c34f660405160405180910390a2505050506001600081905550505050565b60026000540361106d576040517f08c379a00000000000000000000000000000000000000000000000000000000081526004016110649061276b565b60405180910390fd5b6002600081905550600060066000848152602001908152602001600020600201549050600082116110d3576040517f08c379a00000000000000000000000000000000000000000000000000000000081526004016110ca906127d7565b60405180910390fd5b6005543414611117576040517f08c379a000000000000000000000000000000000000000000000000000000000815260040161110e906129f2565b60405180910390fd5b60006006600085815260200190815260200160002060050160009054906101000a900473ffffffffffffffffffffffffffffffffffffffff16905060006006600086815260200190815260200160002060050160006101000a81548173ffffffffffffffffffffffffffffffffffffffff021916908373ffffffffffffffffffffffffffffffffffffffff160217905550806006600086815260200190815260200160002060040160006101000a81548173ffffffffffffffffffffffffffffffffffffffff021916908373ffffffffffffffffffffffffffffffffffffffff16021790555082600660008681526020019081526020016000206006018190555060006006600086815260200190815260200160002060070160006101000a81548160ff0219169083151502179055508473ffffffffffffffffffffffffffffffffffffffff166323b872dd3330856040518463ffffffff1660e01b81526004016112849392919061296f565b600060405180830381600087803b15801561129e57600080fd5b505af11580156112b2573d6000803e3d6000fd5b50505050837f221866c21613d6f0d77d42f9309b122a25deed1bc186cff9c2f1ddafc52c34f660405160405180910390a250506001600081905550505050565b606060006113006001611fe3565b905060008060005b838110156113e2578573ffffffffffffffffffffffffffffffffffffffff16600660006001846113389190612663565b815260200190815260200160002060030160009054906101000a900473ffffffffffffffffffffffffffffffffffffffff1673ffffffffffffffffffffffffffffffffffffffff161480156113ba5750600660006001836113999190612663565b815260200190815260200160002060070160009054906101000a900460ff16155b156113cf576001836113cc9190612663565b92505b80806113da906126c6565b915050611308565b5060008267ffffffffffffffff8111156113ff576113fe612634565b5b60405190808252806020026020018201604052801561143857816020015b611425612063565b81526020019060019003908161141d5790505b50905060005b848110156116fe578673ffffffffffffffffffffffffffffffffffffffff166006600060018461146e9190612663565b815260200190815260200160002060030160009054906101000a900473ffffffffffffffffffffffffffffffffffffffff1673ffffffffffffffffffffffffffffffffffffffff161480156114f05750600660006001836114cf9190612663565b815260200190815260200160002060070160009054906101000a900460ff16155b156116eb5760006001826115049190612663565b905060006006600083815260200190815260200160002090508060405180610100016040529081600082015481526020016001820160009054906101000a900473ffffffffffffffffffffffffffffffffffffffff1673ffffffffffffffffffffffffffffffffffffffff1673ffffffffffffffffffffffffffffffffffffffff168152602001600282015481526020016003820160009054906101000a900473ffffffffffffffffffffffffffffffffffffffff1673ffffffffffffffffffffffffffffffffffffffff1673ffffffffffffffffffffffffffffffffffffffff1681526020016004820160009054906101000a900473ffffffffffffffffffffffffffffffffffffffff1673ffffffffffffffffffffffffffffffffffffffff1673ffffffffffffffffffffffffffffffffffffffff1681526020016005820160009054906101000a900473ffffffffffffffffffffffffffffffffffffffff1673ffffffffffffffffffffffffffffffffffffffff1673ffffffffffffffffffffffffffffffffffffffff168152602001600682015481526020016007820160009054906101000a900460ff1615151515815250508486815181106116ce576116cd612697565b5b60200260200101819052506001856116e69190612663565b945050505b80806116f6906126c6565b91505061143e565b5080945050505050919050565b611713612063565b6006600083815260200190815260200160002060405180610100016040529081600082015481526020016001820160009054906101000a900473ffffffffffffffffffffffffffffffffffffffff1673ffffffffffffffffffffffffffffffffffffffff1673ffffffffffffffffffffffffffffffffffffffff168152602001600282015481526020016003820160009054906101000a900473ffffffffffffffffffffffffffffffffffffffff1673ffffffffffffffffffffffffffffffffffffffff1673ffffffffffffffffffffffffffffffffffffffff1681526020016004820160009054906101000a900473ffffffffffffffffffffffffffffffffffffffff1673ffffffffffffffffffffffffffffffffffffffff1673ffffffffffffffffffffffffffffffffffffffff1681526020016005820160009054906101000a900473ffffffffffffffffffffffffffffffffffffffff1673ffffffffffffffffffffffffffffffffffffffff1673ffffffffffffffffffffffffffffffffffffffff168152602001600682015481526020016007820160009054906101000a900460ff1615151515815250509050919050565b81600073ffffffffffffffffffffffffffffffffffffffff166006600083815260200190815260200160002060050160009054906101000a900473ffffffffffffffffffffffffffffffffffffffff1673ffffffffffffffffffffffffffffffffffffffff1614801561199e57503373ffffffffffffffffffffffffffffffffffffffff166006600083815260200190815260200160002060040160009054906101000a900473ffffffffffffffffffffffffffffffffffffffff1673ffffffffffffffffffffffffffffffffffffffff16145b6119dd576040517f08c379a00000000000000000000000000000000000000000000000000000000081526004016119d490612a84565b60405180910390fd5b60006006600085815260200190815260200160002090506000816006015490508382600601819055508381867f7d30a0d7db7f5999a19cf6f1ab0ae8001b957ea555ca53d2ead7b44f99f9f9d160405160405180910390a45050505050565b600260005403611a81576040517f08c379a0000000000000000000000000000000000000000000000000000000008152600401611a789061276b565b60405180910390fd5b6002600081905550600060066000838152602001908152602001600020600601549050600060066000848152602001908152602001600020600201549050813414611b01576040517f08c379a0000000000000000000000000000000000000000000000000000000008152600401611af890612b16565b60405180910390fd5b6006600084815260200190815260200160002060040160009054906101000a900473ffffffffffffffffffffffffffffffffffffffff1673ffffffffffffffffffffffffffffffffffffffff166108fc349081150290604051600060405180830381858888f19350505050158015611b7d573d6000803e3d6000fd5b508373ffffffffffffffffffffffffffffffffffffffff166323b872dd3033846040518463ffffffff1660e01b8152600401611bbb9392919061296f565b600060405180830381600087803b158015611bd557600080fd5b505af1158015611be9573d6000803e3d6000fd5b50505050336006600085815260200190815260200160002060050160006101000a81548173ffffffffffffffffffffffffffffffffffffffff021916908373ffffffffffffffffffffffffffffffffffffffff16021790555060016006600085815260200190815260200160002060070160006101000a81548160ff021916908315150217905550611c7b6002611ff1565b600460009054906101000a900473ffffffffffffffffffffffffffffffffffffffff1673ffffffffffffffffffffffffffffffffffffffff166108fc6005549081150290604051600060405180830381858888f19350505050158015611ce5573d6000803e3d6000fd5b5060066000848152602001908152602001600020600201546006600085815260200190815260200160002060010160009054906101000a900473ffffffffffffffffffffffffffffffffffffffff1673ffffffffffffffffffffffffffffffffffffffff1660066000868152602001908152602001600020600001547fa3995d82a47846edcc310e87a16f5a2cd75d32a7cf59cbd513e132bced64ee8f6006600088815260200190815260200160002060030160009054906101000a900473ffffffffffffffffffffffffffffffffffffffff166006600089815260200190815260200160002060040160009054906101000a900473ffffffffffffffffffffffffffffffffffffffff1633600660008b815260200190815260200160002060060154604051611e189493929190612b95565b60405180910390a4505060016000819055505050565b813373ffffffffffffffffffffffffffffffffffffffff166006600083815260200190815260200160002060050160009054906101000a900473ffffffffffffffffffffffffffffffffffffffff1673ffffffffffffffffffffffffffffffffffffffff1614611ed3576040517f08c379a0000000000000000000000000000000000000000000000000000000008152600401611eca906128bd565b60405180910390fd5b60006006600085815260200190815260200160002090506000339050838260050160006101000a81548173ffffffffffffffffffffffffffffffffffffffff021916908373ffffffffffffffffffffffffffffffffffffffff1602179055508573ffffffffffffffffffffffffffffffffffffffff166323b872dd3386886040518463ffffffff1660e01b8152600401611f6f9392919061296f565b600060405180830381600087803b158015611f8957600080fd5b505af1158015611f9d573d6000803e3d6000fd5b50505050847f1ecac915e978ab1481e6542f13988998adf5e26c0c1c9171cac0af24223950cf8286604051611fd3929190612bda565b60405180910390a2505050505050565b600081600001549050919050565b6001816000016000828254019250508190555050565b60008160000154905060008111612053576040517f08c379a000000000000000000000000000000000000000000000000000000000815260040161204a90612c4f565b60405180910390fd5b6001810382600001819055505050565b60405180610100016040528060008152602001600073ffffffffffffffffffffffffffffffffffffffff16815260200160008152602001600073ffffffffffffffffffffffffffffffffffffffff168152602001600073ffffffffffffffffffffffffffffffffffffffff168152602001600073ffffffffffffffffffffffffffffffffffffffff168152602001600081526020016000151581525090565b600081519050919050565b600082825260208201905092915050565b6000819050602082019050919050565b6000819050919050565b6121418161212e565b82525050565b600073ffffffffffffffffffffffffffffffffffffffff82169050919050565b600061217282612147565b9050919050565b61218281612167565b82525050565b600061219382612147565b9050919050565b6121a381612188565b82525050565b60008115159050919050565b6121be816121a9565b82525050565b610100820160008201516121db6000850182612138565b5060208201516121ee6020850182612179565b5060408201516122016040850182612138565b506060820151612214606085018261219a565b506080820151612227608085018261219a565b5060a082015161223a60a085018261219a565b5060c082015161224d60c0850182612138565b5060e082015161226060e08501826121b5565b50505050565b600061227283836121c4565b6101008301905092915050565b6000602082019050919050565b600061229782612102565b6122a1818561210d565b93506122ac8361211e565b8060005b838110156122dd5781516122c48882612266565b97506122cf8361227f565b9250506001810190506122b0565b5085935050505092915050565b60006020820190508181036000830152612304818461228c565b905092915050565b6123158161212e565b82525050565b6000602082019050612330600083018461230c565b92915050565b600080fd5b61234481612167565b811461234f57600080fd5b50565b6000813590506123618161233b565b92915050565b6123708161212e565b811461237b57600080fd5b50565b60008135905061238d81612367565b92915050565b6000806000606084860312156123ac576123ab612336565b5b60006123ba86828701612352565b93505060206123cb8682870161237e565b92505060406123dc8682870161237e565b9150509250925092565b6000602082840312156123fc576123fb612336565b5b600061240a84828501612352565b91505092915050565b60006020828403121561242957612428612336565b5b60006124378482850161237e565b91505092915050565b610100820160008201516124576000850182612138565b50602082015161246a6020850182612179565b50604082015161247d6040850182612138565b506060820151612490606085018261219a565b5060808201516124a3608085018261219a565b5060a08201516124b660a085018261219a565b5060c08201516124c960c0850182612138565b5060e08201516124dc60e08501826121b5565b50505050565b6000610100820190506124f86000830184612440565b92915050565b6000806040838503121561251557612514612336565b5b60006125238582860161237e565b92505060206125348582860161237e565b9150509250929050565b6000806040838503121561255557612554612336565b5b600061256385828601612352565b92505060206125748582860161237e565b9150509250929050565b60008060006060848603121561259757612596612336565b5b60006125a586828701612352565b93505060206125b68682870161237e565b92505060406125c786828701612352565b9150509250925092565b7f4e487b7100000000000000000000000000000000000000000000000000000000600052601160045260246000fd5b600061260b8261212e565b91506126168361212e565b925082820390508181111561262e5761262d6125d1565b5b92915050565b7f4e487b7100000000000000000000000000000000000000000000000000000000600052604160045260246000fd5b600061266e8261212e565b91506126798361212e565b9250828201905080821115612691576126906125d1565b5b92915050565b7f4e487b7100000000000000000000000000000000000000000000000000000000600052603260045260246000fd5b60006126d18261212e565b91507fffffffffffffffffffffffffffffffffffffffffffffffffffffffffffffffff8203612703576127026125d1565b5b600182019050919050565b600082825260208201905092915050565b7f5265656e7472616e637947756172643a207265656e7472616e742063616c6c00600082015250565b6000612755601f8361270e565b91506127608261271f565b602082019050919050565b6000602082019050818103600083015261278481612748565b9050919050565b7f5072696365206d757374206265206174206c6561737420312077656900000000600082015250565b60006127c1601c8361270e565b91506127cc8261278b565b602082019050919050565b600060208201905081810360008301526127f0816127b4565b9050919050565b61280081612167565b82525050565b600060808201905061281b60008301876127f7565b61282860208301866127f7565b61283560408301856127f7565b612842606083018461230c565b95945050505050565b7f4f6e6c792070726f64756374206f776e65722063616e20646f2074686973206f60008201527f7065726174696f6e000000000000000000000000000000000000000000000000602082015250565b60006128a760288361270e565b91506128b28261284b565b604082019050919050565b600060208201905081810360008301526128d68161289a565b9050919050565b7f5072696365206d75737420626520657175616c20746f206c697374696e67207060008201527f7269636500000000000000000000000000000000000000000000000000000000602082015250565b600061293960248361270e565b9150612944826128dd565b604082019050919050565b600060208201905081810360008301526129688161292c565b9050919050565b600060608201905061298460008301866127f7565b61299160208301856127f7565b61299e604083018461230c565b949350505050565b7f4c697374696e6720666565207265717569726564000000000000000000000000600082015250565b60006129dc60148361270e565b91506129e7826129a6565b602082019050919050565b60006020820190508181036000830152612a0b816129cf565b9050919050565b7f4f6e6c79207468652070726f647563742063616e20646f2074686973206f706560008201527f726174696f6e0000000000000000000000000000000000000000000000000000602082015250565b6000612a6e60268361270e565b9150612a7982612a12565b604082019050919050565b60006020820190508181036000830152612a9d81612a61565b9050919050565b7f506c65617365207375626d6974207468652061736b696e67207072696365206960008201527f6e206f7264657220746f20636f6d706c65746520746865207075726368617365602082015250565b6000612b0060408361270e565b9150612b0b82612aa4565b604082019050919050565b60006020820190508181036000830152612b2f81612af3565b9050919050565b6000819050919050565b6000612b5b612b56612b5184612147565b612b36565b612147565b9050919050565b6000612b6d82612b40565b9050919050565b6000612b7f82612b62565b9050919050565b612b8f81612b74565b82525050565b6000608082019050612baa6000830187612b86565b612bb76020830186612b86565b612bc46040830185612b86565b612bd1606083018461230c565b95945050505050565b6000604082019050612bef60008301856127f7565b612bfc60208301846127f7565b9392505050565b7f436f756e7465723a2064656372656d656e74206f766572666c6f770000000000600082015250565b6000612c39601b8361270e565b9150612c4482612c03565b602082019050919050565b60006020820190508181036000830152612c6881612c2c565b905091905056fea2646970667358221220fac0df063c43a1d992f49ca6523f18695d318bc7c8a115adb95a10a25954033a64736f6c63430008110033",
  "immutableReferences": {},
  "source": "// SPDX-License-Identifier: MIT OR Apache-2.0\npragma solidity ^0.8.3;\n\nimport '@openzeppelin/contracts/utils/Counters.sol';\nimport '@openzeppelin/contracts/token/ERC721/extensions/ERC721URIStorage.sol';\nimport '@openzeppelin/contracts/token/ERC721/ERC721.sol';\nimport '@openzeppelin/contracts/security/ReentrancyGuard.sol';\n\nimport './NFT.sol';\n\ncontract Market is ReentrancyGuard {\n  using Counters for Counters.Counter;\n  Counters.Counter private _itemsIds;\n  Counters.Counter private _itemsSold;\n  Counters.Counter private _itemsDeleted;\n\n  // owner of the marketplace\n  address payable owner;\n  // price for putting something to sale in the Marketplace\n  uint256 listingPrice = 0.001 ether;\n\n  constructor() {\n    //set the owner of the contract to the one that deployed it\n    owner = payable(msg.sender);\n  }\n\n  /* Returns the listing price of the contract */\n  // function getListingPrice() public view returns (uint256) {\n  //   return listingPrice;\n  // }\n\n  struct MarketItem {\n    uint256 itemId;\n    address nftContract;\n    uint256 tokenId;\n    address payable creator;\n    address payable seller;\n    address payable owner;\n    uint256 price;\n    bool sold;\n  }\n\n  mapping(uint256 => MarketItem) private idToMarketItem;\n\n  event MarketItemCreated(\n    uint256 indexed itemId,\n    address indexed nftContract,\n    uint256 indexed tokenId,\n    address creator,\n    address seller,\n    address owner,\n    uint256 price\n  );\n\n  //mateus\n\n  event ProductPriceUpdated(\n    uint256 indexed itemId,\n    uint256 indexed oldPrice,\n    uint256 indexed newPrice\n  );\n\n  event ProductOwnerUpdated(\n    uint256 indexed itemId,\n    address oldOwner,\n    address newOwner\n  );\n\n  event MarketItemDeleted(uint256 itemId);\n\n  event ProductSold(\n    uint256 indexed itemId,\n    address indexed nftContract,\n    uint256 indexed tokenId,\n    address creator,\n    address seller,\n    address owner,\n    uint256 price\n  );\n\n  event ProductListed(uint256 indexed itemId);\n\n  modifier onlyProductOrMarketPlaceOwner(uint256 id) {\n    if (idToMarketItem[id].owner != address(0)) {\n      require(idToMarketItem[id].owner == msg.sender);\n    } else {\n      require(idToMarketItem[id].seller == msg.sender || msg.sender == owner);\n    }\n    _;\n  }\n\n  modifier onlyProductSeller(uint256 id) {\n    require(\n      idToMarketItem[id].owner == address(0) &&\n        idToMarketItem[id].seller == msg.sender,\n      'Only the product can do this operation'\n    );\n    _;\n  }\n\n  modifier onlyItemOwner(uint256 id) {\n    require(\n      idToMarketItem[id].owner == msg.sender,\n      'Only product owner can do this operation'\n    );\n    _;\n  }\n\n  function getListingPrice() public view returns (uint256) {\n    return listingPrice;\n  }\n\n  //mateus\n\n  function registMarketItem(\n    address nftContract,\n    uint256 tokenId,\n    uint256 price\n  ) public payable nonReentrant {\n    require(price > 0, 'Price must be at least 1 wei');\n    _itemsIds.increment();\n    uint256 itemId = _itemsIds.current();\n\n    idToMarketItem[itemId] = MarketItem(\n      itemId,\n      nftContract,\n      tokenId,\n      payable(address(0)),\n      payable(address(0)),\n      payable(msg.sender),\n      price,\n      true\n    );\n\n    emit MarketItemCreated(\n      itemId,\n      nftContract,\n      tokenId,\n      address(0),\n      address(0),\n      msg.sender,\n      price\n    );\n  }\n\n  function createMarketItem(\n    address nftContract,\n    uint256 itemId,\n    uint256 price\n  ) public payable nonReentrant {\n    uint256 tokenId = idToMarketItem[itemId].tokenId;\n    require(price > 0, 'Price must be at least 1 wei');\n    // obligates the seller to pay the listing price\n    require(msg.value == listingPrice, 'Listing fee required');\n\n    address payable oldOwner = idToMarketItem[itemId].owner;\n    idToMarketItem[itemId].owner = payable(address(0));\n    idToMarketItem[itemId].seller = oldOwner;\n    idToMarketItem[itemId].price = price;\n    idToMarketItem[itemId].sold = false;\n\n    IERC721(nftContract).transferFrom(msg.sender, address(this), tokenId);\n\n    emit ProductListed(itemId);\n  }\n\n  function updateMarketItemPrice(uint256 id, uint256 newPrice)\n    public\n    payable\n    onlyProductSeller(id)\n  {\n    MarketItem storage item = idToMarketItem[id];\n    uint256 oldPrice = item.price;\n    item.price = newPrice;\n\n    emit ProductPriceUpdated(id, oldPrice, newPrice);\n  }\n\n  function updateMarketItemOwner(\n    address nftContract,\n    uint256 id,\n    address newOwner\n  ) public payable onlyItemOwner(id) {\n    MarketItem storage item = idToMarketItem[id];\n    address oldOwner = payable(msg.sender);\n    item.owner = payable(newOwner);\n\n    IERC721(nftContract).transferFrom(msg.sender, newOwner, id);\n\n    emit ProductOwnerUpdated(id, oldOwner, newOwner);\n  }\n\n  // mateus\n\n  function createMarketSale(address nftContract, uint256 itemId)\n    public\n    payable\n    nonReentrant\n  {\n    uint256 price = idToMarketItem[itemId].price;\n    uint256 tokenId = idToMarketItem[itemId].tokenId;\n    require(\n      msg.value == price,\n      'Please submit the asking price in order to complete the purchase'\n    );\n\n    idToMarketItem[itemId].seller.transfer(msg.value);\n    IERC721(nftContract).transferFrom(address(this), msg.sender, tokenId);\n    idToMarketItem[itemId].owner = payable(msg.sender);\n    idToMarketItem[itemId].sold = true;\n    _itemsSold.increment();\n\n    //regards the marketplace with the listingPrice\n    payable(owner).transfer(listingPrice);\n\n    emit ProductSold(\n      idToMarketItem[itemId].itemId,\n      idToMarketItem[itemId].nftContract,\n      idToMarketItem[itemId].tokenId,\n      idToMarketItem[itemId].creator,\n      idToMarketItem[itemId].seller,\n      payable(msg.sender),\n      idToMarketItem[itemId].price\n    );\n  }\n\n  function putItemToResell(\n    address nftContract,\n    uint256 itemId,\n    uint256 newPrice\n  ) public payable nonReentrant onlyItemOwner(itemId) {\n    uint256 tokenId = idToMarketItem[itemId].tokenId;\n    require(newPrice > 0, 'Price must be at least 1 wei');\n    require(msg.value == listingPrice, 'Price must be equal to listing price');\n\n    NFT tokenContract = NFT(nftContract);\n\n    tokenContract.transferToken(msg.sender, address(this), tokenId);\n\n    address payable oldOwner = idToMarketItem[itemId].owner;\n    idToMarketItem[itemId].owner = payable(address(0));\n    idToMarketItem[itemId].seller = oldOwner;\n    idToMarketItem[itemId].price = newPrice;\n    idToMarketItem[itemId].sold = false;\n    _itemsSold.decrement();\n\n    emit ProductListed(itemId);\n  }\n\n  function fetchMarketItems() public view returns (MarketItem[] memory) {\n    uint256 itemCount = _itemsIds.current();\n    uint256 unsoldItemCount = _itemsIds.current() -\n      _itemsSold.current() -\n      _itemsDeleted.current();\n    uint256 currentIndex = 0;\n\n    MarketItem[] memory items = new MarketItem[](unsoldItemCount);\n    for (uint256 i = 0; i < itemCount; i++) {\n      if (\n        idToMarketItem[i + 1].owner == address(0) &&\n        idToMarketItem[i + 1].sold == false &&\n        idToMarketItem[i + 1].tokenId != 0\n      ) {\n        uint256 currentId = i + 1;\n        MarketItem storage currentItem = idToMarketItem[currentId];\n        items[currentIndex] = currentItem;\n        currentIndex += 1;\n      }\n    }\n    return items;\n  }\n\n  function fetchSingleItem(uint256 id) public view returns (MarketItem memory) {\n    return idToMarketItem[id];\n  }\n\n  function fetchMyNFTs() public view returns (MarketItem[] memory) {\n    uint256 totalItemCount = _itemsIds.current();\n    uint256 itemCount = 0;\n    uint256 currentIndex = 0;\n\n    for (uint256 i = 0; i < totalItemCount; i++) {\n      if (idToMarketItem[i + 1].owner == msg.sender) {\n        itemCount += 1;\n      }\n    }\n\n    MarketItem[] memory items = new MarketItem[](itemCount);\n    for (uint256 i = 0; i < totalItemCount; i++) {\n      if (idToMarketItem[i + 1].owner == msg.sender) {\n        uint256 currentId = i + 1;\n        MarketItem storage currentItem = idToMarketItem[currentId];\n        items[currentIndex] = currentItem;\n        currentIndex += 1;\n      }\n    }\n    return items;\n  }\n\n  function fetchAuthorsCreations(address author)\n    public\n    view\n    returns (MarketItem[] memory)\n  {\n    uint256 totalItemCount = _itemsIds.current();\n    uint256 itemCount = 0;\n    uint256 currentIndex = 0;\n\n    for (uint256 i = 0; i < totalItemCount; i++) {\n      if (\n        idToMarketItem[i + 1].creator == author && !idToMarketItem[i + 1].sold\n      ) {\n        itemCount += 1;\n      }\n    }\n\n    MarketItem[] memory items = new MarketItem[](itemCount);\n    for (uint256 i = 0; i < totalItemCount; i++) {\n      if (\n        idToMarketItem[i + 1].creator == author && !idToMarketItem[i + 1].sold\n      ) {\n        uint256 currentId = i + 1;\n        MarketItem storage currentItem = idToMarketItem[currentId];\n        items[currentIndex] = currentItem;\n        currentIndex += 1;\n      }\n    }\n    return items;\n  }\n}\n",
  "sourcePath": "/Users/yjs/Documents/GitHub/planetrunners/backend/contracts/Market.sol",
  "compiler": {
    "name": "solc",
    "version": "0.8.17+commit.8df45f5f.Emscripten.clang"
  },
  "schemaVersion": "3.4.9",
  "updatedAt": "2022-10-12T04:30:32.206Z",
  "networkType": "ethereum",
  "devdoc": {
    "kind": "dev",
    "methods": {},
    "version": 1
  },
  "userdoc": {
    "kind": "user",
    "methods": {},
    "version": 1
  }
}