{
  "contractName": "Marketplace",
  "abi": [
    {
      "inputs": [],
      "stateMutability": "nonpayable",
      "type": "constructor"
    },
    {
      "anonymous": false,
      "inputs": [
        {
          "indexed": true,
          "internalType": "address",
          "name": "owner",
          "type": "address"
        },
        {
          "indexed": true,
          "internalType": "address",
          "name": "approved",
          "type": "address"
        },
        {
          "indexed": true,
          "internalType": "uint256",
          "name": "tokenId",
          "type": "uint256"
        }
      ],
      "name": "Approval",
      "type": "event"
    },
    {
      "anonymous": false,
      "inputs": [
        {
          "indexed": true,
          "internalType": "address",
          "name": "owner",
          "type": "address"
        },
        {
          "indexed": true,
          "internalType": "address",
          "name": "operator",
          "type": "address"
        },
        {
          "indexed": false,
          "internalType": "bool",
          "name": "approved",
          "type": "bool"
        }
      ],
      "name": "ApprovalForAll",
      "type": "event"
    },
    {
      "anonymous": false,
      "inputs": [
        {
          "indexed": false,
          "internalType": "address",
          "name": "nftContract",
          "type": "address"
        },
        {
          "indexed": false,
          "internalType": "uint256",
          "name": "tokenId",
          "type": "uint256"
        },
        {
          "indexed": false,
          "internalType": "address",
          "name": "seller",
          "type": "address"
        },
        {
          "indexed": false,
          "internalType": "address",
          "name": "owner",
          "type": "address"
        },
        {
          "indexed": false,
          "internalType": "uint256",
          "name": "price",
          "type": "uint256"
        }
      ],
      "name": "NFTListed",
      "type": "event"
    },
    {
      "anonymous": false,
      "inputs": [
        {
          "indexed": false,
          "internalType": "address",
          "name": "nftContract",
          "type": "address"
        },
        {
          "indexed": false,
          "internalType": "uint256",
          "name": "tokenId",
          "type": "uint256"
        },
        {
          "indexed": false,
          "internalType": "address",
          "name": "seller",
          "type": "address"
        },
        {
          "indexed": false,
          "internalType": "address",
          "name": "owner",
          "type": "address"
        },
        {
          "indexed": false,
          "internalType": "uint256",
          "name": "price",
          "type": "uint256"
        }
      ],
      "name": "NFTSold",
      "type": "event"
    },
    {
      "anonymous": false,
      "inputs": [
        {
          "indexed": true,
          "internalType": "address",
          "name": "from",
          "type": "address"
        },
        {
          "indexed": true,
          "internalType": "address",
          "name": "to",
          "type": "address"
        },
        {
          "indexed": true,
          "internalType": "uint256",
          "name": "tokenId",
          "type": "uint256"
        }
      ],
      "name": "Transfer",
      "type": "event"
    },
    {
      "inputs": [],
      "name": "LISTING_FEE",
      "outputs": [
        {
          "internalType": "uint256",
          "name": "",
          "type": "uint256"
        }
      ],
      "stateMutability": "view",
      "type": "function"
    },
    {
      "inputs": [
        {
          "internalType": "address",
          "name": "to",
          "type": "address"
        },
        {
          "internalType": "uint256",
          "name": "tokenId",
          "type": "uint256"
        }
      ],
      "name": "approve",
      "outputs": [],
      "stateMutability": "nonpayable",
      "type": "function"
    },
    {
      "inputs": [
        {
          "internalType": "address",
          "name": "owner",
          "type": "address"
        }
      ],
      "name": "balanceOf",
      "outputs": [
        {
          "internalType": "uint256",
          "name": "",
          "type": "uint256"
        }
      ],
      "stateMutability": "view",
      "type": "function"
    },
    {
      "inputs": [
        {
          "internalType": "uint256",
          "name": "tokenId",
          "type": "uint256"
        }
      ],
      "name": "getApproved",
      "outputs": [
        {
          "internalType": "address",
          "name": "",
          "type": "address"
        }
      ],
      "stateMutability": "view",
      "type": "function"
    },
    {
      "inputs": [
        {
          "internalType": "address",
          "name": "owner",
          "type": "address"
        },
        {
          "internalType": "address",
          "name": "operator",
          "type": "address"
        }
      ],
      "name": "isApprovedForAll",
      "outputs": [
        {
          "internalType": "bool",
          "name": "",
          "type": "bool"
        }
      ],
      "stateMutability": "view",
      "type": "function"
    },
    {
      "inputs": [],
      "name": "name",
      "outputs": [
        {
          "internalType": "string",
          "name": "",
          "type": "string"
        }
      ],
      "stateMutability": "view",
      "type": "function"
    },
    {
      "inputs": [
        {
          "internalType": "uint256",
          "name": "tokenId",
          "type": "uint256"
        }
      ],
      "name": "ownerOf",
      "outputs": [
        {
          "internalType": "address",
          "name": "",
          "type": "address"
        }
      ],
      "stateMutability": "view",
      "type": "function"
    },
    {
      "inputs": [
        {
          "internalType": "address",
          "name": "from",
          "type": "address"
        },
        {
          "internalType": "address",
          "name": "to",
          "type": "address"
        },
        {
          "internalType": "uint256",
          "name": "tokenId",
          "type": "uint256"
        }
      ],
      "name": "safeTransferFrom",
      "outputs": [],
      "stateMutability": "nonpayable",
      "type": "function"
    },
    {
      "inputs": [
        {
          "internalType": "address",
          "name": "from",
          "type": "address"
        },
        {
          "internalType": "address",
          "name": "to",
          "type": "address"
        },
        {
          "internalType": "uint256",
          "name": "tokenId",
          "type": "uint256"
        },
        {
          "internalType": "bytes",
          "name": "data",
          "type": "bytes"
        }
      ],
      "name": "safeTransferFrom",
      "outputs": [],
      "stateMutability": "nonpayable",
      "type": "function"
    },
    {
      "inputs": [
        {
          "internalType": "address",
          "name": "operator",
          "type": "address"
        },
        {
          "internalType": "bool",
          "name": "approved",
          "type": "bool"
        }
      ],
      "name": "setApprovalForAll",
      "outputs": [],
      "stateMutability": "nonpayable",
      "type": "function"
    },
    {
      "inputs": [
        {
          "internalType": "bytes4",
          "name": "interfaceId",
          "type": "bytes4"
        }
      ],
      "name": "supportsInterface",
      "outputs": [
        {
          "internalType": "bool",
          "name": "",
          "type": "bool"
        }
      ],
      "stateMutability": "view",
      "type": "function"
    },
    {
      "inputs": [],
      "name": "symbol",
      "outputs": [
        {
          "internalType": "string",
          "name": "",
          "type": "string"
        }
      ],
      "stateMutability": "view",
      "type": "function"
    },
    {
      "inputs": [
        {
          "internalType": "uint256",
          "name": "tokenId",
          "type": "uint256"
        }
      ],
      "name": "tokenURI",
      "outputs": [
        {
          "internalType": "string",
          "name": "",
          "type": "string"
        }
      ],
      "stateMutability": "view",
      "type": "function"
    },
    {
      "inputs": [
        {
          "internalType": "address",
          "name": "from",
          "type": "address"
        },
        {
          "internalType": "address",
          "name": "to",
          "type": "address"
        },
        {
          "internalType": "uint256",
          "name": "tokenId",
          "type": "uint256"
        }
      ],
      "name": "transferFrom",
      "outputs": [],
      "stateMutability": "nonpayable",
      "type": "function"
    },
    {
      "inputs": [
        {
          "internalType": "address",
          "name": "from",
          "type": "address"
        },
        {
          "internalType": "address",
          "name": "to",
          "type": "address"
        },
        {
          "internalType": "uint256",
          "name": "tokenId",
          "type": "uint256"
        }
      ],
      "name": "transferToken",
      "outputs": [],
      "stateMutability": "nonpayable",
      "type": "function"
    },
    {
      "inputs": [
        {
          "internalType": "address",
          "name": "_nftContract",
          "type": "address"
        },
        {
          "internalType": "uint256",
          "name": "_tokenId",
          "type": "uint256"
        },
        {
          "internalType": "uint256",
          "name": "_price",
          "type": "uint256"
        }
      ],
      "name": "listNft",
      "outputs": [],
      "stateMutability": "payable",
      "type": "function"
    },
    {
      "inputs": [
        {
          "internalType": "address",
          "name": "_nftContract",
          "type": "address"
        },
        {
          "internalType": "uint256",
          "name": "_tokenId",
          "type": "uint256"
        }
      ],
      "name": "buyNft",
      "outputs": [],
      "stateMutability": "payable",
      "type": "function"
    },
    {
      "inputs": [
        {
          "internalType": "address",
          "name": "_nftContract",
          "type": "address"
        },
        {
          "internalType": "uint256",
          "name": "_tokenId",
          "type": "uint256"
        },
        {
          "internalType": "uint256",
          "name": "_price",
          "type": "uint256"
        }
      ],
      "name": "resellNft",
      "outputs": [],
      "stateMutability": "payable",
      "type": "function"
    },
    {
      "inputs": [],
      "name": "getListingFee",
      "outputs": [
        {
          "internalType": "uint256",
          "name": "",
          "type": "uint256"
        }
      ],
      "stateMutability": "view",
      "type": "function"
    },
    {
      "inputs": [],
      "name": "getListedNfts",
      "outputs": [
        {
          "components": [
            {
              "internalType": "address",
              "name": "nftContract",
              "type": "address"
            },
            {
              "internalType": "uint256",
              "name": "tokenId",
              "type": "uint256"
            },
            {
              "internalType": "address payable",
              "name": "seller",
              "type": "address"
            },
            {
              "internalType": "address payable",
              "name": "owner",
              "type": "address"
            },
            {
              "internalType": "uint256",
              "name": "price",
              "type": "uint256"
            },
            {
              "internalType": "bool",
              "name": "listed",
              "type": "bool"
            }
          ],
          "internalType": "struct Marketplace.NFT[]",
          "name": "",
          "type": "tuple[]"
        }
      ],
      "stateMutability": "view",
      "type": "function"
    },
    {
      "inputs": [],
      "name": "getMyNfts",
      "outputs": [
        {
          "components": [
            {
              "internalType": "address",
              "name": "nftContract",
              "type": "address"
            },
            {
              "internalType": "uint256",
              "name": "tokenId",
              "type": "uint256"
            },
            {
              "internalType": "address payable",
              "name": "seller",
              "type": "address"
            },
            {
              "internalType": "address payable",
              "name": "owner",
              "type": "address"
            },
            {
              "internalType": "uint256",
              "name": "price",
              "type": "uint256"
            },
            {
              "internalType": "bool",
              "name": "listed",
              "type": "bool"
            }
          ],
          "internalType": "struct Marketplace.NFT[]",
          "name": "",
          "type": "tuple[]"
        }
      ],
      "stateMutability": "view",
      "type": "function"
    },
    {
      "inputs": [],
      "name": "getMyListedNfts",
      "outputs": [
        {
          "components": [
            {
              "internalType": "address",
              "name": "nftContract",
              "type": "address"
            },
            {
              "internalType": "uint256",
              "name": "tokenId",
              "type": "uint256"
            },
            {
              "internalType": "address payable",
              "name": "seller",
              "type": "address"
            },
            {
              "internalType": "address payable",
              "name": "owner",
              "type": "address"
            },
            {
              "internalType": "uint256",
              "name": "price",
              "type": "uint256"
            },
            {
              "internalType": "bool",
              "name": "listed",
              "type": "bool"
            }
          ],
          "internalType": "struct Marketplace.NFT[]",
          "name": "",
          "type": "tuple[]"
        }
      ],
      "stateMutability": "view",
      "type": "function"
    },
    {
      "inputs": [
        {
          "internalType": "uint256",
          "name": "_tokenId",
          "type": "uint256"
        }
      ],
      "name": "getNft",
      "outputs": [
        {
          "components": [
            {
              "internalType": "address",
              "name": "nftContract",
              "type": "address"
            },
            {
              "internalType": "uint256",
              "name": "tokenId",
              "type": "uint256"
            },
            {
              "internalType": "address payable",
              "name": "seller",
              "type": "address"
            },
            {
              "internalType": "address payable",
              "name": "owner",
              "type": "address"
            },
            {
              "internalType": "uint256",
              "name": "price",
              "type": "uint256"
            },
            {
              "internalType": "bool",
              "name": "listed",
              "type": "bool"
            }
          ],
          "internalType": "struct Marketplace.NFT",
          "name": "",
          "type": "tuple"
        }
      ],
      "stateMutability": "view",
      "type": "function"
    }
  ],
  "bytecode": "0x6080604052655af3107a4000600a553480156200001b57600080fd5b506040518060400160405280600c81526020017f4d61726b657420506c61636500000000000000000000000000000000000000008152506040518060400160405280600281526020017f4d5000000000000000000000000000000000000000000000000000000000000081525060016000819055508160019081620000a1919062000377565b508060029081620000b3919062000377565b50505033600b60006101000a81548173ffffffffffffffffffffffffffffffffffffffff021916908373ffffffffffffffffffffffffffffffffffffffff1602179055506200045e565b600081519050919050565b7f4e487b7100000000000000000000000000000000000000000000000000000000600052604160045260246000fd5b7f4e487b7100000000000000000000000000000000000000000000000000000000600052602260045260246000fd5b600060028204905060018216806200017f57607f821691505b60208210810362000195576200019462000137565b5b50919050565b60008190508160005260206000209050919050565b60006020601f8301049050919050565b600082821b905092915050565b600060088302620001ff7fffffffffffffffffffffffffffffffffffffffffffffffffffffffffffffffff82620001c0565b6200020b8683620001c0565b95508019841693508086168417925050509392505050565b6000819050919050565b6000819050919050565b600062000258620002526200024c8462000223565b6200022d565b62000223565b9050919050565b6000819050919050565b620002748362000237565b6200028c62000283826200025f565b848454620001cd565b825550505050565b600090565b620002a362000294565b620002b081848462000269565b505050565b5b81811015620002d857620002cc60008262000299565b600181019050620002b6565b5050565b601f8211156200032757620002f1816200019b565b620002fc84620001b0565b810160208510156200030c578190505b620003246200031b85620001b0565b830182620002b5565b50505b505050565b600082821c905092915050565b60006200034c600019846008026200032c565b1980831691505092915050565b600062000367838362000339565b9150826002028217905092915050565b6200038282620000fd565b67ffffffffffffffff8111156200039e576200039d62000108565b5b620003aa825462000166565b620003b7828285620002dc565b600060209050601f831160018114620003ef5760008415620003da578287015190505b620003e6858262000359565b86555062000456565b601f198416620003ff866200019b565b60005b82811015620004295784890151825560018201915060208501945060208101905062000402565b8683101562000449578489015162000445601f89168262000339565b8355505b6001600288020188555050505b505050505050565b6142b5806200046e6000396000f3fe6080604052600436106101405760003560e01c80634ddf4f8f116100b6578063b88d4fde1161006f578063b88d4fde14610454578063b8fe6abe1461047d578063c87b56dd146104a8578063c922b17c146104e5578063e985e9c514610501578063f5537ede1461053e57610140565b80634ddf4f8f1461033f5780636352211e1461035b57806370a08231146103985780638d6cb3fb146103d557806395d89b4114610400578063a22cb4651461042b57610140565b80631f4cc4db116101085780631f4cc4db1461023e57806323b872dd146102695780632b86ae381461029257806334f5b624146102bd57806341f63bfd146102d957806342842e0e1461031657610140565b806301ffc9a714610145578063047b07bf1461018257806306fdde03146101ad578063081812fc146101d8578063095ea7b314610215575b600080fd5b34801561015157600080fd5b5061016c60048036038101906101679190612d51565b610567565b6040516101799190612d99565b60405180910390f35b34801561018e57600080fd5b50610197610649565b6040516101a49190612f68565b60405180910390f35b3480156101b957600080fd5b506101c261097c565b6040516101cf919061301a565b60405180910390f35b3480156101e457600080fd5b506101ff60048036038101906101fa9190613068565b610a0e565b60405161020c91906130a4565b60405180910390f35b34801561022157600080fd5b5061023c600480360381019061023791906130eb565b610a54565b005b34801561024a57600080fd5b50610253610b6b565b6040516102609190612f68565b60405180910390f35b34801561027557600080fd5b50610290600480360381019061028b919061312b565b610f10565b005b34801561029e57600080fd5b506102a7610f70565b6040516102b4919061318d565b60405180910390f35b6102d760048036038101906102d291906131a8565b610f76565b005b3480156102e557600080fd5b5061030060048036038101906102fb9190613068565b611323565b60405161030d9190613276565b60405180910390f35b34801561032257600080fd5b5061033d6004803603810190610338919061312b565b611481565b005b610359600480360381019061035491906130eb565b6114a1565b005b34801561036757600080fd5b50610382600480360381019061037d9190613068565b611779565b60405161038f91906130a4565b60405180910390f35b3480156103a457600080fd5b506103bf60048036038101906103ba9190613291565b61182a565b6040516103cc919061318d565b60405180910390f35b3480156103e157600080fd5b506103ea6118e1565b6040516103f79190612f68565b60405180910390f35b34801561040c57600080fd5b50610415611b49565b604051610422919061301a565b60405180910390f35b34801561043757600080fd5b50610452600480360381019061044d91906132ea565b611bdb565b005b34801561046057600080fd5b5061047b6004803603810190610476919061345f565b611bf1565b005b34801561048957600080fd5b50610492611c53565b60405161049f919061318d565b60405180910390f35b3480156104b457600080fd5b506104cf60048036038101906104ca9190613068565b611c5d565b6040516104dc919061301a565b60405180910390f35b6104ff60048036038101906104fa91906131a8565b611d6f565b005b34801561050d57600080fd5b50610528600480360381019061052391906134e2565b612099565b6040516105359190612d99565b60405180910390f35b34801561054a57600080fd5b506105656004803603810190610560919061312b565b61212d565b005b60007f80ac58cd000000000000000000000000000000000000000000000000000000007bffffffffffffffffffffffffffffffffffffffffffffffffffffffff1916827bffffffffffffffffffffffffffffffffffffffffffffffffffffffff1916148061063257507f5b5e139f000000000000000000000000000000000000000000000000000000007bffffffffffffffffffffffffffffffffffffffffffffffffffffffff1916827bffffffffffffffffffffffffffffffffffffffffffffffffffffffff1916145b806106425750610641826121b3565b5b9050919050565b60606000610657600961221d565b90506000805b828110156106fc573373ffffffffffffffffffffffffffffffffffffffff16600c600060018461068d9190613551565b815260200190815260200160002060030160009054906101000a900473ffffffffffffffffffffffffffffffffffffffff1673ffffffffffffffffffffffffffffffffffffffff16036106e95781806106e590613585565b9250505b80806106f490613585565b91505061065d565b5060008167ffffffffffffffff81111561071957610718613334565b5b60405190808252806020026020018201604052801561075257816020015b61073f612c6b565b8152602001906001900390816107375790505b5090506000805b84811015610971573373ffffffffffffffffffffffffffffffffffffffff16600c60006001846107899190613551565b815260200190815260200160002060030160009054906101000a900473ffffffffffffffffffffffffffffffffffffffff1673ffffffffffffffffffffffffffffffffffffffff160361095e57600c60006001836107e79190613551565b81526020019081526020016000206040518060c00160405290816000820160009054906101000a900473ffffffffffffffffffffffffffffffffffffffff1673ffffffffffffffffffffffffffffffffffffffff1673ffffffffffffffffffffffffffffffffffffffff168152602001600182015481526020016002820160009054906101000a900473ffffffffffffffffffffffffffffffffffffffff1673ffffffffffffffffffffffffffffffffffffffff1673ffffffffffffffffffffffffffffffffffffffff1681526020016003820160009054906101000a900473ffffffffffffffffffffffffffffffffffffffff1673ffffffffffffffffffffffffffffffffffffffff1673ffffffffffffffffffffffffffffffffffffffff168152602001600482015481526020016005820160009054906101000a900460ff161515151581525050838381518110610944576109436135cd565b5b6020026020010181905250818061095a90613585565b9250505b808061096990613585565b915050610759565b508194505050505090565b60606001805461098b9061362b565b80601f01602080910402602001604051908101604052809291908181526020018280546109b79061362b565b8015610a045780601f106109d957610100808354040283529160200191610a04565b820191906000526020600020905b8154815290600101906020018083116109e757829003601f168201915b5050505050905090565b6000610a198261222b565b6005600083815260200190815260200160002060009054906101000a900473ffffffffffffffffffffffffffffffffffffffff169050919050565b6000610a5f82611779565b90508073ffffffffffffffffffffffffffffffffffffffff168373ffffffffffffffffffffffffffffffffffffffff1603610acf576040517f08c379a0000000000000000000000000000000000000000000000000000000008152600401610ac6906136ce565b60405180910390fd5b8073ffffffffffffffffffffffffffffffffffffffff16610aee612276565b73ffffffffffffffffffffffffffffffffffffffff161480610b1d5750610b1c81610b17612276565b612099565b5b610b5c576040517f08c379a0000000000000000000000000000000000000000000000000000000008152600401610b5390613760565b60405180910390fd5b610b66838361227e565b505050565b60606000610b79600961221d565b90506000805b82811015610c57573373ffffffffffffffffffffffffffffffffffffffff16600c6000600184610baf9190613551565b815260200190815260200160002060020160009054906101000a900473ffffffffffffffffffffffffffffffffffffffff1673ffffffffffffffffffffffffffffffffffffffff16148015610c305750600c6000600183610c109190613551565b815260200190815260200160002060050160009054906101000a900460ff165b15610c44578180610c4090613585565b9250505b8080610c4f90613585565b915050610b7f565b5060008167ffffffffffffffff811115610c7457610c73613334565b5b604051908082528060200260200182016040528015610cad57816020015b610c9a612c6b565b815260200190600190039081610c925790505b5090506000805b84811015610f05573373ffffffffffffffffffffffffffffffffffffffff16600c6000600184610ce49190613551565b815260200190815260200160002060020160009054906101000a900473ffffffffffffffffffffffffffffffffffffffff1673ffffffffffffffffffffffffffffffffffffffff16148015610d655750600c6000600183610d459190613551565b815260200190815260200160002060050160009054906101000a900460ff165b15610ef257600c6000600183610d7b9190613551565b81526020019081526020016000206040518060c00160405290816000820160009054906101000a900473ffffffffffffffffffffffffffffffffffffffff1673ffffffffffffffffffffffffffffffffffffffff1673ffffffffffffffffffffffffffffffffffffffff168152602001600182015481526020016002820160009054906101000a900473ffffffffffffffffffffffffffffffffffffffff1673ffffffffffffffffffffffffffffffffffffffff1673ffffffffffffffffffffffffffffffffffffffff1681526020016003820160009054906101000a900473ffffffffffffffffffffffffffffffffffffffff1673ffffffffffffffffffffffffffffffffffffffff1673ffffffffffffffffffffffffffffffffffffffff168152602001600482015481526020016005820160009054906101000a900460ff161515151581525050838381518110610ed857610ed76135cd565b5b60200260200101819052508180610eee90613585565b9250505b8080610efd90613585565b915050610cb4565b508194505050505090565b610f21610f1b612276565b82612337565b610f60576040517f08c379a0000000000000000000000000000000000000000000000000000000008152600401610f57906137f2565b60405180910390fd5b610f6b8383836123cc565b505050565b600a5481565b600260005403610fbb576040517f08c379a0000000000000000000000000000000000000000000000000000000008152600401610fb29061385e565b60405180910390fd5b6002600081905550813373ffffffffffffffffffffffffffffffffffffffff16600c600083815260200190815260200160002060030160009054906101000a900473ffffffffffffffffffffffffffffffffffffffff1673ffffffffffffffffffffffffffffffffffffffff1614611068576040517f08c379a000000000000000000000000000000000000000000000000000000000815260040161105f906138f0565b60405180910390fd5b3373ffffffffffffffffffffffffffffffffffffffff16600c600085815260200190815260200160002060030160009054906101000a900473ffffffffffffffffffffffffffffffffffffffff1673ffffffffffffffffffffffffffffffffffffffff161461110c576040517f08c379a000000000000000000000000000000000000000000000000000000000815260040161110390613982565b60405180910390fd5b6000821161114f576040517f08c379a0000000000000000000000000000000000000000000000000000000008152600401611146906139ee565b60405180910390fd5b600a543414611193576040517f08c379a000000000000000000000000000000000000000000000000000000000815260040161118a90613a5a565b60405180910390fd5b60008490508073ffffffffffffffffffffffffffffffffffffffff1663f5537ede3330876040518463ffffffff1660e01b81526004016111d593929190613a7a565b600060405180830381600087803b1580156111ef57600080fd5b505af1158015611203573d6000803e3d6000fd5b505050506000600c60008681526020019081526020016000209050338160020160006101000a81548173ffffffffffffffffffffffffffffffffffffffff021916908373ffffffffffffffffffffffffffffffffffffffff160217905550308160030160006101000a81548173ffffffffffffffffffffffffffffffffffffffff021916908373ffffffffffffffffffffffffffffffffffffffff16021790555060018160050160006101000a81548160ff0219169083151502179055508381600401819055506112d46008612632565b7fa0c6c0d02d86fdacecbaa5fdf5894bab204e31a778250474108540733a9b8d19868633308860405161130b959493929190613ab1565b60405180910390a15050506001600081905550505050565b61132b612c6b565b600c60008381526020019081526020016000206040518060c00160405290816000820160009054906101000a900473ffffffffffffffffffffffffffffffffffffffff1673ffffffffffffffffffffffffffffffffffffffff1673ffffffffffffffffffffffffffffffffffffffff168152602001600182015481526020016002820160009054906101000a900473ffffffffffffffffffffffffffffffffffffffff1673ffffffffffffffffffffffffffffffffffffffff1673ffffffffffffffffffffffffffffffffffffffff1681526020016003820160009054906101000a900473ffffffffffffffffffffffffffffffffffffffff1673ffffffffffffffffffffffffffffffffffffffff1673ffffffffffffffffffffffffffffffffffffffff168152602001600482015481526020016005820160009054906101000a900460ff1615151515815250509050919050565b61149c83838360405180602001604052806000815250611bf1565b505050565b6002600054036114e6576040517f08c379a00000000000000000000000000000000000000000000000000000000081526004016114dd9061385e565b60405180910390fd5b60026000819055506000600c60008381526020019081526020016000209050806004015434101561154c576040517f08c379a000000000000000000000000000000000000000000000000000000000815260040161154390613b76565b60405180910390fd5b60003390508160020160009054906101000a900473ffffffffffffffffffffffffffffffffffffffff1673ffffffffffffffffffffffffffffffffffffffff166108fc349081150290604051600060405180830381858888f193505050501580156115bb573d6000803e3d6000fd5b508373ffffffffffffffffffffffffffffffffffffffff166323b872dd308385600101546040518463ffffffff1660e01b81526004016115fd93929190613bf5565b600060405180830381600087803b15801561161757600080fd5b505af115801561162b573d6000803e3d6000fd5b50505050600b60009054906101000a900473ffffffffffffffffffffffffffffffffffffffff1673ffffffffffffffffffffffffffffffffffffffff166108fc600a549081150290604051600060405180830381858888f19350505050158015611699573d6000803e3d6000fd5b50808260030160006101000a81548173ffffffffffffffffffffffffffffffffffffffff021916908373ffffffffffffffffffffffffffffffffffffffff16021790555060008260050160006101000a81548160ff021916908315150217905550611704600861268e565b7f16f1dbd97e6bf646d429ed186cce832f1f7fd9907814293b83181e9970ab7bd28483600101548460020160009054906101000a900473ffffffffffffffffffffffffffffffffffffffff168434604051611763959493929190613c2c565b60405180910390a1505060016000819055505050565b6000806003600084815260200190815260200160002060009054906101000a900473ffffffffffffffffffffffffffffffffffffffff169050600073ffffffffffffffffffffffffffffffffffffffff168173ffffffffffffffffffffffffffffffffffffffff1603611821576040517f08c379a000000000000000000000000000000000000000000000000000000000815260040161181890613ccb565b60405180910390fd5b80915050919050565b60008073ffffffffffffffffffffffffffffffffffffffff168273ffffffffffffffffffffffffffffffffffffffff160361189a576040517f08c379a000000000000000000000000000000000000000000000000000000000815260040161189190613d5d565b60405180910390fd5b600460008373ffffffffffffffffffffffffffffffffffffffff1673ffffffffffffffffffffffffffffffffffffffff168152602001908152602001600020549050919050565b606060006118ef600961221d565b905060006118fd600861221d565b826119089190613d7d565b905060008167ffffffffffffffff81111561192657611925613334565b5b60405190808252806020026020018201604052801561195f57816020015b61194c612c6b565b8152602001906001900390816119445790505b5090506000805b84811015611b3e57600c600060018361197f9190613551565b815260200190815260200160002060050160009054906101000a900460ff1615611b2b57600c60006001836119b49190613551565b81526020019081526020016000206040518060c00160405290816000820160009054906101000a900473ffffffffffffffffffffffffffffffffffffffff1673ffffffffffffffffffffffffffffffffffffffff1673ffffffffffffffffffffffffffffffffffffffff168152602001600182015481526020016002820160009054906101000a900473ffffffffffffffffffffffffffffffffffffffff1673ffffffffffffffffffffffffffffffffffffffff1673ffffffffffffffffffffffffffffffffffffffff1681526020016003820160009054906101000a900473ffffffffffffffffffffffffffffffffffffffff1673ffffffffffffffffffffffffffffffffffffffff1673ffffffffffffffffffffffffffffffffffffffff168152602001600482015481526020016005820160009054906101000a900460ff161515151581525050838381518110611b1157611b106135cd565b5b60200260200101819052508180611b2790613585565b9250505b8080611b3690613585565b915050611966565b508194505050505090565b606060028054611b589061362b565b80601f0160208091040260200160405190810160405280929190818152602001828054611b849061362b565b8015611bd15780601f10611ba657610100808354040283529160200191611bd1565b820191906000526020600020905b815481529060010190602001808311611bb457829003601f168201915b5050505050905090565b611bed611be6612276565b83836126a4565b5050565b611c02611bfc612276565b83612337565b611c41576040517f08c379a0000000000000000000000000000000000000000000000000000000008152600401611c38906137f2565b60405180910390fd5b611c4d84848484612810565b50505050565b6000600a54905090565b6060611c688261222b565b6000600760008481526020019081526020016000208054611c889061362b565b80601f0160208091040260200160405190810160405280929190818152602001828054611cb49061362b565b8015611d015780601f10611cd657610100808354040283529160200191611d01565b820191906000526020600020905b815481529060010190602001808311611ce457829003601f168201915b505050505090506000611d1261286c565b90506000815103611d27578192505050611d6a565b600082511115611d5c578082604051602001611d44929190613ded565b60405160208183030381529060405292505050611d6a565b611d6584612883565b925050505b919050565b600260005403611db4576040517f08c379a0000000000000000000000000000000000000000000000000000000008152600401611dab9061385e565b60405180910390fd5b600260008190555060008111611dff576040517f08c379a0000000000000000000000000000000000000000000000000000000008152600401611df6906139ee565b60405180910390fd5b600a543414611e43576040517f08c379a0000000000000000000000000000000000000000000000000000000008152600401611e3a90613a5a565b60405180910390fd5b8273ffffffffffffffffffffffffffffffffffffffff166323b872dd3330856040518463ffffffff1660e01b8152600401611e8093929190613a7a565b600060405180830381600087803b158015611e9a57600080fd5b505af1158015611eae573d6000803e3d6000fd5b50505050611ebc600961268e565b6040518060c001604052808473ffffffffffffffffffffffffffffffffffffffff1681526020018381526020013373ffffffffffffffffffffffffffffffffffffffff1681526020013073ffffffffffffffffffffffffffffffffffffffff16815260200182815260200160011515815250600c600084815260200190815260200160002060008201518160000160006101000a81548173ffffffffffffffffffffffffffffffffffffffff021916908373ffffffffffffffffffffffffffffffffffffffff1602179055506020820151816001015560408201518160020160006101000a81548173ffffffffffffffffffffffffffffffffffffffff021916908373ffffffffffffffffffffffffffffffffffffffff16021790555060608201518160030160006101000a81548173ffffffffffffffffffffffffffffffffffffffff021916908373ffffffffffffffffffffffffffffffffffffffff1602179055506080820151816004015560a08201518160050160006101000a81548160ff0219169083151502179055509050507fa0c6c0d02d86fdacecbaa5fdf5894bab204e31a778250474108540733a9b8d198383333085604051612084959493929190613ab1565b60405180910390a16001600081905550505050565b6000600660008473ffffffffffffffffffffffffffffffffffffffff1673ffffffffffffffffffffffffffffffffffffffff16815260200190815260200160002060008373ffffffffffffffffffffffffffffffffffffffff1673ffffffffffffffffffffffffffffffffffffffff16815260200190815260200160002060009054906101000a900460ff16905092915050565b8273ffffffffffffffffffffffffffffffffffffffff1661214d82611779565b73ffffffffffffffffffffffffffffffffffffffff16146121a3576040517f08c379a000000000000000000000000000000000000000000000000000000000815260040161219a90613e5d565b60405180910390fd5b6121ae8383836123cc565b505050565b60007f01ffc9a7000000000000000000000000000000000000000000000000000000007bffffffffffffffffffffffffffffffffffffffffffffffffffffffff1916827bffffffffffffffffffffffffffffffffffffffffffffffffffffffff1916149050919050565b600081600001549050919050565b612234816128eb565b612273576040517f08c379a000000000000000000000000000000000000000000000000000000000815260040161226a90613ccb565b60405180910390fd5b50565b600033905090565b816005600083815260200190815260200160002060006101000a81548173ffffffffffffffffffffffffffffffffffffffff021916908373ffffffffffffffffffffffffffffffffffffffff160217905550808273ffffffffffffffffffffffffffffffffffffffff166122f183611779565b73ffffffffffffffffffffffffffffffffffffffff167f8c5be1e5ebec7d5bd14f71427d1e84f3dd0314c0f7b2291e5b200ac8c7c3b92560405160405180910390a45050565b60008061234383611779565b90508073ffffffffffffffffffffffffffffffffffffffff168473ffffffffffffffffffffffffffffffffffffffff16148061238557506123848185612099565b5b806123c357508373ffffffffffffffffffffffffffffffffffffffff166123ab84610a0e565b73ffffffffffffffffffffffffffffffffffffffff16145b91505092915050565b8273ffffffffffffffffffffffffffffffffffffffff166123ec82611779565b73ffffffffffffffffffffffffffffffffffffffff1614612442576040517f08c379a000000000000000000000000000000000000000000000000000000000815260040161243990613eef565b60405180910390fd5b600073ffffffffffffffffffffffffffffffffffffffff168273ffffffffffffffffffffffffffffffffffffffff16036124b1576040517f08c379a00000000000000000000000000000000000000000000000000000000081526004016124a890613f81565b60405180910390fd5b6124bc838383612957565b6124c760008261227e565b6001600460008573ffffffffffffffffffffffffffffffffffffffff1673ffffffffffffffffffffffffffffffffffffffff16815260200190815260200160002060008282546125179190613d7d565b925050819055506001600460008473ffffffffffffffffffffffffffffffffffffffff1673ffffffffffffffffffffffffffffffffffffffff168152602001908152602001600020600082825461256e9190613551565b92505081905550816003600083815260200190815260200160002060006101000a81548173ffffffffffffffffffffffffffffffffffffffff021916908373ffffffffffffffffffffffffffffffffffffffff160217905550808273ffffffffffffffffffffffffffffffffffffffff168473ffffffffffffffffffffffffffffffffffffffff167fddf252ad1be2c89b69c2b068fc378daa952ba7f163c4a11628f55a4df523b3ef60405160405180910390a461262d83838361295c565b505050565b6000816000015490506000811161267e576040517f08c379a000000000000000000000000000000000000000000000000000000000815260040161267590613fed565b60405180910390fd5b6001810382600001819055505050565b6001816000016000828254019250508190555050565b8173ffffffffffffffffffffffffffffffffffffffff168373ffffffffffffffffffffffffffffffffffffffff1603612712576040517f08c379a000000000000000000000000000000000000000000000000000000000815260040161270990614059565b60405180910390fd5b80600660008573ffffffffffffffffffffffffffffffffffffffff1673ffffffffffffffffffffffffffffffffffffffff16815260200190815260200160002060008473ffffffffffffffffffffffffffffffffffffffff1673ffffffffffffffffffffffffffffffffffffffff16815260200190815260200160002060006101000a81548160ff0219169083151502179055508173ffffffffffffffffffffffffffffffffffffffff168373ffffffffffffffffffffffffffffffffffffffff167f17307eab39ab6107e8899845ad3d59bd9653f200f220920489ca2b5937696c31836040516128039190612d99565b60405180910390a3505050565b61281b8484846123cc565b61282784848484612961565b612866576040517f08c379a000000000000000000000000000000000000000000000000000000000815260040161285d906140eb565b60405180910390fd5b50505050565b606060405180602001604052806000815250905090565b606061288e8261222b565b600061289861286c565b905060008151116128b857604051806020016040528060008152506128e3565b806128c284612ae8565b6040516020016128d3929190613ded565b6040516020818303038152906040525b915050919050565b60008073ffffffffffffffffffffffffffffffffffffffff166003600084815260200190815260200160002060009054906101000a900473ffffffffffffffffffffffffffffffffffffffff1673ffffffffffffffffffffffffffffffffffffffff1614159050919050565b505050565b505050565b60006129828473ffffffffffffffffffffffffffffffffffffffff16612c48565b15612adb578373ffffffffffffffffffffffffffffffffffffffff1663150b7a026129ab612276565b8786866040518563ffffffff1660e01b81526004016129cd9493929190614160565b6020604051808303816000875af1925050508015612a0957506040513d601f19601f82011682018060405250810190612a0691906141c1565b60015b612a8b573d8060008114612a39576040519150601f19603f3d011682016040523d82523d6000602084013e612a3e565b606091505b506000815103612a83576040517f08c379a0000000000000000000000000000000000000000000000000000000008152600401612a7a906140eb565b60405180910390fd5b805181602001fd5b63150b7a0260e01b7bffffffffffffffffffffffffffffffffffffffffffffffffffffffff1916817bffffffffffffffffffffffffffffffffffffffffffffffffffffffff191614915050612ae0565b600190505b949350505050565b606060008203612b2f576040518060400160405280600181526020017f30000000000000000000000000000000000000000000000000000000000000008152509050612c43565b600082905060005b60008214612b61578080612b4a90613585565b915050600a82612b5a919061421d565b9150612b37565b60008167ffffffffffffffff811115612b7d57612b7c613334565b5b6040519080825280601f01601f191660200182016040528015612baf5781602001600182028036833780820191505090505b5090505b60008514612c3c57600182612bc89190613d7d565b9150600a85612bd7919061424e565b6030612be39190613551565b60f81b818381518110612bf957612bf86135cd565b5b60200101907effffffffffffffffffffffffffffffffffffffffffffffffffffffffffffff1916908160001a905350600a85612c35919061421d565b9450612bb3565b8093505050505b919050565b6000808273ffffffffffffffffffffffffffffffffffffffff163b119050919050565b6040518060c00160405280600073ffffffffffffffffffffffffffffffffffffffff16815260200160008152602001600073ffffffffffffffffffffffffffffffffffffffff168152602001600073ffffffffffffffffffffffffffffffffffffffff168152602001600081526020016000151581525090565b6000604051905090565b600080fd5b600080fd5b60007fffffffff0000000000000000000000000000000000000000000000000000000082169050919050565b612d2e81612cf9565b8114612d3957600080fd5b50565b600081359050612d4b81612d25565b92915050565b600060208284031215612d6757612d66612cef565b5b6000612d7584828501612d3c565b91505092915050565b60008115159050919050565b612d9381612d7e565b82525050565b6000602082019050612dae6000830184612d8a565b92915050565b600081519050919050565b600082825260208201905092915050565b6000819050602082019050919050565b600073ffffffffffffffffffffffffffffffffffffffff82169050919050565b6000612e0b82612de0565b9050919050565b612e1b81612e00565b82525050565b6000819050919050565b612e3481612e21565b82525050565b6000612e4582612de0565b9050919050565b612e5581612e3a565b82525050565b612e6481612d7e565b82525050565b60c082016000820151612e806000850182612e12565b506020820151612e936020850182612e2b565b506040820151612ea66040850182612e4c565b506060820151612eb96060850182612e4c565b506080820151612ecc6080850182612e2b565b5060a0820151612edf60a0850182612e5b565b50505050565b6000612ef18383612e6a565b60c08301905092915050565b6000602082019050919050565b6000612f1582612db4565b612f1f8185612dbf565b9350612f2a83612dd0565b8060005b83811015612f5b578151612f428882612ee5565b9750612f4d83612efd565b925050600181019050612f2e565b5085935050505092915050565b60006020820190508181036000830152612f828184612f0a565b905092915050565b600081519050919050565b600082825260208201905092915050565b60005b83811015612fc4578082015181840152602081019050612fa9565b60008484015250505050565b6000601f19601f8301169050919050565b6000612fec82612f8a565b612ff68185612f95565b9350613006818560208601612fa6565b61300f81612fd0565b840191505092915050565b600060208201905081810360008301526130348184612fe1565b905092915050565b61304581612e21565b811461305057600080fd5b50565b6000813590506130628161303c565b92915050565b60006020828403121561307e5761307d612cef565b5b600061308c84828501613053565b91505092915050565b61309e81612e00565b82525050565b60006020820190506130b96000830184613095565b92915050565b6130c881612e00565b81146130d357600080fd5b50565b6000813590506130e5816130bf565b92915050565b6000806040838503121561310257613101612cef565b5b6000613110858286016130d6565b925050602061312185828601613053565b9150509250929050565b60008060006060848603121561314457613143612cef565b5b6000613152868287016130d6565b9350506020613163868287016130d6565b925050604061317486828701613053565b9150509250925092565b61318781612e21565b82525050565b60006020820190506131a2600083018461317e565b92915050565b6000806000606084860312156131c1576131c0612cef565b5b60006131cf868287016130d6565b93505060206131e086828701613053565b92505060406131f186828701613053565b9150509250925092565b60c0820160008201516132116000850182612e12565b5060208201516132246020850182612e2b565b5060408201516132376040850182612e4c565b50606082015161324a6060850182612e4c565b50608082015161325d6080850182612e2b565b5060a082015161327060a0850182612e5b565b50505050565b600060c08201905061328b60008301846131fb565b92915050565b6000602082840312156132a7576132a6612cef565b5b60006132b5848285016130d6565b91505092915050565b6132c781612d7e565b81146132d257600080fd5b50565b6000813590506132e4816132be565b92915050565b6000806040838503121561330157613300612cef565b5b600061330f858286016130d6565b9250506020613320858286016132d5565b9150509250929050565b600080fd5b600080fd5b7f4e487b7100000000000000000000000000000000000000000000000000000000600052604160045260246000fd5b61336c82612fd0565b810181811067ffffffffffffffff8211171561338b5761338a613334565b5b80604052505050565b600061339e612ce5565b90506133aa8282613363565b919050565b600067ffffffffffffffff8211156133ca576133c9613334565b5b6133d382612fd0565b9050602081019050919050565b82818337600083830152505050565b60006134026133fd846133af565b613394565b90508281526020810184848401111561341e5761341d61332f565b5b6134298482856133e0565b509392505050565b600082601f8301126134465761344561332a565b5b81356134568482602086016133ef565b91505092915050565b6000806000806080858703121561347957613478612cef565b5b6000613487878288016130d6565b9450506020613498878288016130d6565b93505060406134a987828801613053565b925050606085013567ffffffffffffffff8111156134ca576134c9612cf4565b5b6134d687828801613431565b91505092959194509250565b600080604083850312156134f9576134f8612cef565b5b6000613507858286016130d6565b9250506020613518858286016130d6565b9150509250929050565b7f4e487b7100000000000000000000000000000000000000000000000000000000600052601160045260246000fd5b600061355c82612e21565b915061356783612e21565b925082820190508082111561357f5761357e613522565b5b92915050565b600061359082612e21565b91507fffffffffffffffffffffffffffffffffffffffffffffffffffffffffffffffff82036135c2576135c1613522565b5b600182019050919050565b7f4e487b7100000000000000000000000000000000000000000000000000000000600052603260045260246000fd5b7f4e487b7100000000000000000000000000000000000000000000000000000000600052602260045260246000fd5b6000600282049050600182168061364357607f821691505b602082108103613656576136556135fc565b5b50919050565b7f4552433732313a20617070726f76616c20746f2063757272656e74206f776e6560008201527f7200000000000000000000000000000000000000000000000000000000000000602082015250565b60006136b8602183612f95565b91506136c38261365c565b604082019050919050565b600060208201905081810360008301526136e7816136ab565b9050919050565b7f4552433732313a20617070726f76652063616c6c6572206973206e6f7420746f60008201527f6b656e206f776e6572206e6f7220617070726f76656420666f7220616c6c0000602082015250565b600061374a603e83612f95565b9150613755826136ee565b604082019050919050565b600060208201905081810360008301526137798161373d565b9050919050565b7f4552433732313a2063616c6c6572206973206e6f7420746f6b656e206f776e6560008201527f72206e6f7220617070726f766564000000000000000000000000000000000000602082015250565b60006137dc602e83612f95565b91506137e782613780565b604082019050919050565b6000602082019050818103600083015261380b816137cf565b9050919050565b7f5265656e7472616e637947756172643a207265656e7472616e742063616c6c00600082015250565b6000613848601f83612f95565b915061385382613812565b602082019050919050565b600060208201905081810360008301526138778161383b565b9050919050565b7f4f6e6c792070726f64756374206f776e65722063616e20646f2074686973206f60008201527f7065726174696f6e000000000000000000000000000000000000000000000000602082015250565b60006138da602883612f95565b91506138e58261387e565b604082019050919050565b60006020820190508181036000830152613909816138cd565b9050919050565b7f4f6e6c79206974656d206f776e65722063616e20706572666f726d207468697360008201527f206f7065726174696f6e00000000000000000000000000000000000000000000602082015250565b600061396c602a83612f95565b915061397782613910565b604082019050919050565b6000602082019050818103600083015261399b8161395f565b9050919050565b7f5072696365206d757374206265206174206c6561737420312077656900000000600082015250565b60006139d8601c83612f95565b91506139e3826139a2565b602082019050919050565b60006020820190508181036000830152613a07816139cb565b9050919050565b7f4e6f7420656e6f75676820657468657220666f72206c697374696e6720666565600082015250565b6000613a44602083612f95565b9150613a4f82613a0e565b602082019050919050565b60006020820190508181036000830152613a7381613a37565b9050919050565b6000606082019050613a8f6000830186613095565b613a9c6020830185613095565b613aa9604083018461317e565b949350505050565b600060a082019050613ac66000830188613095565b613ad3602083018761317e565b613ae06040830186613095565b613aed6060830185613095565b613afa608083018461317e565b9695505050505050565b7f4e6f7420656e6f75676820657468657220746f20636f7665722061736b696e6760008201527f2070726963650000000000000000000000000000000000000000000000000000602082015250565b6000613b60602683612f95565b9150613b6b82613b04565b604082019050919050565b60006020820190508181036000830152613b8f81613b53565b9050919050565b6000819050919050565b6000613bbb613bb6613bb184612de0565b613b96565b612de0565b9050919050565b6000613bcd82613ba0565b9050919050565b6000613bdf82613bc2565b9050919050565b613bef81613bd4565b82525050565b6000606082019050613c0a6000830186613095565b613c176020830185613be6565b613c24604083018461317e565b949350505050565b600060a082019050613c416000830188613095565b613c4e602083018761317e565b613c5b6040830186613be6565b613c686060830185613be6565b613c75608083018461317e565b9695505050505050565b7f4552433732313a20696e76616c696420746f6b656e2049440000000000000000600082015250565b6000613cb5601883612f95565b9150613cc082613c7f565b602082019050919050565b60006020820190508181036000830152613ce481613ca8565b9050919050565b7f4552433732313a2061646472657373207a65726f206973206e6f74206120766160008201527f6c6964206f776e65720000000000000000000000000000000000000000000000602082015250565b6000613d47602983612f95565b9150613d5282613ceb565b604082019050919050565b60006020820190508181036000830152613d7681613d3a565b9050919050565b6000613d8882612e21565b9150613d9383612e21565b9250828203905081811115613dab57613daa613522565b5b92915050565b600081905092915050565b6000613dc782612f8a565b613dd18185613db1565b9350613de1818560208601612fa6565b80840191505092915050565b6000613df98285613dbc565b9150613e058284613dbc565b91508190509392505050565b7f46726f6d2061646472657373206d75737420626520746f6b656e206f776e6572600082015250565b6000613e47602083612f95565b9150613e5282613e11565b602082019050919050565b60006020820190508181036000830152613e7681613e3a565b9050919050565b7f4552433732313a207472616e736665722066726f6d20696e636f72726563742060008201527f6f776e6572000000000000000000000000000000000000000000000000000000602082015250565b6000613ed9602583612f95565b9150613ee482613e7d565b604082019050919050565b60006020820190508181036000830152613f0881613ecc565b9050919050565b7f4552433732313a207472616e7366657220746f20746865207a65726f2061646460008201527f7265737300000000000000000000000000000000000000000000000000000000602082015250565b6000613f6b602483612f95565b9150613f7682613f0f565b604082019050919050565b60006020820190508181036000830152613f9a81613f5e565b9050919050565b7f436f756e7465723a2064656372656d656e74206f766572666c6f770000000000600082015250565b6000613fd7601b83612f95565b9150613fe282613fa1565b602082019050919050565b6000602082019050818103600083015261400681613fca565b9050919050565b7f4552433732313a20617070726f766520746f2063616c6c657200000000000000600082015250565b6000614043601983612f95565b915061404e8261400d565b602082019050919050565b6000602082019050818103600083015261407281614036565b9050919050565b7f4552433732313a207472616e7366657220746f206e6f6e20455243373231526560008201527f63656976657220696d706c656d656e7465720000000000000000000000000000602082015250565b60006140d5603283612f95565b91506140e082614079565b604082019050919050565b60006020820190508181036000830152614104816140c8565b9050919050565b600081519050919050565b600082825260208201905092915050565b60006141328261410b565b61413c8185614116565b935061414c818560208601612fa6565b61415581612fd0565b840191505092915050565b60006080820190506141756000830187613095565b6141826020830186613095565b61418f604083018561317e565b81810360608301526141a18184614127565b905095945050505050565b6000815190506141bb81612d25565b92915050565b6000602082840312156141d7576141d6612cef565b5b60006141e5848285016141ac565b91505092915050565b7f4e487b7100000000000000000000000000000000000000000000000000000000600052601260045260246000fd5b600061422882612e21565b915061423383612e21565b925082614243576142426141ee565b5b828204905092915050565b600061425982612e21565b915061426483612e21565b925082614274576142736141ee565b5b82820690509291505056fea2646970667358221220ba0416ed60816101f74b01326c42331676af13d887e4e8dee62e57cbd14da7a464736f6c63430008110033",
  "immutableReferences": {},
  "source": "// SPDX-License-Identifier: MIT\npragma solidity ^0.8.7;\n\nimport '@openzeppelin/contracts/utils/Counters.sol';\nimport '@openzeppelin/contracts/token/ERC721/ERC721.sol';\nimport '@openzeppelin/contracts/security/ReentrancyGuard.sol';\nimport '@openzeppelin/contracts/token/ERC721/extensions/ERC721URIStorage.sol';\n\ncontract Marketplace is ReentrancyGuard, ERC721URIStorage {\n  using Counters for Counters.Counter;\n  Counters.Counter private _nftsSold;\n  Counters.Counter private _nftCount;\n  uint256 public LISTING_FEE = 0.0001 ether;\n  address payable private _marketOwner;\n  mapping(uint256 => NFT) private _idToNFT;\n\n  struct NFT {\n    address nftContract;\n    uint256 tokenId;\n    address payable seller;\n    address payable owner;\n    uint256 price;\n    bool listed;\n  }\n  event NFTListed(\n    address nftContract,\n    uint256 tokenId,\n    address seller,\n    address owner,\n    uint256 price\n  );\n  event NFTSold(\n    address nftContract,\n    uint256 tokenId,\n    address seller,\n    address owner,\n    uint256 price\n  );\n\n  constructor() ERC721('Market Place', 'MP') {\n    _marketOwner = payable(msg.sender);\n  }\n\n  function transferToken(\n    address from,\n    address to,\n    uint256 tokenId\n  ) external {\n    require(ownerOf(tokenId) == from, 'From address must be token owner');\n    _transfer(from, to, tokenId);\n  }\n\n  modifier onlyItemOwner(uint256 tokenId) {\n    require(\n      _idToNFT[tokenId].owner == msg.sender,\n      'Only product owner can do this operation'\n    );\n    _;\n  }\n\n  // List the NFT on the marketplace\n  function listNft(\n    address _nftContract,\n    uint256 _tokenId,\n    uint256 _price\n  ) public payable nonReentrant {\n    require(_price > 0, 'Price must be at least 1 wei');\n    require(msg.value == LISTING_FEE, 'Not enough ether for listing fee');\n\n    IERC721(_nftContract).transferFrom(msg.sender, address(this), _tokenId);\n\n    _nftCount.increment();\n\n    _idToNFT[_tokenId] = NFT(\n      _nftContract,\n      _tokenId,\n      payable(msg.sender),\n      payable(address(this)),\n      _price,\n      true\n    );\n\n    emit NFTListed(_nftContract, _tokenId, msg.sender, address(this), _price);\n  }\n\n  // Buy an NFT\n  function buyNft(address _nftContract, uint256 _tokenId)\n    public\n    payable\n    nonReentrant\n  {\n    NFT storage nft = _idToNFT[_tokenId];\n    require(msg.value >= nft.price, 'Not enough ether to cover asking price');\n\n    address payable buyer = payable(msg.sender);\n    payable(nft.seller).transfer(msg.value);\n    IERC721(_nftContract).transferFrom(address(this), buyer, nft.tokenId);\n    _marketOwner.transfer(LISTING_FEE);\n    nft.owner = buyer;\n    nft.listed = false;\n\n    _nftsSold.increment();\n    emit NFTSold(_nftContract, nft.tokenId, nft.seller, buyer, msg.value);\n  }\n\n  // Resell an NFT purchased from the marketplace\n  function resellNft(\n    address _nftContract,\n    uint256 _tokenId,\n    uint256 _price\n  ) public payable nonReentrant onlyItemOwner(_tokenId) {\n    require(\n      _idToNFT[_tokenId].owner == msg.sender,\n      'Only item owner can perform this operation'\n    );\n    require(_price > 0, 'Price must be at least 1 wei');\n    require(msg.value == LISTING_FEE, 'Not enough ether for listing fee');\n\n    //IERC721(_nftContract).safeTransferFrom(msg.sender, address(this), _tokenId);\n    //_transfer(msg.sender, address(this), _tokenId);\n    Marketplace tokenContract = Marketplace(_nftContract);\n    tokenContract.transferToken(msg.sender, address(this), _tokenId);\n\n    NFT storage nft = _idToNFT[_tokenId];\n    nft.seller = payable(msg.sender);\n    nft.owner = payable(address(this));\n    nft.listed = true;\n    nft.price = _price;\n\n    _nftsSold.decrement();\n    emit NFTListed(_nftContract, _tokenId, msg.sender, address(this), _price);\n  }\n\n  function getListingFee() public view returns (uint256) {\n    return LISTING_FEE;\n  }\n\n  function getListedNfts() public view returns (NFT[] memory) {\n    uint256 nftCount = _nftCount.current();\n    uint256 unsoldNftsCount = nftCount - _nftsSold.current();\n\n    NFT[] memory nfts = new NFT[](unsoldNftsCount);\n    uint256 nftsIndex = 0;\n    for (uint256 i = 0; i < nftCount; i++) {\n      if (_idToNFT[i + 1].listed) {\n        nfts[nftsIndex] = _idToNFT[i + 1];\n        nftsIndex++;\n      }\n    }\n    return nfts;\n  }\n\n  function getMyNfts() public view returns (NFT[] memory) {\n    uint256 nftCount = _nftCount.current();\n    uint256 myNftCount = 0;\n    for (uint256 i = 0; i < nftCount; i++) {\n      if (_idToNFT[i + 1].owner == msg.sender) {\n        myNftCount++;\n      }\n    }\n\n    NFT[] memory nfts = new NFT[](myNftCount);\n    uint256 nftsIndex = 0;\n    for (uint256 i = 0; i < nftCount; i++) {\n      if (_idToNFT[i + 1].owner == msg.sender) {\n        nfts[nftsIndex] = _idToNFT[i + 1];\n        nftsIndex++;\n      }\n    }\n    return nfts;\n  }\n\n  function getMyListedNfts() public view returns (NFT[] memory) {\n    uint256 nftCount = _nftCount.current();\n    uint256 myListedNftCount = 0;\n    for (uint256 i = 0; i < nftCount; i++) {\n      if (_idToNFT[i + 1].seller == msg.sender && _idToNFT[i + 1].listed) {\n        myListedNftCount++;\n      }\n    }\n\n    NFT[] memory nfts = new NFT[](myListedNftCount);\n    uint256 nftsIndex = 0;\n    for (uint256 i = 0; i < nftCount; i++) {\n      if (_idToNFT[i + 1].seller == msg.sender && _idToNFT[i + 1].listed) {\n        nfts[nftsIndex] = _idToNFT[i + 1];\n        nftsIndex++;\n      }\n    }\n    return nfts;\n  }\n\n  function getNft(uint256 _tokenId) public view returns (NFT memory) {\n    return _idToNFT[_tokenId];\n  }\n}\n",
  "sourcePath": "/Users/yjs/Documents/GitHub/planetrunners/backend/contracts/MarketPlace.sol",
  "compiler": {
    "name": "solc",
    "version": "0.8.17+commit.8df45f5f.Emscripten.clang"
  },
  "schemaVersion": "3.4.9",
  "updatedAt": "2022-09-29T16:18:07.826Z",
  "devdoc": {
    "kind": "dev",
    "methods": {
      "approve(address,uint256)": {
        "details": "See {IERC721-approve}."
      },
      "balanceOf(address)": {
        "details": "See {IERC721-balanceOf}."
      },
      "getApproved(uint256)": {
        "details": "See {IERC721-getApproved}."
      },
      "isApprovedForAll(address,address)": {
        "details": "See {IERC721-isApprovedForAll}."
      },
      "name()": {
        "details": "See {IERC721Metadata-name}."
      },
      "ownerOf(uint256)": {
        "details": "See {IERC721-ownerOf}."
      },
      "safeTransferFrom(address,address,uint256)": {
        "details": "See {IERC721-safeTransferFrom}."
      },
      "safeTransferFrom(address,address,uint256,bytes)": {
        "details": "See {IERC721-safeTransferFrom}."
      },
      "setApprovalForAll(address,bool)": {
        "details": "See {IERC721-setApprovalForAll}."
      },
      "supportsInterface(bytes4)": {
        "details": "See {IERC165-supportsInterface}."
      },
      "symbol()": {
        "details": "See {IERC721Metadata-symbol}."
      },
      "tokenURI(uint256)": {
        "details": "See {IERC721Metadata-tokenURI}."
      },
      "transferFrom(address,address,uint256)": {
        "details": "See {IERC721-transferFrom}."
      }
    },
    "version": 1
  },
  "userdoc": {
    "kind": "user",
    "methods": {},
    "version": 1
  }
}