{
  "contractName": "NFT",
  "abi": [
    {
      "inputs": [
        {
          "internalType": "address",
          "name": "marketplaceAddress",
          "type": "address"
        }
      ],
      "stateMutability": "nonpayable",
      "type": "constructor"
    },
    {
      "anonymous": false,
      "inputs": [
        {
          "indexed": true,
          "internalType": "address",
          "name": "owner",
          "type": "address"
        },
        {
          "indexed": true,
          "internalType": "address",
          "name": "approved",
          "type": "address"
        },
        {
          "indexed": true,
          "internalType": "uint256",
          "name": "tokenId",
          "type": "uint256"
        }
      ],
      "name": "Approval",
      "type": "event"
    },
    {
      "anonymous": false,
      "inputs": [
        {
          "indexed": true,
          "internalType": "address",
          "name": "owner",
          "type": "address"
        },
        {
          "indexed": true,
          "internalType": "address",
          "name": "operator",
          "type": "address"
        },
        {
          "indexed": false,
          "internalType": "bool",
          "name": "approved",
          "type": "bool"
        }
      ],
      "name": "ApprovalForAll",
      "type": "event"
    },
    {
      "anonymous": false,
      "inputs": [
        {
          "indexed": false,
          "internalType": "uint256",
          "name": "",
          "type": "uint256"
        }
      ],
      "name": "NFTMinted",
      "type": "event"
    },
    {
      "anonymous": false,
      "inputs": [
        {
          "indexed": true,
          "internalType": "address",
          "name": "from",
          "type": "address"
        },
        {
          "indexed": true,
          "internalType": "address",
          "name": "to",
          "type": "address"
        },
        {
          "indexed": true,
          "internalType": "uint256",
          "name": "tokenId",
          "type": "uint256"
        }
      ],
      "name": "Transfer",
      "type": "event"
    },
    {
      "inputs": [],
      "name": "MAX_SUPPLY",
      "outputs": [
        {
          "internalType": "uint256",
          "name": "",
          "type": "uint256"
        }
      ],
      "stateMutability": "view",
      "type": "function",
      "constant": true
    },
    {
      "inputs": [
        {
          "internalType": "address",
          "name": "to",
          "type": "address"
        },
        {
          "internalType": "uint256",
          "name": "tokenId",
          "type": "uint256"
        }
      ],
      "name": "approve",
      "outputs": [],
      "stateMutability": "nonpayable",
      "type": "function"
    },
    {
      "inputs": [
        {
          "internalType": "address",
          "name": "owner",
          "type": "address"
        }
      ],
      "name": "balanceOf",
      "outputs": [
        {
          "internalType": "uint256",
          "name": "",
          "type": "uint256"
        }
      ],
      "stateMutability": "view",
      "type": "function",
      "constant": true
    },
    {
      "inputs": [],
      "name": "baseURI",
      "outputs": [
        {
          "internalType": "string",
          "name": "",
          "type": "string"
        }
      ],
      "stateMutability": "view",
      "type": "function",
      "constant": true
    },
    {
      "inputs": [
        {
          "internalType": "uint256",
          "name": "tokenId",
          "type": "uint256"
        }
      ],
      "name": "getApproved",
      "outputs": [
        {
          "internalType": "address",
          "name": "",
          "type": "address"
        }
      ],
      "stateMutability": "view",
      "type": "function",
      "constant": true
    },
    {
      "inputs": [
        {
          "internalType": "address",
          "name": "owner",
          "type": "address"
        },
        {
          "internalType": "address",
          "name": "operator",
          "type": "address"
        }
      ],
      "name": "isApprovedForAll",
      "outputs": [
        {
          "internalType": "bool",
          "name": "",
          "type": "bool"
        }
      ],
      "stateMutability": "view",
      "type": "function",
      "constant": true
    },
    {
      "inputs": [],
      "name": "name",
      "outputs": [
        {
          "internalType": "string",
          "name": "",
          "type": "string"
        }
      ],
      "stateMutability": "view",
      "type": "function",
      "constant": true
    },
    {
      "inputs": [
        {
          "internalType": "uint256",
          "name": "tokenId",
          "type": "uint256"
        }
      ],
      "name": "ownerOf",
      "outputs": [
        {
          "internalType": "address",
          "name": "",
          "type": "address"
        }
      ],
      "stateMutability": "view",
      "type": "function",
      "constant": true
    },
    {
      "inputs": [
        {
          "internalType": "address",
          "name": "from",
          "type": "address"
        },
        {
          "internalType": "address",
          "name": "to",
          "type": "address"
        },
        {
          "internalType": "uint256",
          "name": "tokenId",
          "type": "uint256"
        }
      ],
      "name": "safeTransferFrom",
      "outputs": [],
      "stateMutability": "nonpayable",
      "type": "function"
    },
    {
      "inputs": [
        {
          "internalType": "address",
          "name": "from",
          "type": "address"
        },
        {
          "internalType": "address",
          "name": "to",
          "type": "address"
        },
        {
          "internalType": "uint256",
          "name": "tokenId",
          "type": "uint256"
        },
        {
          "internalType": "bytes",
          "name": "data",
          "type": "bytes"
        }
      ],
      "name": "safeTransferFrom",
      "outputs": [],
      "stateMutability": "nonpayable",
      "type": "function"
    },
    {
      "inputs": [
        {
          "internalType": "address",
          "name": "operator",
          "type": "address"
        },
        {
          "internalType": "bool",
          "name": "approved",
          "type": "bool"
        }
      ],
      "name": "setApprovalForAll",
      "outputs": [],
      "stateMutability": "nonpayable",
      "type": "function"
    },
    {
      "inputs": [
        {
          "internalType": "bytes4",
          "name": "interfaceId",
          "type": "bytes4"
        }
      ],
      "name": "supportsInterface",
      "outputs": [
        {
          "internalType": "bool",
          "name": "",
          "type": "bool"
        }
      ],
      "stateMutability": "view",
      "type": "function",
      "constant": true
    },
    {
      "inputs": [],
      "name": "symbol",
      "outputs": [
        {
          "internalType": "string",
          "name": "",
          "type": "string"
        }
      ],
      "stateMutability": "view",
      "type": "function",
      "constant": true
    },
    {
      "inputs": [
        {
          "internalType": "address",
          "name": "from",
          "type": "address"
        },
        {
          "internalType": "address",
          "name": "to",
          "type": "address"
        },
        {
          "internalType": "uint256",
          "name": "tokenId",
          "type": "uint256"
        }
      ],
      "name": "transferFrom",
      "outputs": [],
      "stateMutability": "nonpayable",
      "type": "function"
    },
    {
      "inputs": [],
      "name": "createToken",
      "outputs": [
        {
          "internalType": "uint256",
          "name": "",
          "type": "uint256"
        }
      ],
      "stateMutability": "nonpayable",
      "type": "function"
    },
    {
      "inputs": [
        {
          "internalType": "address",
          "name": "from",
          "type": "address"
        },
        {
          "internalType": "address",
          "name": "to",
          "type": "address"
        },
        {
          "internalType": "uint256",
          "name": "tokenId",
          "type": "uint256"
        }
      ],
      "name": "transferToken",
      "outputs": [],
      "stateMutability": "nonpayable",
      "type": "function"
    },
    {
      "inputs": [],
      "name": "getContractAddress",
      "outputs": [
        {
          "internalType": "address",
          "name": "",
          "type": "address"
        }
      ],
      "stateMutability": "view",
      "type": "function",
      "constant": true
    },
    {
      "inputs": [],
      "name": "currentSupply",
      "outputs": [
        {
          "internalType": "uint256",
          "name": "",
          "type": "uint256"
        }
      ],
      "stateMutability": "view",
      "type": "function",
      "constant": true
    },
    {
      "inputs": [
        {
          "internalType": "uint256",
          "name": "_tokenId",
          "type": "uint256"
        }
      ],
      "name": "tokenURI",
      "outputs": [
        {
          "internalType": "string",
          "name": "",
          "type": "string"
        }
      ],
      "stateMutability": "view",
      "type": "function",
      "constant": true
    }
  ],
  "bytecode": "0x60806040526040518060800160405280604381526020016200329260439139600990816200002e9190620003b6565b503480156200003c57600080fd5b50604051620032d5380380620032d5833981810160405281019062000062919062000507565b6040518060400160405280600d81526020017f506c616e65742052756e6e6572000000000000000000000000000000000000008152506040518060400160405280600281526020017f50520000000000000000000000000000000000000000000000000000000000008152508160009081620000df9190620003b6565b508060019081620000f19190620003b6565b50505080600860006101000a81548173ffffffffffffffffffffffffffffffffffffffff021916908373ffffffffffffffffffffffffffffffffffffffff1602179055505062000539565b600081519050919050565b7f4e487b7100000000000000000000000000000000000000000000000000000000600052604160045260246000fd5b7f4e487b7100000000000000000000000000000000000000000000000000000000600052602260045260246000fd5b60006002820490506001821680620001be57607f821691505b602082108103620001d457620001d362000176565b5b50919050565b60008190508160005260206000209050919050565b60006020601f8301049050919050565b600082821b905092915050565b6000600883026200023e7fffffffffffffffffffffffffffffffffffffffffffffffffffffffffffffffff82620001ff565b6200024a8683620001ff565b95508019841693508086168417925050509392505050565b6000819050919050565b6000819050919050565b600062000297620002916200028b8462000262565b6200026c565b62000262565b9050919050565b6000819050919050565b620002b38362000276565b620002cb620002c2826200029e565b8484546200020c565b825550505050565b600090565b620002e2620002d3565b620002ef818484620002a8565b505050565b5b8181101562000317576200030b600082620002d8565b600181019050620002f5565b5050565b601f82111562000366576200033081620001da565b6200033b84620001ef565b810160208510156200034b578190505b620003636200035a85620001ef565b830182620002f4565b50505b505050565b600082821c905092915050565b60006200038b600019846008026200036b565b1980831691505092915050565b6000620003a6838362000378565b9150826002028217905092915050565b620003c1826200013c565b67ffffffffffffffff811115620003dd57620003dc62000147565b5b620003e98254620001a5565b620003f68282856200031b565b600060209050601f8311600181146200042e576000841562000419578287015190505b62000425858262000398565b86555062000495565b601f1984166200043e86620001da565b60005b82811015620004685784890151825560018201915060208501945060208101905062000441565b8683101562000488578489015162000484601f89168262000378565b8355505b6001600288020188555050505b505050505050565b600080fd5b600073ffffffffffffffffffffffffffffffffffffffff82169050919050565b6000620004cf82620004a2565b9050919050565b620004e181620004c2565b8114620004ed57600080fd5b50565b6000815190506200050181620004d6565b92915050565b60006020828403121562000520576200051f6200049d565b5b60006200053084828501620004f0565b91505092915050565b612d4980620005496000396000f3fe608060405234801561001057600080fd5b50600436106101215760003560e01c80636c0360eb116100ad578063a22cb46511610071578063a22cb4651461030c578063b88d4fde14610328578063c87b56dd14610344578063e985e9c514610374578063f5537ede146103a457610121565b80636c0360eb1461026457806370a0823114610282578063771282f6146102b257806395d89b41146102d05780639cbf9e36146102ee57610121565b806323b872dd116100f457806323b872dd146101c057806332a2c5d0146101dc57806332cb6b0c146101fa57806342842e0e146102185780636352211e1461023457610121565b806301ffc9a71461012657806306fdde0314610156578063081812fc14610174578063095ea7b3146101a4575b600080fd5b610140600480360381019061013b91906119a7565b6103c0565b60405161014d91906119ef565b60405180910390f35b61015e6104a2565b60405161016b9190611a9a565b60405180910390f35b61018e60048036038101906101899190611af2565b610534565b60405161019b9190611b60565b60405180910390f35b6101be60048036038101906101b99190611ba7565b61057a565b005b6101da60048036038101906101d59190611be7565b610691565b005b6101e46106f1565b6040516101f19190611b60565b60405180910390f35b61020261071b565b60405161020f9190611c49565b60405180910390f35b610232600480360381019061022d9190611be7565b610720565b005b61024e60048036038101906102499190611af2565b610740565b60405161025b9190611b60565b60405180910390f35b61026c6107f1565b6040516102799190611a9a565b60405180910390f35b61029c60048036038101906102979190611c64565b61087f565b6040516102a99190611c49565b60405180910390f35b6102ba610936565b6040516102c79190611c49565b60405180910390f35b6102d8610947565b6040516102e59190611a9a565b60405180910390f35b6102f66109d9565b6040516103039190611c49565b60405180910390f35b61032660048036038101906103219190611cbd565b610ad2565b005b610342600480360381019061033d9190611e32565b610ae8565b005b61035e60048036038101906103599190611af2565b610b4a565b60405161036b9190611a9a565b60405180910390f35b61038e60048036038101906103899190611eb5565b610bfe565b60405161039b91906119ef565b60405180910390f35b6103be60048036038101906103b99190611be7565b610c92565b005b60007f80ac58cd000000000000000000000000000000000000000000000000000000007bffffffffffffffffffffffffffffffffffffffffffffffffffffffff1916827bffffffffffffffffffffffffffffffffffffffffffffffffffffffff1916148061048b57507f5b5e139f000000000000000000000000000000000000000000000000000000007bffffffffffffffffffffffffffffffffffffffffffffffffffffffff1916827bffffffffffffffffffffffffffffffffffffffffffffffffffffffff1916145b8061049b575061049a82610d18565b5b9050919050565b6060600080546104b190611f24565b80601f01602080910402602001604051908101604052809291908181526020018280546104dd90611f24565b801561052a5780601f106104ff5761010080835404028352916020019161052a565b820191906000526020600020905b81548152906001019060200180831161050d57829003601f168201915b5050505050905090565b600061053f82610d82565b6004600083815260200190815260200160002060009054906101000a900473ffffffffffffffffffffffffffffffffffffffff169050919050565b600061058582610740565b90508073ffffffffffffffffffffffffffffffffffffffff168373ffffffffffffffffffffffffffffffffffffffff16036105f5576040517f08c379a00000000000000000000000000000000000000000000000000000000081526004016105ec90611fc7565b60405180910390fd5b8073ffffffffffffffffffffffffffffffffffffffff16610614610dcd565b73ffffffffffffffffffffffffffffffffffffffff16148061064357506106428161063d610dcd565b610bfe565b5b610682576040517f08c379a000000000000000000000000000000000000000000000000000000000815260040161067990612059565b60405180910390fd5b61068c8383610dd5565b505050565b6106a261069c610dcd565b82610e8e565b6106e1576040517f08c379a00000000000000000000000000000000000000000000000000000000081526004016106d8906120eb565b60405180910390fd5b6106ec838383610f23565b505050565b6000600860009054906101000a900473ffffffffffffffffffffffffffffffffffffffff16905090565b606481565b61073b83838360405180602001604052806000815250610ae8565b505050565b6000806002600084815260200190815260200160002060009054906101000a900473ffffffffffffffffffffffffffffffffffffffff169050600073ffffffffffffffffffffffffffffffffffffffff168173ffffffffffffffffffffffffffffffffffffffff16036107e8576040517f08c379a00000000000000000000000000000000000000000000000000000000081526004016107df90612157565b60405180910390fd5b80915050919050565b600980546107fe90611f24565b80601f016020809104026020016040519081016040528092919081815260200182805461082a90611f24565b80156108775780601f1061084c57610100808354040283529160200191610877565b820191906000526020600020905b81548152906001019060200180831161085a57829003601f168201915b505050505081565b60008073ffffffffffffffffffffffffffffffffffffffff168273ffffffffffffffffffffffffffffffffffffffff16036108ef576040517f08c379a00000000000000000000000000000000000000000000000000000000081526004016108e6906121e9565b60405180910390fd5b600360008373ffffffffffffffffffffffffffffffffffffffff1673ffffffffffffffffffffffffffffffffffffffff168152602001908152602001600020549050919050565b60006109426007611189565b905090565b60606001805461095690611f24565b80601f016020809104026020016040519081016040528092919081815260200182805461098290611f24565b80156109cf5780601f106109a4576101008083540402835291602001916109cf565b820191906000526020600020905b8154815290600101906020018083116109b257829003601f168201915b5050505050905090565b600060016109e76007611189565b6109f19190612238565b606411610a33576040517f08c379a0000000000000000000000000000000000000000000000000000000008152600401610a2a906122b8565b60405180910390fd5b610a3d6007611197565b6000610a496007611189565b9050610a5533826111ad565b610a6781610a6283610b4a565b611386565b610a94600860009054906101000a900473ffffffffffffffffffffffffffffffffffffffff166001610ad2565b7fd9dc24857f317ed9abbbb42e920ede0104231eb1d3d70236a74887ffaf15986881604051610ac39190611c49565b60405180910390a18091505090565b610ae4610add610dcd565b83836113f3565b5050565b610af9610af3610dcd565b83610e8e565b610b38576040517f08c379a0000000000000000000000000000000000000000000000000000000008152600401610b2f906120eb565b60405180910390fd5b610b448484848461155f565b50505050565b6060610b55826115bb565b610b94576040517f08c379a0000000000000000000000000000000000000000000000000000000008152600401610b8b90612324565b60405180910390fd5b600060098054610ba390611f24565b905011610bbf5760405180602001604052806000815250610bf7565b6009610bd6600184610bd19190612344565b611627565b604051602001610be7929190612498565b6040516020818303038152906040525b9050919050565b6000600560008473ffffffffffffffffffffffffffffffffffffffff1673ffffffffffffffffffffffffffffffffffffffff16815260200190815260200160002060008373ffffffffffffffffffffffffffffffffffffffff1673ffffffffffffffffffffffffffffffffffffffff16815260200190815260200160002060009054906101000a900460ff16905092915050565b8273ffffffffffffffffffffffffffffffffffffffff16610cb282610740565b73ffffffffffffffffffffffffffffffffffffffff1614610d08576040517f08c379a0000000000000000000000000000000000000000000000000000000008152600401610cff90612513565b60405180910390fd5b610d13838383610f23565b505050565b60007f01ffc9a7000000000000000000000000000000000000000000000000000000007bffffffffffffffffffffffffffffffffffffffffffffffffffffffff1916827bffffffffffffffffffffffffffffffffffffffffffffffffffffffff1916149050919050565b610d8b816115bb565b610dca576040517f08c379a0000000000000000000000000000000000000000000000000000000008152600401610dc190612157565b60405180910390fd5b50565b600033905090565b816004600083815260200190815260200160002060006101000a81548173ffffffffffffffffffffffffffffffffffffffff021916908373ffffffffffffffffffffffffffffffffffffffff160217905550808273ffffffffffffffffffffffffffffffffffffffff16610e4883610740565b73ffffffffffffffffffffffffffffffffffffffff167f8c5be1e5ebec7d5bd14f71427d1e84f3dd0314c0f7b2291e5b200ac8c7c3b92560405160405180910390a45050565b600080610e9a83610740565b90508073ffffffffffffffffffffffffffffffffffffffff168473ffffffffffffffffffffffffffffffffffffffff161480610edc5750610edb8185610bfe565b5b80610f1a57508373ffffffffffffffffffffffffffffffffffffffff16610f0284610534565b73ffffffffffffffffffffffffffffffffffffffff16145b91505092915050565b8273ffffffffffffffffffffffffffffffffffffffff16610f4382610740565b73ffffffffffffffffffffffffffffffffffffffff1614610f99576040517f08c379a0000000000000000000000000000000000000000000000000000000008152600401610f90906125a5565b60405180910390fd5b600073ffffffffffffffffffffffffffffffffffffffff168273ffffffffffffffffffffffffffffffffffffffff1603611008576040517f08c379a0000000000000000000000000000000000000000000000000000000008152600401610fff90612637565b60405180910390fd5b611013838383611787565b61101e600082610dd5565b6001600360008573ffffffffffffffffffffffffffffffffffffffff1673ffffffffffffffffffffffffffffffffffffffff168152602001908152602001600020600082825461106e9190612344565b925050819055506001600360008473ffffffffffffffffffffffffffffffffffffffff1673ffffffffffffffffffffffffffffffffffffffff16815260200190815260200160002060008282546110c59190612238565b92505081905550816002600083815260200190815260200160002060006101000a81548173ffffffffffffffffffffffffffffffffffffffff021916908373ffffffffffffffffffffffffffffffffffffffff160217905550808273ffffffffffffffffffffffffffffffffffffffff168473ffffffffffffffffffffffffffffffffffffffff167fddf252ad1be2c89b69c2b068fc378daa952ba7f163c4a11628f55a4df523b3ef60405160405180910390a461118483838361178c565b505050565b600081600001549050919050565b6001816000016000828254019250508190555050565b600073ffffffffffffffffffffffffffffffffffffffff168273ffffffffffffffffffffffffffffffffffffffff160361121c576040517f08c379a0000000000000000000000000000000000000000000000000000000008152600401611213906126a3565b60405180910390fd5b611225816115bb565b15611265576040517f08c379a000000000000000000000000000000000000000000000000000000000815260040161125c9061270f565b60405180910390fd5b61127160008383611787565b6001600360008473ffffffffffffffffffffffffffffffffffffffff1673ffffffffffffffffffffffffffffffffffffffff16815260200190815260200160002060008282546112c19190612238565b92505081905550816002600083815260200190815260200160002060006101000a81548173ffffffffffffffffffffffffffffffffffffffff021916908373ffffffffffffffffffffffffffffffffffffffff160217905550808273ffffffffffffffffffffffffffffffffffffffff16600073ffffffffffffffffffffffffffffffffffffffff167fddf252ad1be2c89b69c2b068fc378daa952ba7f163c4a11628f55a4df523b3ef60405160405180910390a46113826000838361178c565b5050565b61138f826115bb565b6113ce576040517f08c379a00000000000000000000000000000000000000000000000000000000081526004016113c5906127a1565b60405180910390fd5b806006600084815260200190815260200160002090816113ee9190612958565b505050565b8173ffffffffffffffffffffffffffffffffffffffff168373ffffffffffffffffffffffffffffffffffffffff1603611461576040517f08c379a000000000000000000000000000000000000000000000000000000000815260040161145890612a76565b60405180910390fd5b80600560008573ffffffffffffffffffffffffffffffffffffffff1673ffffffffffffffffffffffffffffffffffffffff16815260200190815260200160002060008473ffffffffffffffffffffffffffffffffffffffff1673ffffffffffffffffffffffffffffffffffffffff16815260200190815260200160002060006101000a81548160ff0219169083151502179055508173ffffffffffffffffffffffffffffffffffffffff168373ffffffffffffffffffffffffffffffffffffffff167f17307eab39ab6107e8899845ad3d59bd9653f200f220920489ca2b5937696c318360405161155291906119ef565b60405180910390a3505050565b61156a848484610f23565b61157684848484611791565b6115b5576040517f08c379a00000000000000000000000000000000000000000000000000000000081526004016115ac90612b08565b60405180910390fd5b50505050565b60008073ffffffffffffffffffffffffffffffffffffffff166002600084815260200190815260200160002060009054906101000a900473ffffffffffffffffffffffffffffffffffffffff1673ffffffffffffffffffffffffffffffffffffffff1614159050919050565b60606000820361166e576040518060400160405280600181526020017f30000000000000000000000000000000000000000000000000000000000000008152509050611782565b600082905060005b600082146116a057808061168990612b28565b915050600a826116999190612b9f565b9150611676565b60008167ffffffffffffffff8111156116bc576116bb611d07565b5b6040519080825280601f01601f1916602001820160405280156116ee5781602001600182028036833780820191505090505b5090505b6000851461177b576001826117079190612344565b9150600a856117169190612bd0565b60306117229190612238565b60f81b81838151811061173857611737612c01565b5b60200101907effffffffffffffffffffffffffffffffffffffffffffffffffffffffffffff1916908160001a905350600a856117749190612b9f565b94506116f2565b8093505050505b919050565b505050565b505050565b60006117b28473ffffffffffffffffffffffffffffffffffffffff16611918565b1561190b578373ffffffffffffffffffffffffffffffffffffffff1663150b7a026117db610dcd565b8786866040518563ffffffff1660e01b81526004016117fd9493929190612c85565b6020604051808303816000875af192505050801561183957506040513d601f19601f820116820180604052508101906118369190612ce6565b60015b6118bb573d8060008114611869576040519150601f19603f3d011682016040523d82523d6000602084013e61186e565b606091505b5060008151036118b3576040517f08c379a00000000000000000000000000000000000000000000000000000000081526004016118aa90612b08565b60405180910390fd5b805181602001fd5b63150b7a0260e01b7bffffffffffffffffffffffffffffffffffffffffffffffffffffffff1916817bffffffffffffffffffffffffffffffffffffffffffffffffffffffff191614915050611910565b600190505b949350505050565b6000808273ffffffffffffffffffffffffffffffffffffffff163b119050919050565b6000604051905090565b600080fd5b600080fd5b60007fffffffff0000000000000000000000000000000000000000000000000000000082169050919050565b6119848161194f565b811461198f57600080fd5b50565b6000813590506119a18161197b565b92915050565b6000602082840312156119bd576119bc611945565b5b60006119cb84828501611992565b91505092915050565b60008115159050919050565b6119e9816119d4565b82525050565b6000602082019050611a0460008301846119e0565b92915050565b600081519050919050565b600082825260208201905092915050565b60005b83811015611a44578082015181840152602081019050611a29565b60008484015250505050565b6000601f19601f8301169050919050565b6000611a6c82611a0a565b611a768185611a15565b9350611a86818560208601611a26565b611a8f81611a50565b840191505092915050565b60006020820190508181036000830152611ab48184611a61565b905092915050565b6000819050919050565b611acf81611abc565b8114611ada57600080fd5b50565b600081359050611aec81611ac6565b92915050565b600060208284031215611b0857611b07611945565b5b6000611b1684828501611add565b91505092915050565b600073ffffffffffffffffffffffffffffffffffffffff82169050919050565b6000611b4a82611b1f565b9050919050565b611b5a81611b3f565b82525050565b6000602082019050611b756000830184611b51565b92915050565b611b8481611b3f565b8114611b8f57600080fd5b50565b600081359050611ba181611b7b565b92915050565b60008060408385031215611bbe57611bbd611945565b5b6000611bcc85828601611b92565b9250506020611bdd85828601611add565b9150509250929050565b600080600060608486031215611c0057611bff611945565b5b6000611c0e86828701611b92565b9350506020611c1f86828701611b92565b9250506040611c3086828701611add565b9150509250925092565b611c4381611abc565b82525050565b6000602082019050611c5e6000830184611c3a565b92915050565b600060208284031215611c7a57611c79611945565b5b6000611c8884828501611b92565b91505092915050565b611c9a816119d4565b8114611ca557600080fd5b50565b600081359050611cb781611c91565b92915050565b60008060408385031215611cd457611cd3611945565b5b6000611ce285828601611b92565b9250506020611cf385828601611ca8565b9150509250929050565b600080fd5b600080fd5b7f4e487b7100000000000000000000000000000000000000000000000000000000600052604160045260246000fd5b611d3f82611a50565b810181811067ffffffffffffffff82111715611d5e57611d5d611d07565b5b80604052505050565b6000611d7161193b565b9050611d7d8282611d36565b919050565b600067ffffffffffffffff821115611d9d57611d9c611d07565b5b611da682611a50565b9050602081019050919050565b82818337600083830152505050565b6000611dd5611dd084611d82565b611d67565b905082815260208101848484011115611df157611df0611d02565b5b611dfc848285611db3565b509392505050565b600082601f830112611e1957611e18611cfd565b5b8135611e29848260208601611dc2565b91505092915050565b60008060008060808587031215611e4c57611e4b611945565b5b6000611e5a87828801611b92565b9450506020611e6b87828801611b92565b9350506040611e7c87828801611add565b925050606085013567ffffffffffffffff811115611e9d57611e9c61194a565b5b611ea987828801611e04565b91505092959194509250565b60008060408385031215611ecc57611ecb611945565b5b6000611eda85828601611b92565b9250506020611eeb85828601611b92565b9150509250929050565b7f4e487b7100000000000000000000000000000000000000000000000000000000600052602260045260246000fd5b60006002820490506001821680611f3c57607f821691505b602082108103611f4f57611f4e611ef5565b5b50919050565b7f4552433732313a20617070726f76616c20746f2063757272656e74206f776e6560008201527f7200000000000000000000000000000000000000000000000000000000000000602082015250565b6000611fb1602183611a15565b9150611fbc82611f55565b604082019050919050565b60006020820190508181036000830152611fe081611fa4565b9050919050565b7f4552433732313a20617070726f76652063616c6c6572206973206e6f7420746f60008201527f6b656e206f776e6572206e6f7220617070726f76656420666f7220616c6c0000602082015250565b6000612043603e83611a15565b915061204e82611fe7565b604082019050919050565b6000602082019050818103600083015261207281612036565b9050919050565b7f4552433732313a2063616c6c6572206973206e6f7420746f6b656e206f776e6560008201527f72206e6f7220617070726f766564000000000000000000000000000000000000602082015250565b60006120d5602e83611a15565b91506120e082612079565b604082019050919050565b60006020820190508181036000830152612104816120c8565b9050919050565b7f4552433732313a20696e76616c696420746f6b656e2049440000000000000000600082015250565b6000612141601883611a15565b915061214c8261210b565b602082019050919050565b6000602082019050818103600083015261217081612134565b9050919050565b7f4552433732313a2061646472657373207a65726f206973206e6f74206120766160008201527f6c6964206f776e65720000000000000000000000000000000000000000000000602082015250565b60006121d3602983611a15565b91506121de82612177565b604082019050919050565b60006020820190508181036000830152612202816121c6565b9050919050565b7f4e487b7100000000000000000000000000000000000000000000000000000000600052601160045260246000fd5b600061224382611abc565b915061224e83611abc565b925082820190508082111561226657612265612209565b5b92915050565b7f45786365656473206d617820737570706c790000000000000000000000000000600082015250565b60006122a2601283611a15565b91506122ad8261226c565b602082019050919050565b600060208201905081810360008301526122d181612295565b9050919050565b7f546f6b656e20646f6573206e6f742065786973742e0000000000000000000000600082015250565b600061230e601583611a15565b9150612319826122d8565b602082019050919050565b6000602082019050818103600083015261233d81612301565b9050919050565b600061234f82611abc565b915061235a83611abc565b925082820390508181111561237257612371612209565b5b92915050565b600081905092915050565b60008190508160005260206000209050919050565b600081546123a581611f24565b6123af8186612378565b945060018216600081146123ca57600181146123df57612412565b60ff1983168652811515820286019350612412565b6123e885612383565b60005b8381101561240a578154818901526001820191506020810190506123eb565b838801955050505b50505092915050565b600061242682611a0a565b6124308185612378565b9350612440818560208601611a26565b80840191505092915050565b7f2e6a736f6e000000000000000000000000000000000000000000000000000000600082015250565b6000612482600583612378565b915061248d8261244c565b600582019050919050565b60006124a48285612398565b91506124b0828461241b565b91506124bb82612475565b91508190509392505050565b7f46726f6d2061646472657373206d75737420626520746f6b656e206f776e6572600082015250565b60006124fd602083611a15565b9150612508826124c7565b602082019050919050565b6000602082019050818103600083015261252c816124f0565b9050919050565b7f4552433732313a207472616e736665722066726f6d20696e636f72726563742060008201527f6f776e6572000000000000000000000000000000000000000000000000000000602082015250565b600061258f602583611a15565b915061259a82612533565b604082019050919050565b600060208201905081810360008301526125be81612582565b9050919050565b7f4552433732313a207472616e7366657220746f20746865207a65726f2061646460008201527f7265737300000000000000000000000000000000000000000000000000000000602082015250565b6000612621602483611a15565b915061262c826125c5565b604082019050919050565b6000602082019050818103600083015261265081612614565b9050919050565b7f4552433732313a206d696e7420746f20746865207a65726f2061646472657373600082015250565b600061268d602083611a15565b915061269882612657565b602082019050919050565b600060208201905081810360008301526126bc81612680565b9050919050565b7f4552433732313a20746f6b656e20616c7265616479206d696e74656400000000600082015250565b60006126f9601c83611a15565b9150612704826126c3565b602082019050919050565b60006020820190508181036000830152612728816126ec565b9050919050565b7f45524337323155524953746f726167653a2055524920736574206f66206e6f6e60008201527f6578697374656e7420746f6b656e000000000000000000000000000000000000602082015250565b600061278b602e83611a15565b91506127968261272f565b604082019050919050565b600060208201905081810360008301526127ba8161277e565b9050919050565b60006020601f8301049050919050565b600082821b905092915050565b60006008830261280e7fffffffffffffffffffffffffffffffffffffffffffffffffffffffffffffffff826127d1565b61281886836127d1565b95508019841693508086168417925050509392505050565b6000819050919050565b600061285561285061284b84611abc565b612830565b611abc565b9050919050565b6000819050919050565b61286f8361283a565b61288361287b8261285c565b8484546127de565b825550505050565b600090565b61289861288b565b6128a3818484612866565b505050565b5b818110156128c7576128bc600082612890565b6001810190506128a9565b5050565b601f82111561290c576128dd81612383565b6128e6846127c1565b810160208510156128f5578190505b612909612901856127c1565b8301826128a8565b50505b505050565b600082821c905092915050565b600061292f60001984600802612911565b1980831691505092915050565b6000612948838361291e565b9150826002028217905092915050565b61296182611a0a565b67ffffffffffffffff81111561297a57612979611d07565b5b6129848254611f24565b61298f8282856128cb565b600060209050601f8311600181146129c257600084156129b0578287015190505b6129ba858261293c565b865550612a22565b601f1984166129d086612383565b60005b828110156129f8578489015182556001820191506020850194506020810190506129d3565b86831015612a155784890151612a11601f89168261291e565b8355505b6001600288020188555050505b505050505050565b7f4552433732313a20617070726f766520746f2063616c6c657200000000000000600082015250565b6000612a60601983611a15565b9150612a6b82612a2a565b602082019050919050565b60006020820190508181036000830152612a8f81612a53565b9050919050565b7f4552433732313a207472616e7366657220746f206e6f6e20455243373231526560008201527f63656976657220696d706c656d656e7465720000000000000000000000000000602082015250565b6000612af2603283611a15565b9150612afd82612a96565b604082019050919050565b60006020820190508181036000830152612b2181612ae5565b9050919050565b6000612b3382611abc565b91507fffffffffffffffffffffffffffffffffffffffffffffffffffffffffffffffff8203612b6557612b64612209565b5b600182019050919050565b7f4e487b7100000000000000000000000000000000000000000000000000000000600052601260045260246000fd5b6000612baa82611abc565b9150612bb583611abc565b925082612bc557612bc4612b70565b5b828204905092915050565b6000612bdb82611abc565b9150612be683611abc565b925082612bf657612bf5612b70565b5b828206905092915050565b7f4e487b7100000000000000000000000000000000000000000000000000000000600052603260045260246000fd5b600081519050919050565b600082825260208201905092915050565b6000612c5782612c30565b612c618185612c3b565b9350612c71818560208601611a26565b612c7a81611a50565b840191505092915050565b6000608082019050612c9a6000830187611b51565b612ca76020830186611b51565b612cb46040830185611c3a565b8181036060830152612cc68184612c4c565b905095945050505050565b600081519050612ce08161197b565b92915050565b600060208284031215612cfc57612cfb611945565b5b6000612d0a84828501612cd1565b9150509291505056fea264697066735822122066264319e1c63c3eeae25c8210680342a3c298b7c3e10d6c84e61454334b747264736f6c63430008110033697066733a2f2f6261667962656967746f68646b726e646a376a67687133796c69676f69716e76737a3476736d7766706761377269376867703665326b6c7a73376d2f",
  "immutableReferences": {},
  "source": "// SPDX-License-Identifier: MIT OR Apache-2.0\npragma solidity ^0.8.7;\n\nimport '@openzeppelin/contracts/utils/Counters.sol';\nimport '@openzeppelin/contracts/token/ERC721/extensions/ERC721URIStorage.sol';\nimport '@openzeppelin/contracts/token/ERC721/extensions/ERC721Enumerable.sol';\nimport '@openzeppelin/contracts/token/ERC721/ERC721.sol';\nimport '@openzeppelin/contracts/security/ReentrancyGuard.sol';\n\ncontract NFT is ERC721URIStorage {\n  using Counters for Counters.Counter;\n  Counters.Counter private _tokenIds;\n  address contractAddress;\n  event NFTMinted(uint256);\n\n  uint256 public constant MAX_SUPPLY = 100;\n  string public baseURI =\n    'ipfs://bafybeigtohdkrndj7jghq3yligoiqnvsz4vsmwfpga7ri7hgp6e2klzs7m/';\n\n  constructor(address marketplaceAddress) ERC721('Planet Runner', 'PR') {\n    contractAddress = marketplaceAddress;\n  }\n\n  function createToken() public returns (uint256) {\n    require(MAX_SUPPLY > _tokenIds.current() + 1, 'Exceeds max supply');\n    _tokenIds.increment();\n    uint256 newTokenId = _tokenIds.current();\n\n    _mint(msg.sender, newTokenId);\n    _setTokenURI(newTokenId, tokenURI(newTokenId));\n    setApprovalForAll(contractAddress, true);\n    emit NFTMinted(newTokenId);\n    return newTokenId;\n  }\n\n  function transferToken(\n    address from,\n    address to,\n    uint256 tokenId\n  ) external {\n    require(ownerOf(tokenId) == from, 'From address must be token owner');\n    _transfer(from, to, tokenId);\n  }\n\n  function getContractAddress() public view returns (address) {\n    return contractAddress;\n  }\n\n  function currentSupply() public view returns (uint256) {\n    return _tokenIds.current();\n  }\n\n  function tokenURI(uint256 _tokenId)\n    public\n    view\n    override\n    returns (string memory)\n  {\n    require(_exists(_tokenId), 'Token does not exist.');\n    return\n      bytes(baseURI).length > 0\n        ? string(\n          abi.encodePacked(baseURI, Strings.toString(_tokenId - 1), '.json')\n        )\n        : '';\n  }\n}\n",
  "sourcePath": "/Users/yjs/Documents/GitHub/planetrunners/backend/contracts/NFT.sol",
  "compiler": {
    "name": "solc",
    "version": "0.8.17+commit.8df45f5f.Emscripten.clang"
  },
  "schemaVersion": "3.4.9",
  "updatedAt": "2022-10-12T04:30:32.196Z",
  "networkType": "ethereum",
  "devdoc": {
    "kind": "dev",
    "methods": {
      "approve(address,uint256)": {
        "details": "See {IERC721-approve}."
      },
      "balanceOf(address)": {
        "details": "See {IERC721-balanceOf}."
      },
      "getApproved(uint256)": {
        "details": "See {IERC721-getApproved}."
      },
      "isApprovedForAll(address,address)": {
        "details": "See {IERC721-isApprovedForAll}."
      },
      "name()": {
        "details": "See {IERC721Metadata-name}."
      },
      "ownerOf(uint256)": {
        "details": "See {IERC721-ownerOf}."
      },
      "safeTransferFrom(address,address,uint256)": {
        "details": "See {IERC721-safeTransferFrom}."
      },
      "safeTransferFrom(address,address,uint256,bytes)": {
        "details": "See {IERC721-safeTransferFrom}."
      },
      "setApprovalForAll(address,bool)": {
        "details": "See {IERC721-setApprovalForAll}."
      },
      "supportsInterface(bytes4)": {
        "details": "See {IERC165-supportsInterface}."
      },
      "symbol()": {
        "details": "See {IERC721Metadata-symbol}."
      },
      "transferFrom(address,address,uint256)": {
        "details": "See {IERC721-transferFrom}."
      }
    },
    "version": 1
  },
  "userdoc": {
    "kind": "user",
    "methods": {},
    "version": 1
  }
}