{
  "contractName": "OpenPlanet",
  "abi": [
    {
      "inputs": [],
      "stateMutability": "nonpayable",
      "type": "constructor"
    },
    {
      "anonymous": false,
      "inputs": [
        {
          "indexed": true,
          "internalType": "address",
          "name": "owner",
          "type": "address"
        },
        {
          "indexed": true,
          "internalType": "address",
          "name": "approved",
          "type": "address"
        },
        {
          "indexed": true,
          "internalType": "uint256",
          "name": "tokenId",
          "type": "uint256"
        }
      ],
      "name": "Approval",
      "type": "event"
    },
    {
      "anonymous": false,
      "inputs": [
        {
          "indexed": true,
          "internalType": "address",
          "name": "owner",
          "type": "address"
        },
        {
          "indexed": true,
          "internalType": "address",
          "name": "operator",
          "type": "address"
        },
        {
          "indexed": false,
          "internalType": "bool",
          "name": "approved",
          "type": "bool"
        }
      ],
      "name": "ApprovalForAll",
      "type": "event"
    },
    {
      "anonymous": false,
      "inputs": [
        {
          "indexed": true,
          "internalType": "address",
          "name": "previousOwner",
          "type": "address"
        },
        {
          "indexed": true,
          "internalType": "address",
          "name": "newOwner",
          "type": "address"
        }
      ],
      "name": "OwnershipTransferred",
      "type": "event"
    },
    {
      "anonymous": false,
      "inputs": [
        {
          "indexed": true,
          "internalType": "address",
          "name": "from",
          "type": "address"
        },
        {
          "indexed": true,
          "internalType": "address",
          "name": "to",
          "type": "address"
        },
        {
          "indexed": true,
          "internalType": "uint256",
          "name": "tokenId",
          "type": "uint256"
        }
      ],
      "name": "Transfer",
      "type": "event"
    },
    {
      "inputs": [
        {
          "internalType": "address",
          "name": "to",
          "type": "address"
        },
        {
          "internalType": "uint256",
          "name": "tokenId",
          "type": "uint256"
        }
      ],
      "name": "approve",
      "outputs": [],
      "stateMutability": "nonpayable",
      "type": "function"
    },
    {
      "inputs": [
        {
          "internalType": "address",
          "name": "owner",
          "type": "address"
        }
      ],
      "name": "balanceOf",
      "outputs": [
        {
          "internalType": "uint256",
          "name": "",
          "type": "uint256"
        }
      ],
      "stateMutability": "view",
      "type": "function",
      "constant": true
    },
    {
      "inputs": [
        {
          "internalType": "uint256",
          "name": "tokenId",
          "type": "uint256"
        }
      ],
      "name": "getApproved",
      "outputs": [
        {
          "internalType": "address",
          "name": "",
          "type": "address"
        }
      ],
      "stateMutability": "view",
      "type": "function",
      "constant": true
    },
    {
      "inputs": [
        {
          "internalType": "address",
          "name": "owner",
          "type": "address"
        },
        {
          "internalType": "address",
          "name": "operator",
          "type": "address"
        }
      ],
      "name": "isApprovedForAll",
      "outputs": [
        {
          "internalType": "bool",
          "name": "",
          "type": "bool"
        }
      ],
      "stateMutability": "view",
      "type": "function",
      "constant": true
    },
    {
      "inputs": [],
      "name": "name",
      "outputs": [
        {
          "internalType": "string",
          "name": "",
          "type": "string"
        }
      ],
      "stateMutability": "view",
      "type": "function",
      "constant": true
    },
    {
      "inputs": [
        {
          "internalType": "uint256",
          "name": "",
          "type": "uint256"
        }
      ],
      "name": "nftTokenCollections",
      "outputs": [
        {
          "internalType": "string",
          "name": "",
          "type": "string"
        }
      ],
      "stateMutability": "view",
      "type": "function",
      "constant": true
    },
    {
      "inputs": [
        {
          "internalType": "uint256",
          "name": "",
          "type": "uint256"
        }
      ],
      "name": "nftTokenPrices",
      "outputs": [
        {
          "internalType": "uint256",
          "name": "",
          "type": "uint256"
        }
      ],
      "stateMutability": "view",
      "type": "function",
      "constant": true
    },
    {
      "inputs": [
        {
          "internalType": "uint256",
          "name": "",
          "type": "uint256"
        }
      ],
      "name": "onSaleNftTokenArray",
      "outputs": [
        {
          "internalType": "uint256",
          "name": "",
          "type": "uint256"
        }
      ],
      "stateMutability": "view",
      "type": "function",
      "constant": true
    },
    {
      "inputs": [],
      "name": "owner",
      "outputs": [
        {
          "internalType": "address",
          "name": "",
          "type": "address"
        }
      ],
      "stateMutability": "view",
      "type": "function",
      "constant": true
    },
    {
      "inputs": [
        {
          "internalType": "uint256",
          "name": "tokenId",
          "type": "uint256"
        }
      ],
      "name": "ownerOf",
      "outputs": [
        {
          "internalType": "address",
          "name": "",
          "type": "address"
        }
      ],
      "stateMutability": "view",
      "type": "function",
      "constant": true
    },
    {
      "inputs": [],
      "name": "renounceOwnership",
      "outputs": [],
      "stateMutability": "nonpayable",
      "type": "function"
    },
    {
      "inputs": [
        {
          "internalType": "address",
          "name": "from",
          "type": "address"
        },
        {
          "internalType": "address",
          "name": "to",
          "type": "address"
        },
        {
          "internalType": "uint256",
          "name": "tokenId",
          "type": "uint256"
        }
      ],
      "name": "safeTransferFrom",
      "outputs": [],
      "stateMutability": "nonpayable",
      "type": "function"
    },
    {
      "inputs": [
        {
          "internalType": "address",
          "name": "from",
          "type": "address"
        },
        {
          "internalType": "address",
          "name": "to",
          "type": "address"
        },
        {
          "internalType": "uint256",
          "name": "tokenId",
          "type": "uint256"
        },
        {
          "internalType": "bytes",
          "name": "data",
          "type": "bytes"
        }
      ],
      "name": "safeTransferFrom",
      "outputs": [],
      "stateMutability": "nonpayable",
      "type": "function"
    },
    {
      "inputs": [
        {
          "internalType": "address",
          "name": "operator",
          "type": "address"
        },
        {
          "internalType": "bool",
          "name": "approved",
          "type": "bool"
        }
      ],
      "name": "setApprovalForAll",
      "outputs": [],
      "stateMutability": "nonpayable",
      "type": "function"
    },
    {
      "inputs": [],
      "name": "symbol",
      "outputs": [
        {
          "internalType": "string",
          "name": "",
          "type": "string"
        }
      ],
      "stateMutability": "view",
      "type": "function",
      "constant": true
    },
    {
      "inputs": [
        {
          "internalType": "uint256",
          "name": "index",
          "type": "uint256"
        }
      ],
      "name": "tokenByIndex",
      "outputs": [
        {
          "internalType": "uint256",
          "name": "",
          "type": "uint256"
        }
      ],
      "stateMutability": "view",
      "type": "function",
      "constant": true
    },
    {
      "inputs": [
        {
          "internalType": "address",
          "name": "owner",
          "type": "address"
        },
        {
          "internalType": "uint256",
          "name": "index",
          "type": "uint256"
        }
      ],
      "name": "tokenOfOwnerByIndex",
      "outputs": [
        {
          "internalType": "uint256",
          "name": "",
          "type": "uint256"
        }
      ],
      "stateMutability": "view",
      "type": "function",
      "constant": true
    },
    {
      "inputs": [],
      "name": "totalSupply",
      "outputs": [
        {
          "internalType": "uint256",
          "name": "",
          "type": "uint256"
        }
      ],
      "stateMutability": "view",
      "type": "function",
      "constant": true
    },
    {
      "inputs": [
        {
          "internalType": "address",
          "name": "from",
          "type": "address"
        },
        {
          "internalType": "address",
          "name": "to",
          "type": "address"
        },
        {
          "internalType": "uint256",
          "name": "tokenId",
          "type": "uint256"
        }
      ],
      "name": "transferFrom",
      "outputs": [],
      "stateMutability": "nonpayable",
      "type": "function"
    },
    {
      "inputs": [
        {
          "internalType": "address",
          "name": "newOwner",
          "type": "address"
        }
      ],
      "name": "transferOwnership",
      "outputs": [],
      "stateMutability": "nonpayable",
      "type": "function"
    },
    {
      "inputs": [
        {
          "internalType": "bytes4",
          "name": "interfaceId",
          "type": "bytes4"
        }
      ],
      "name": "supportsInterface",
      "outputs": [
        {
          "internalType": "bool",
          "name": "",
          "type": "bool"
        }
      ],
      "stateMutability": "view",
      "type": "function",
      "constant": true
    },
    {
      "inputs": [
        {
          "internalType": "uint256",
          "name": "tokenId",
          "type": "uint256"
        }
      ],
      "name": "tokenURI",
      "outputs": [
        {
          "internalType": "string",
          "name": "",
          "type": "string"
        }
      ],
      "stateMutability": "view",
      "type": "function",
      "constant": true
    },
    {
      "inputs": [
        {
          "internalType": "address",
          "name": "recipient",
          "type": "address"
        },
        {
          "internalType": "string",
          "name": "tokenURI",
          "type": "string"
        },
        {
          "internalType": "string",
          "name": "collectionName",
          "type": "string"
        }
      ],
      "name": "mintNFT",
      "outputs": [
        {
          "internalType": "uint256",
          "name": "",
          "type": "uint256"
        }
      ],
      "stateMutability": "nonpayable",
      "type": "function"
    },
    {
      "inputs": [
        {
          "internalType": "address",
          "name": "owner",
          "type": "address"
        }
      ],
      "name": "listUserNFTs",
      "outputs": [
        {
          "internalType": "uint256[]",
          "name": "",
          "type": "uint256[]"
        }
      ],
      "stateMutability": "view",
      "type": "function",
      "constant": true
    },
    {
      "inputs": [],
      "name": "getCollectionTokens",
      "outputs": [
        {
          "components": [
            {
              "internalType": "uint256",
              "name": "nftTokenId",
              "type": "uint256"
            },
            {
              "internalType": "string",
              "name": "nftTokenURI",
              "type": "string"
            },
            {
              "internalType": "string",
              "name": "nftTokenCollection",
              "type": "string"
            }
          ],
          "internalType": "struct OpenPlanet.NftTokenData[]",
          "name": "",
          "type": "tuple[]"
        }
      ],
      "stateMutability": "view",
      "type": "function",
      "constant": true
    },
    {
      "inputs": [
        {
          "internalType": "address",
          "name": "_nftTokenOwner",
          "type": "address"
        }
      ],
      "name": "getNftTokens",
      "outputs": [
        {
          "components": [
            {
              "internalType": "uint256",
              "name": "nftTokenId",
              "type": "uint256"
            },
            {
              "internalType": "string",
              "name": "nftTokenURI",
              "type": "string"
            },
            {
              "internalType": "string",
              "name": "nftTokenCollection",
              "type": "string"
            }
          ],
          "internalType": "struct OpenPlanet.NftTokenData[]",
          "name": "",
          "type": "tuple[]"
        }
      ],
      "stateMutability": "view",
      "type": "function",
      "constant": true
    },
    {
      "inputs": [
        {
          "internalType": "uint256",
          "name": "_tokenId",
          "type": "uint256"
        },
        {
          "internalType": "uint256",
          "name": "_price",
          "type": "uint256"
        }
      ],
      "name": "addToMarket",
      "outputs": [],
      "stateMutability": "nonpayable",
      "type": "function"
    },
    {
      "inputs": [],
      "name": "getMarketList",
      "outputs": [
        {
          "components": [
            {
              "internalType": "uint256",
              "name": "nftTokenId",
              "type": "uint256"
            },
            {
              "internalType": "string",
              "name": "nftTokenURI",
              "type": "string"
            },
            {
              "internalType": "string",
              "name": "nftTokenCollection",
              "type": "string"
            }
          ],
          "internalType": "struct OpenPlanet.NftTokenData[]",
          "name": "",
          "type": "tuple[]"
        }
      ],
      "stateMutability": "view",
      "type": "function",
      "constant": true
    },
    {
      "inputs": [
        {
          "internalType": "uint256",
          "name": "_tokenId",
          "type": "uint256"
        }
      ],
      "name": "getCollectionName",
      "outputs": [
        {
          "internalType": "string",
          "name": "",
          "type": "string"
        }
      ],
      "stateMutability": "view",
      "type": "function",
      "constant": true
    },
    {
      "inputs": [],
      "name": "getSaleNftToken",
      "outputs": [
        {
          "internalType": "uint256[]",
          "name": "",
          "type": "uint256[]"
        }
      ],
      "stateMutability": "view",
      "type": "function",
      "constant": true
    },
    {
      "inputs": [
        {
          "internalType": "uint256",
          "name": "_tokenId",
          "type": "uint256"
        }
      ],
      "name": "getNftTokenPrice",
      "outputs": [
        {
          "internalType": "uint256",
          "name": "",
          "type": "uint256"
        }
      ],
      "stateMutability": "view",
      "type": "function",
      "constant": true
    },
    {
      "inputs": [
        {
          "internalType": "uint256",
          "name": "_tokenId",
          "type": "uint256"
        }
      ],
      "name": "buyNft",
      "outputs": [],
      "stateMutability": "payable",
      "type": "function",
      "payable": true
    },
    {
      "inputs": [
        {
          "internalType": "uint256",
          "name": "_tokenId",
          "type": "uint256"
        }
      ],
      "name": "burn",
      "outputs": [],
      "stateMutability": "nonpayable",
      "type": "function"
    }
  ],
  "bytecode": "0x60806040523480156200001157600080fd5b506040518060400160405280600d81526020017f6f70656e506c616e65744e4654000000000000000000000000000000000000008152506040518060400160405280600581526020017f4f504e465400000000000000000000000000000000000000000000000000000081525081600090816200008f919062000412565b508060019081620000a1919062000412565b505050620000c4620000b8620000ca60201b60201c565b620000d260201b60201c565b620004f9565b600033905090565b6000600760009054906101000a900473ffffffffffffffffffffffffffffffffffffffff16905081600760006101000a81548173ffffffffffffffffffffffffffffffffffffffff021916908373ffffffffffffffffffffffffffffffffffffffff1602179055508173ffffffffffffffffffffffffffffffffffffffff168173ffffffffffffffffffffffffffffffffffffffff167f8be0079c531659141344cd1fd0a4f28419497f9722a3daafe3b4186f6b6457e060405160405180910390a35050565b600081519050919050565b7f4e487b7100000000000000000000000000000000000000000000000000000000600052604160045260246000fd5b7f4e487b7100000000000000000000000000000000000000000000000000000000600052602260045260246000fd5b600060028204905060018216806200021a57607f821691505b60208210810362000230576200022f620001d2565b5b50919050565b60008190508160005260206000209050919050565b60006020601f8301049050919050565b600082821b905092915050565b6000600883026200029a7fffffffffffffffffffffffffffffffffffffffffffffffffffffffffffffffff826200025b565b620002a686836200025b565b95508019841693508086168417925050509392505050565b6000819050919050565b6000819050919050565b6000620002f3620002ed620002e784620002be565b620002c8565b620002be565b9050919050565b6000819050919050565b6200030f83620002d2565b620003276200031e82620002fa565b84845462000268565b825550505050565b600090565b6200033e6200032f565b6200034b81848462000304565b505050565b5b8181101562000373576200036760008262000334565b60018101905062000351565b5050565b601f821115620003c2576200038c8162000236565b62000397846200024b565b81016020851015620003a7578190505b620003bf620003b6856200024b565b83018262000350565b50505b505050565b600082821c905092915050565b6000620003e760001984600802620003c7565b1980831691505092915050565b6000620004028383620003d4565b9150826002028217905092915050565b6200041d8262000198565b67ffffffffffffffff811115620004395762000438620001a3565b5b62000445825462000201565b6200045282828562000377565b600060209050601f8311600181146200048a576000841562000475578287015190505b620004818582620003f4565b865550620004f1565b601f1984166200049a8662000236565b60005b82811015620004c4578489015182556001820191506020850194506020810190506200049d565b86831015620004e45784890151620004e0601f891682620003d4565b8355505b6001600288020188555050505b505050505050565b614b2880620005096000396000f3fe6080604052600436106101ee5760003560e01c80636352211e1161010d57806395d89b41116100a0578063b88d4fde1161006f578063b88d4fde14610762578063c87b56dd1461078b578063e985e9c5146107c8578063f257f54814610805578063f2fde38b14610842576101ee565b806395d89b4114610694578063a22cb465146106bf578063a3ee38ae146106e8578063b09ff48214610725576101ee565b806373e778c5116100dc57806373e778c5146105c65780637fb5f7a6146106035780638da5cb5b1461062c578063912c45cf14610657576101ee565b80636352211e1461050a5780636a9eb7d61461054757806370a0823114610572578063715018a6146105af576101ee565b8063243adbdd1161018557806342966c681161015457806342966c681461043c5780634ae23e64146104655780634f6ccce7146104a25780635b9907a4146104df576101ee565b8063243adbdd1461037d5780632f745c591461039957806332167971146103d657806342842e0e14610413576101ee565b8063173160a9116101c1578063173160a9146102c157806318160ddd146102fe5780631efceb901461032957806323b872dd14610354576101ee565b806301ffc9a7146101f357806306fdde0314610230578063081812fc1461025b578063095ea7b314610298575b600080fd5b3480156101ff57600080fd5b5061021a600480360381019061021591906130e3565b61086b565b604051610227919061312b565b60405180910390f35b34801561023c57600080fd5b5061024561087d565b60405161025291906131d6565b60405180910390f35b34801561026757600080fd5b50610282600480360381019061027d919061322e565b61090f565b60405161028f919061329c565b60405180910390f35b3480156102a457600080fd5b506102bf60048036038101906102ba91906132e3565b610955565b005b3480156102cd57600080fd5b506102e860048036038101906102e39190613323565b610a6c565b6040516102f5919061340e565b60405180910390f35b34801561030a57600080fd5b50610313610b1a565b604051610320919061343f565b60405180910390f35b34801561033557600080fd5b5061033e610b27565b60405161034b919061340e565b60405180910390f35b34801561036057600080fd5b5061037b6004803603810190610376919061345a565b610b7f565b005b6103976004803603810190610392919061322e565b610bdf565b005b3480156103a557600080fd5b506103c060048036038101906103bb91906132e3565b610dc2565b6040516103cd919061343f565b60405180910390f35b3480156103e257600080fd5b506103fd60048036038101906103f8919061322e565b610e67565b60405161040a91906131d6565b60405180910390f35b34801561041f57600080fd5b5061043a6004803603810190610435919061345a565b610f0c565b005b34801561044857600080fd5b50610463600480360381019061045e919061322e565b610f2c565b005b34801561047157600080fd5b5061048c6004803603810190610487919061322e565b610fbd565b604051610499919061343f565b60405180910390f35b3480156104ae57600080fd5b506104c960048036038101906104c4919061322e565b610fd5565b6040516104d6919061343f565b60405180910390f35b3480156104eb57600080fd5b506104f4611046565b6040516105019190613610565b60405180910390f35b34801561051657600080fd5b50610531600480360381019061052c919061322e565b61113e565b60405161053e919061329c565b60405180910390f35b34801561055357600080fd5b5061055c6111ef565b6040516105699190613610565b60405180910390f35b34801561057e57600080fd5b5061059960048036038101906105949190613323565b6112d9565b6040516105a6919061343f565b60405180910390f35b3480156105bb57600080fd5b506105c4611390565b005b3480156105d257600080fd5b506105ed60048036038101906105e8919061322e565b6113a4565b6040516105fa919061343f565b60405180910390f35b34801561060f57600080fd5b5061062a60048036038101906106259190613632565b6113c8565b005b34801561063857600080fd5b5061064161149d565b60405161064e919061329c565b60405180910390f35b34801561066357600080fd5b5061067e6004803603810190610679919061322e565b6114c7565b60405161068b919061343f565b60405180910390f35b3480156106a057600080fd5b506106a96114e4565b6040516106b691906131d6565b60405180910390f35b3480156106cb57600080fd5b506106e660048036038101906106e1919061369e565b611576565b005b3480156106f457600080fd5b5061070f600480360381019061070a9190613813565b61158c565b60405161071c919061343f565b60405180910390f35b34801561073157600080fd5b5061074c6004803603810190610747919061322e565b6115cf565b60405161075991906131d6565b60405180910390f35b34801561076e57600080fd5b506107896004803603810190610784919061393f565b61166f565b005b34801561079757600080fd5b506107b260048036038101906107ad919061322e565b6116d1565b6040516107bf91906131d6565b60405180910390f35b3480156107d457600080fd5b506107ef60048036038101906107ea91906139c2565b6116e3565b6040516107fc919061312b565b60405180910390f35b34801561081157600080fd5b5061082c60048036038101906108279190613323565b611777565b6040516108399190613610565b60405180910390f35b34801561084e57600080fd5b5061086960048036038101906108649190613323565b611865565b005b6000610876826118e8565b9050919050565b60606000805461088c90613a31565b80601f01602080910402602001604051908101604052809291908181526020018280546108b890613a31565b80156109055780601f106108da57610100808354040283529160200191610905565b820191906000526020600020905b8154815290600101906020018083116108e857829003601f168201915b5050505050905090565b600061091a82611962565b6004600083815260200190815260200160002060009054906101000a900473ffffffffffffffffffffffffffffffffffffffff169050919050565b60006109608261113e565b90508073ffffffffffffffffffffffffffffffffffffffff168373ffffffffffffffffffffffffffffffffffffffff16036109d0576040517f08c379a00000000000000000000000000000000000000000000000000000000081526004016109c790613ad4565b60405180910390fd5b8073ffffffffffffffffffffffffffffffffffffffff166109ef6119ad565b73ffffffffffffffffffffffffffffffffffffffff161480610a1e5750610a1d81610a186119ad565b6116e3565b5b610a5d576040517f08c379a0000000000000000000000000000000000000000000000000000000008152600401610a5490613b66565b60405180910390fd5b610a6783836119b5565b505050565b60606000610a79836112d9565b905060008167ffffffffffffffff811115610a9757610a966136e8565b5b604051908082528060200260200182016040528015610ac55781602001602082028036833780820191505090505b50905060005b82811015610b0f57610add8582610dc2565b828281518110610af057610aef613b86565b5b6020026020010181815250508080610b0790613be4565b915050610acb565b508092505050919050565b6000600a80549050905090565b6060600f805480602002602001604051908101604052809291908181526020018280548015610b7557602002820191906000526020600020905b815481526020019060010190808311610b61575b5050505050905090565b610b90610b8a6119ad565b82611a6e565b610bcf576040517f08c379a0000000000000000000000000000000000000000000000000000000008152600401610bc690613c9e565b60405180910390fd5b610bda838383611b03565b505050565b6000600d60008381526020019081526020016000205490506000610c028361113e565b905060008211610c47576040517f08c379a0000000000000000000000000000000000000000000000000000000008152600401610c3e90613d0a565b60405180910390fd5b3373ffffffffffffffffffffffffffffffffffffffff168173ffffffffffffffffffffffffffffffffffffffff1603610cb5576040517f08c379a0000000000000000000000000000000000000000000000000000000008152600401610cac90613d76565b60405180910390fd5b610cbf81306116e3565b610cfe576040517f08c379a0000000000000000000000000000000000000000000000000000000008152600401610cf590613e08565b60405180910390fd5b8073ffffffffffffffffffffffffffffffffffffffff166108fc349081150290604051600060405180830381858888f19350505050158015610d44573d6000803e3d6000fd5b503073ffffffffffffffffffffffffffffffffffffffff166342842e0e8233866040518463ffffffff1660e01b8152600401610d8293929190613e28565b600060405180830381600087803b158015610d9c57600080fd5b505af1158015610db0573d6000803e3d6000fd5b50505050610dbd83611d69565b505050565b6000610dcd836112d9565b8210610e0e576040517f08c379a0000000000000000000000000000000000000000000000000000000008152600401610e0590613ed1565b60405180910390fd5b600860008473ffffffffffffffffffffffffffffffffffffffff1673ffffffffffffffffffffffffffffffffffffffff168152602001908152602001600020600083815260200190815260200160002054905092915050565b6060600e60008381526020019081526020016000208054610e8790613a31565b80601f0160208091040260200160405190810160405280929190818152602001828054610eb390613a31565b8015610f005780601f10610ed557610100808354040283529160200191610f00565b820191906000526020600020905b815481529060010190602001808311610ee357829003601f168201915b50505050509050919050565b610f278383836040518060200160405280600081525061166f565b505050565b6000610f378261113e565b90503373ffffffffffffffffffffffffffffffffffffffff168173ffffffffffffffffffffffffffffffffffffffff1614610fa7576040517f08c379a0000000000000000000000000000000000000000000000000000000008152600401610f9e90613f63565b60405180910390fd5b610fb082611e5d565b610fb982611d69565b5050565b600d6020528060005260406000206000915090505481565b6000610fdf610b1a565b8210611020576040517f08c379a000000000000000000000000000000000000000000000000000000000815260040161101790613ff5565b60405180910390fd5b600a828154811061103457611033613b86565b5b90600052602060002001549050919050565b60606000611052610b27565b90506000815167ffffffffffffffff811115611071576110706136e8565b5b6040519080825280602002602001820160405280156110aa57816020015b611097612ff9565b81526020019060019003908161108f5790505b50905060005b82518110156111355760008382815181106110ce576110cd613b86565b5b6020026020010151905060405180606001604052808281526020016110f2836116d1565b815260200161110083610e67565b81525083838151811061111657611115613b86565b5b602002602001018190525050808061112d90613be4565b9150506110b0565b50809250505090565b6000806002600084815260200190815260200160002060009054906101000a900473ffffffffffffffffffffffffffffffffffffffff169050600073ffffffffffffffffffffffffffffffffffffffff168173ffffffffffffffffffffffffffffffffffffffff16036111e6576040517f08c379a00000000000000000000000000000000000000000000000000000000081526004016111dd90614061565b60405180910390fd5b80915050919050565b606060006111fb610b1a565b905060008167ffffffffffffffff811115611219576112186136e8565b5b60405190808252806020026020018201604052801561125257816020015b61123f612ff9565b8152602001906001900390816112375790505b50905060005b828110156112d057600061126b82610fd5565b90506000611278826116d1565b9050604051806060016040528083815260200182815260200161129a84610e67565b8152508484815181106112b0576112af613b86565b5b6020026020010181905250505080806112c890613be4565b915050611258565b50809250505090565b60008073ffffffffffffffffffffffffffffffffffffffff168273ffffffffffffffffffffffffffffffffffffffff1603611349576040517f08c379a0000000000000000000000000000000000000000000000000000000008152600401611340906140f3565b60405180910390fd5b600360008373ffffffffffffffffffffffffffffffffffffffff1673ffffffffffffffffffffffffffffffffffffffff168152602001908152602001600020549050919050565b611398611e69565b6113a26000611ee7565b565b600f81815481106113b457600080fd5b906000526020600020016000915090505481565b60006113d38361113e565b90503373ffffffffffffffffffffffffffffffffffffffff168173ffffffffffffffffffffffffffffffffffffffff1614611443576040517f08c379a000000000000000000000000000000000000000000000000000000000815260040161143a9061415f565b60405180910390fd5b61144e306001611576565b61145783611d69565b81600d600085815260200190815260200160002081905550600f839080600181540180825580915050600190039060005260206000200160009091909190915055505050565b6000600760009054906101000a900473ffffffffffffffffffffffffffffffffffffffff16905090565b6000600d6000838152602001908152602001600020549050919050565b6060600180546114f390613a31565b80601f016020809104026020016040519081016040528092919081815260200182805461151f90613a31565b801561156c5780601f106115415761010080835404028352916020019161156c565b820191906000526020600020905b81548152906001019060200180831161154f57829003601f168201915b5050505050905090565b6115886115816119ad565b8383611fad565b5050565b6000611598600c612119565b60006115a4600c61212f565b90506115b0858261213d565b6115ba8185612316565b6115c48184612383565b809150509392505050565b600e60205280600052604060002060009150905080546115ee90613a31565b80601f016020809104026020016040519081016040528092919081815260200182805461161a90613a31565b80156116675780601f1061163c57610100808354040283529160200191611667565b820191906000526020600020905b81548152906001019060200180831161164a57829003601f168201915b505050505081565b61168061167a6119ad565b83611a6e565b6116bf576040517f08c379a00000000000000000000000000000000000000000000000000000000081526004016116b690613c9e565b60405180910390fd5b6116cb848484846123a8565b50505050565b60606116dc82612404565b9050919050565b6000600560008473ffffffffffffffffffffffffffffffffffffffff1673ffffffffffffffffffffffffffffffffffffffff16815260200190815260200160002060008373ffffffffffffffffffffffffffffffffffffffff1673ffffffffffffffffffffffffffffffffffffffff16815260200190815260200160002060009054906101000a900460ff16905092915050565b60606000611784836112d9565b905060008167ffffffffffffffff8111156117a2576117a16136e8565b5b6040519080825280602002602001820160405280156117db57816020015b6117c8612ff9565b8152602001906001900390816117c05790505b50905060005b8281101561185a5760006117f58683610dc2565b90506000611802826116d1565b9050604051806060016040528083815260200182815260200161182484610e67565b81525084848151811061183a57611839613b86565b5b60200260200101819052505050808061185290613be4565b9150506117e1565b508092505050919050565b61186d611e69565b600073ffffffffffffffffffffffffffffffffffffffff168173ffffffffffffffffffffffffffffffffffffffff16036118dc576040517f08c379a00000000000000000000000000000000000000000000000000000000081526004016118d3906141f1565b60405180910390fd5b6118e581611ee7565b50565b60007f780e9d63000000000000000000000000000000000000000000000000000000007bffffffffffffffffffffffffffffffffffffffffffffffffffffffff1916827bffffffffffffffffffffffffffffffffffffffffffffffffffffffff1916148061195b575061195a82612516565b5b9050919050565b61196b816125f8565b6119aa576040517f08c379a00000000000000000000000000000000000000000000000000000000081526004016119a190614061565b60405180910390fd5b50565b600033905090565b816004600083815260200190815260200160002060006101000a81548173ffffffffffffffffffffffffffffffffffffffff021916908373ffffffffffffffffffffffffffffffffffffffff160217905550808273ffffffffffffffffffffffffffffffffffffffff16611a288361113e565b73ffffffffffffffffffffffffffffffffffffffff167f8c5be1e5ebec7d5bd14f71427d1e84f3dd0314c0f7b2291e5b200ac8c7c3b92560405160405180910390a45050565b600080611a7a8361113e565b90508073ffffffffffffffffffffffffffffffffffffffff168473ffffffffffffffffffffffffffffffffffffffff161480611abc5750611abb81856116e3565b5b80611afa57508373ffffffffffffffffffffffffffffffffffffffff16611ae28461090f565b73ffffffffffffffffffffffffffffffffffffffff16145b91505092915050565b8273ffffffffffffffffffffffffffffffffffffffff16611b238261113e565b73ffffffffffffffffffffffffffffffffffffffff1614611b79576040517f08c379a0000000000000000000000000000000000000000000000000000000008152600401611b7090614283565b60405180910390fd5b600073ffffffffffffffffffffffffffffffffffffffff168273ffffffffffffffffffffffffffffffffffffffff1603611be8576040517f08c379a0000000000000000000000000000000000000000000000000000000008152600401611bdf90614315565b60405180910390fd5b611bf3838383612664565b611bfe6000826119b5565b6001600360008573ffffffffffffffffffffffffffffffffffffffff1673ffffffffffffffffffffffffffffffffffffffff1681526020019081526020016000206000828254611c4e9190614335565b925050819055506001600360008473ffffffffffffffffffffffffffffffffffffffff1673ffffffffffffffffffffffffffffffffffffffff1681526020019081526020016000206000828254611ca59190614369565b92505081905550816002600083815260200190815260200160002060006101000a81548173ffffffffffffffffffffffffffffffffffffffff021916908373ffffffffffffffffffffffffffffffffffffffff160217905550808273ffffffffffffffffffffffffffffffffffffffff168473ffffffffffffffffffffffffffffffffffffffff167fddf252ad1be2c89b69c2b068fc378daa952ba7f163c4a11628f55a4df523b3ef60405160405180910390a4611d64838383612674565b505050565b6000600d60008381526020019081526020016000208190555060005b600f80549050811015611e59576000600d6000600f8481548110611dac57611dab613b86565b5b906000526020600020015481526020019081526020016000205403611e4657600f6001600f80549050611ddf9190614335565b81548110611df057611def613b86565b5b9060005260206000200154600f8281548110611e0f57611e0e613b86565b5b9060005260206000200181905550600f805480611e2f57611e2e61439d565b5b600190038181906000526020600020016000905590555b8080611e5190613be4565b915050611d85565b5050565b611e6681612679565b50565b611e716119ad565b73ffffffffffffffffffffffffffffffffffffffff16611e8f61149d565b73ffffffffffffffffffffffffffffffffffffffff1614611ee5576040517f08c379a0000000000000000000000000000000000000000000000000000000008152600401611edc90614418565b60405180910390fd5b565b6000600760009054906101000a900473ffffffffffffffffffffffffffffffffffffffff16905081600760006101000a81548173ffffffffffffffffffffffffffffffffffffffff021916908373ffffffffffffffffffffffffffffffffffffffff1602179055508173ffffffffffffffffffffffffffffffffffffffff168173ffffffffffffffffffffffffffffffffffffffff167f8be0079c531659141344cd1fd0a4f28419497f9722a3daafe3b4186f6b6457e060405160405180910390a35050565b8173ffffffffffffffffffffffffffffffffffffffff168373ffffffffffffffffffffffffffffffffffffffff160361201b576040517f08c379a000000000000000000000000000000000000000000000000000000000815260040161201290614484565b60405180910390fd5b80600560008573ffffffffffffffffffffffffffffffffffffffff1673ffffffffffffffffffffffffffffffffffffffff16815260200190815260200160002060008473ffffffffffffffffffffffffffffffffffffffff1673ffffffffffffffffffffffffffffffffffffffff16815260200190815260200160002060006101000a81548160ff0219169083151502179055508173ffffffffffffffffffffffffffffffffffffffff168373ffffffffffffffffffffffffffffffffffffffff167f17307eab39ab6107e8899845ad3d59bd9653f200f220920489ca2b5937696c318360405161210c919061312b565b60405180910390a3505050565b6001816000016000828254019250508190555050565b600081600001549050919050565b600073ffffffffffffffffffffffffffffffffffffffff168273ffffffffffffffffffffffffffffffffffffffff16036121ac576040517f08c379a00000000000000000000000000000000000000000000000000000000081526004016121a3906144f0565b60405180910390fd5b6121b5816125f8565b156121f5576040517f08c379a00000000000000000000000000000000000000000000000000000000081526004016121ec9061455c565b60405180910390fd5b61220160008383612664565b6001600360008473ffffffffffffffffffffffffffffffffffffffff1673ffffffffffffffffffffffffffffffffffffffff16815260200190815260200160002060008282546122519190614369565b92505081905550816002600083815260200190815260200160002060006101000a81548173ffffffffffffffffffffffffffffffffffffffff021916908373ffffffffffffffffffffffffffffffffffffffff160217905550808273ffffffffffffffffffffffffffffffffffffffff16600073ffffffffffffffffffffffffffffffffffffffff167fddf252ad1be2c89b69c2b068fc378daa952ba7f163c4a11628f55a4df523b3ef60405160405180910390a461231260008383612674565b5050565b61231f826125f8565b61235e576040517f08c379a0000000000000000000000000000000000000000000000000000000008152600401612355906145ee565b60405180910390fd5b8060066000848152602001908152602001600020908161237e91906147ba565b505050565b80600e600084815260200190815260200160002090816123a391906147ba565b505050565b6123b3848484611b03565b6123bf848484846126cc565b6123fe576040517f08c379a00000000000000000000000000000000000000000000000000000000081526004016123f5906148fe565b60405180910390fd5b50505050565b606061240f82611962565b600060066000848152602001908152602001600020805461242f90613a31565b80601f016020809104026020016040519081016040528092919081815260200182805461245b90613a31565b80156124a85780601f1061247d576101008083540402835291602001916124a8565b820191906000526020600020905b81548152906001019060200180831161248b57829003601f168201915b5050505050905060006124b9612853565b905060008151036124ce578192505050612511565b6000825111156125035780826040516020016124eb92919061495a565b60405160208183030381529060405292505050612511565b61250c8461286a565b925050505b919050565b60007f80ac58cd000000000000000000000000000000000000000000000000000000007bffffffffffffffffffffffffffffffffffffffffffffffffffffffff1916827bffffffffffffffffffffffffffffffffffffffffffffffffffffffff191614806125e157507f5b5e139f000000000000000000000000000000000000000000000000000000007bffffffffffffffffffffffffffffffffffffffffffffffffffffffff1916827bffffffffffffffffffffffffffffffffffffffffffffffffffffffff1916145b806125f157506125f0826128d2565b5b9050919050565b60008073ffffffffffffffffffffffffffffffffffffffff166002600084815260200190815260200160002060009054906101000a900473ffffffffffffffffffffffffffffffffffffffff1673ffffffffffffffffffffffffffffffffffffffff1614159050919050565b61266f83838361293c565b505050565b505050565b61268281612a4e565b60006006600083815260200190815260200160002080546126a290613a31565b9050146126c9576006600082815260200190815260200160002060006126c8919061301a565b5b50565b60006126ed8473ffffffffffffffffffffffffffffffffffffffff16612b6b565b15612846578373ffffffffffffffffffffffffffffffffffffffff1663150b7a026127166119ad565b8786866040518563ffffffff1660e01b815260040161273894939291906149d3565b6020604051808303816000875af192505050801561277457506040513d601f19601f820116820180604052508101906127719190614a34565b60015b6127f6573d80600081146127a4576040519150601f19603f3d011682016040523d82523d6000602084013e6127a9565b606091505b5060008151036127ee576040517f08c379a00000000000000000000000000000000000000000000000000000000081526004016127e5906148fe565b60405180910390fd5b805181602001fd5b63150b7a0260e01b7bffffffffffffffffffffffffffffffffffffffffffffffffffffffff1916817bffffffffffffffffffffffffffffffffffffffffffffffffffffffff19161491505061284b565b600190505b949350505050565b606060405180602001604052806000815250905090565b606061287582611962565b600061287f612853565b9050600081511161289f57604051806020016040528060008152506128ca565b806128a984612b8e565b6040516020016128ba92919061495a565b6040516020818303038152906040525b915050919050565b60007f01ffc9a7000000000000000000000000000000000000000000000000000000007bffffffffffffffffffffffffffffffffffffffffffffffffffffffff1916827bffffffffffffffffffffffffffffffffffffffffffffffffffffffff1916149050919050565b612947838383612cee565b600073ffffffffffffffffffffffffffffffffffffffff168373ffffffffffffffffffffffffffffffffffffffff16036129895761298481612cf3565b6129c8565b8173ffffffffffffffffffffffffffffffffffffffff168373ffffffffffffffffffffffffffffffffffffffff16146129c7576129c68382612d3c565b5b5b600073ffffffffffffffffffffffffffffffffffffffff168273ffffffffffffffffffffffffffffffffffffffff1603612a0a57612a0581612ea9565b612a49565b8273ffffffffffffffffffffffffffffffffffffffff168273ffffffffffffffffffffffffffffffffffffffff1614612a4857612a478282612f7a565b5b5b505050565b6000612a598261113e565b9050612a6781600084612664565b612a726000836119b5565b6001600360008373ffffffffffffffffffffffffffffffffffffffff1673ffffffffffffffffffffffffffffffffffffffff1681526020019081526020016000206000828254612ac29190614335565b925050819055506002600083815260200190815260200160002060006101000a81549073ffffffffffffffffffffffffffffffffffffffff021916905581600073ffffffffffffffffffffffffffffffffffffffff168273ffffffffffffffffffffffffffffffffffffffff167fddf252ad1be2c89b69c2b068fc378daa952ba7f163c4a11628f55a4df523b3ef60405160405180910390a4612b6781600084612674565b5050565b6000808273ffffffffffffffffffffffffffffffffffffffff163b119050919050565b606060008203612bd5576040518060400160405280600181526020017f30000000000000000000000000000000000000000000000000000000000000008152509050612ce9565b600082905060005b60008214612c07578080612bf090613be4565b915050600a82612c009190614a90565b9150612bdd565b60008167ffffffffffffffff811115612c2357612c226136e8565b5b6040519080825280601f01601f191660200182016040528015612c555781602001600182028036833780820191505090505b5090505b60008514612ce257600182612c6e9190614335565b9150600a85612c7d9190614ac1565b6030612c899190614369565b60f81b818381518110612c9f57612c9e613b86565b5b60200101907effffffffffffffffffffffffffffffffffffffffffffffffffffffffffffff1916908160001a905350600a85612cdb9190614a90565b9450612c59565b8093505050505b919050565b505050565b600a80549050600b600083815260200190815260200160002081905550600a81908060018154018082558091505060019003906000526020600020016000909190919091505550565b60006001612d49846112d9565b612d539190614335565b9050600060096000848152602001908152602001600020549050818114612e38576000600860008673ffffffffffffffffffffffffffffffffffffffff1673ffffffffffffffffffffffffffffffffffffffff168152602001908152602001600020600084815260200190815260200160002054905080600860008773ffffffffffffffffffffffffffffffffffffffff1673ffffffffffffffffffffffffffffffffffffffff168152602001908152602001600020600084815260200190815260200160002081905550816009600083815260200190815260200160002081905550505b6009600084815260200190815260200160002060009055600860008573ffffffffffffffffffffffffffffffffffffffff1673ffffffffffffffffffffffffffffffffffffffff16815260200190815260200160002060008381526020019081526020016000206000905550505050565b60006001600a80549050612ebd9190614335565b90506000600b60008481526020019081526020016000205490506000600a8381548110612eed57612eec613b86565b5b9060005260206000200154905080600a8381548110612f0f57612f0e613b86565b5b906000526020600020018190555081600b600083815260200190815260200160002081905550600b600085815260200190815260200160002060009055600a805480612f5e57612f5d61439d565b5b6001900381819060005260206000200160009055905550505050565b6000612f85836112d9565b905081600860008573ffffffffffffffffffffffffffffffffffffffff1673ffffffffffffffffffffffffffffffffffffffff168152602001908152602001600020600083815260200190815260200160002081905550806009600084815260200190815260200160002081905550505050565b60405180606001604052806000815260200160608152602001606081525090565b50805461302690613a31565b6000825580601f106130385750613057565b601f016020900490600052602060002090810190613056919061305a565b5b50565b5b8082111561307357600081600090555060010161305b565b5090565b6000604051905090565b600080fd5b600080fd5b60007fffffffff0000000000000000000000000000000000000000000000000000000082169050919050565b6130c08161308b565b81146130cb57600080fd5b50565b6000813590506130dd816130b7565b92915050565b6000602082840312156130f9576130f8613081565b5b6000613107848285016130ce565b91505092915050565b60008115159050919050565b61312581613110565b82525050565b6000602082019050613140600083018461311c565b92915050565b600081519050919050565b600082825260208201905092915050565b60005b83811015613180578082015181840152602081019050613165565b60008484015250505050565b6000601f19601f8301169050919050565b60006131a882613146565b6131b28185613151565b93506131c2818560208601613162565b6131cb8161318c565b840191505092915050565b600060208201905081810360008301526131f0818461319d565b905092915050565b6000819050919050565b61320b816131f8565b811461321657600080fd5b50565b60008135905061322881613202565b92915050565b60006020828403121561324457613243613081565b5b600061325284828501613219565b91505092915050565b600073ffffffffffffffffffffffffffffffffffffffff82169050919050565b60006132868261325b565b9050919050565b6132968161327b565b82525050565b60006020820190506132b1600083018461328d565b92915050565b6132c08161327b565b81146132cb57600080fd5b50565b6000813590506132dd816132b7565b92915050565b600080604083850312156132fa576132f9613081565b5b6000613308858286016132ce565b925050602061331985828601613219565b9150509250929050565b60006020828403121561333957613338613081565b5b6000613347848285016132ce565b91505092915050565b600081519050919050565b600082825260208201905092915050565b6000819050602082019050919050565b613385816131f8565b82525050565b6000613397838361337c565b60208301905092915050565b6000602082019050919050565b60006133bb82613350565b6133c5818561335b565b93506133d08361336c565b8060005b838110156134015781516133e8888261338b565b97506133f3836133a3565b9250506001810190506133d4565b5085935050505092915050565b6000602082019050818103600083015261342881846133b0565b905092915050565b613439816131f8565b82525050565b60006020820190506134546000830184613430565b92915050565b60008060006060848603121561347357613472613081565b5b6000613481868287016132ce565b9350506020613492868287016132ce565b92505060406134a386828701613219565b9150509250925092565b600081519050919050565b600082825260208201905092915050565b6000819050602082019050919050565b600082825260208201905092915050565b60006134f582613146565b6134ff81856134d9565b935061350f818560208601613162565b6135188161318c565b840191505092915050565b600060608301600083015161353b600086018261337c565b506020830151848203602086015261355382826134ea565b9150506040830151848203604086015261356d82826134ea565b9150508091505092915050565b60006135868383613523565b905092915050565b6000602082019050919050565b60006135a6826134ad565b6135b081856134b8565b9350836020820285016135c2856134c9565b8060005b858110156135fe57848403895281516135df858261357a565b94506135ea8361358e565b925060208a019950506001810190506135c6565b50829750879550505050505092915050565b6000602082019050818103600083015261362a818461359b565b905092915050565b6000806040838503121561364957613648613081565b5b600061365785828601613219565b925050602061366885828601613219565b9150509250929050565b61367b81613110565b811461368657600080fd5b50565b60008135905061369881613672565b92915050565b600080604083850312156136b5576136b4613081565b5b60006136c3858286016132ce565b92505060206136d485828601613689565b9150509250929050565b600080fd5b600080fd5b7f4e487b7100000000000000000000000000000000000000000000000000000000600052604160045260246000fd5b6137208261318c565b810181811067ffffffffffffffff8211171561373f5761373e6136e8565b5b80604052505050565b6000613752613077565b905061375e8282613717565b919050565b600067ffffffffffffffff82111561377e5761377d6136e8565b5b6137878261318c565b9050602081019050919050565b82818337600083830152505050565b60006137b66137b184613763565b613748565b9050828152602081018484840111156137d2576137d16136e3565b5b6137dd848285613794565b509392505050565b600082601f8301126137fa576137f96136de565b5b813561380a8482602086016137a3565b91505092915050565b60008060006060848603121561382c5761382b613081565b5b600061383a868287016132ce565b935050602084013567ffffffffffffffff81111561385b5761385a613086565b5b613867868287016137e5565b925050604084013567ffffffffffffffff81111561388857613887613086565b5b613894868287016137e5565b9150509250925092565b600067ffffffffffffffff8211156138b9576138b86136e8565b5b6138c28261318c565b9050602081019050919050565b60006138e26138dd8461389e565b613748565b9050828152602081018484840111156138fe576138fd6136e3565b5b613909848285613794565b509392505050565b600082601f830112613926576139256136de565b5b81356139368482602086016138cf565b91505092915050565b6000806000806080858703121561395957613958613081565b5b6000613967878288016132ce565b9450506020613978878288016132ce565b935050604061398987828801613219565b925050606085013567ffffffffffffffff8111156139aa576139a9613086565b5b6139b687828801613911565b91505092959194509250565b600080604083850312156139d9576139d8613081565b5b60006139e7858286016132ce565b92505060206139f8858286016132ce565b9150509250929050565b7f4e487b7100000000000000000000000000000000000000000000000000000000600052602260045260246000fd5b60006002820490506001821680613a4957607f821691505b602082108103613a5c57613a5b613a02565b5b50919050565b7f4552433732313a20617070726f76616c20746f2063757272656e74206f776e6560008201527f7200000000000000000000000000000000000000000000000000000000000000602082015250565b6000613abe602183613151565b9150613ac982613a62565b604082019050919050565b60006020820190508181036000830152613aed81613ab1565b9050919050565b7f4552433732313a20617070726f76652063616c6c6572206973206e6f7420746f60008201527f6b656e206f776e6572206e6f7220617070726f76656420666f7220616c6c0000602082015250565b6000613b50603e83613151565b9150613b5b82613af4565b604082019050919050565b60006020820190508181036000830152613b7f81613b43565b9050919050565b7f4e487b7100000000000000000000000000000000000000000000000000000000600052603260045260246000fd5b7f4e487b7100000000000000000000000000000000000000000000000000000000600052601160045260246000fd5b6000613bef826131f8565b91507fffffffffffffffffffffffffffffffffffffffffffffffffffffffffffffffff8203613c2157613c20613bb5565b5b600182019050919050565b7f4552433732313a2063616c6c6572206973206e6f7420746f6b656e206f776e6560008201527f72206e6f7220617070726f766564000000000000000000000000000000000000602082015250565b6000613c88602e83613151565b9150613c9382613c2c565b604082019050919050565b60006020820190508181036000830152613cb781613c7b565b9050919050565b7f6e667420746f6b656e206e6f742073616c652e00000000000000000000000000600082015250565b6000613cf4601383613151565b9150613cff82613cbe565b602082019050919050565b60006020820190508181036000830152613d2381613ce7565b9050919050565b7f63616c6c6572206973206e667420746f6b656e206f776e65722e000000000000600082015250565b6000613d60601a83613151565b9150613d6b82613d2a565b602082019050919050565b60006020820190508181036000830152613d8f81613d53565b9050919050565b7f6e667420746f6b656e206f776e657220646964206e6f7420617070726f76652060008201527f746f6b656e2e0000000000000000000000000000000000000000000000000000602082015250565b6000613df2602683613151565b9150613dfd82613d96565b604082019050919050565b60006020820190508181036000830152613e2181613de5565b9050919050565b6000606082019050613e3d600083018661328d565b613e4a602083018561328d565b613e576040830184613430565b949350505050565b7f455243373231456e756d657261626c653a206f776e657220696e646578206f7560008201527f74206f6620626f756e6473000000000000000000000000000000000000000000602082015250565b6000613ebb602b83613151565b9150613ec682613e5f565b604082019050919050565b60006020820190508181036000830152613eea81613eae565b9050919050565b7f6d73672e73656e646572206973206e6f7420746865206f776e6572206f66207460008201527f686520746f6b656e000000000000000000000000000000000000000000000000602082015250565b6000613f4d602883613151565b9150613f5882613ef1565b604082019050919050565b60006020820190508181036000830152613f7c81613f40565b9050919050565b7f455243373231456e756d657261626c653a20676c6f62616c20696e646578206f60008201527f7574206f6620626f756e64730000000000000000000000000000000000000000602082015250565b6000613fdf602c83613151565b9150613fea82613f83565b604082019050919050565b6000602082019050818103600083015261400e81613fd2565b9050919050565b7f4552433732313a20696e76616c696420746f6b656e2049440000000000000000600082015250565b600061404b601883613151565b915061405682614015565b602082019050919050565b6000602082019050818103600083015261407a8161403e565b9050919050565b7f4552433732313a2061646472657373207a65726f206973206e6f74206120766160008201527f6c6964206f776e65720000000000000000000000000000000000000000000000602082015250565b60006140dd602983613151565b91506140e882614081565b604082019050919050565b6000602082019050818103600083015261410c816140d0565b9050919050565b7f43616c6c6572206973206e6f74206e667420746f6b656e206f776e65722e0000600082015250565b6000614149601e83613151565b915061415482614113565b602082019050919050565b600060208201905081810360008301526141788161413c565b9050919050565b7f4f776e61626c653a206e6577206f776e657220697320746865207a65726f206160008201527f6464726573730000000000000000000000000000000000000000000000000000602082015250565b60006141db602683613151565b91506141e68261417f565b604082019050919050565b6000602082019050818103600083015261420a816141ce565b9050919050565b7f4552433732313a207472616e736665722066726f6d20696e636f72726563742060008201527f6f776e6572000000000000000000000000000000000000000000000000000000602082015250565b600061426d602583613151565b915061427882614211565b604082019050919050565b6000602082019050818103600083015261429c81614260565b9050919050565b7f4552433732313a207472616e7366657220746f20746865207a65726f2061646460008201527f7265737300000000000000000000000000000000000000000000000000000000602082015250565b60006142ff602483613151565b915061430a826142a3565b604082019050919050565b6000602082019050818103600083015261432e816142f2565b9050919050565b6000614340826131f8565b915061434b836131f8565b925082820390508181111561436357614362613bb5565b5b92915050565b6000614374826131f8565b915061437f836131f8565b925082820190508082111561439757614396613bb5565b5b92915050565b7f4e487b7100000000000000000000000000000000000000000000000000000000600052603160045260246000fd5b7f4f776e61626c653a2063616c6c6572206973206e6f7420746865206f776e6572600082015250565b6000614402602083613151565b915061440d826143cc565b602082019050919050565b60006020820190508181036000830152614431816143f5565b9050919050565b7f4552433732313a20617070726f766520746f2063616c6c657200000000000000600082015250565b600061446e601983613151565b915061447982614438565b602082019050919050565b6000602082019050818103600083015261449d81614461565b9050919050565b7f4552433732313a206d696e7420746f20746865207a65726f2061646472657373600082015250565b60006144da602083613151565b91506144e5826144a4565b602082019050919050565b60006020820190508181036000830152614509816144cd565b9050919050565b7f4552433732313a20746f6b656e20616c7265616479206d696e74656400000000600082015250565b6000614546601c83613151565b915061455182614510565b602082019050919050565b6000602082019050818103600083015261457581614539565b9050919050565b7f45524337323155524953746f726167653a2055524920736574206f66206e6f6e60008201527f6578697374656e7420746f6b656e000000000000000000000000000000000000602082015250565b60006145d8602e83613151565b91506145e38261457c565b604082019050919050565b60006020820190508181036000830152614607816145cb565b9050919050565b60008190508160005260206000209050919050565b60006020601f8301049050919050565b600082821b905092915050565b6000600883026146707fffffffffffffffffffffffffffffffffffffffffffffffffffffffffffffffff82614633565b61467a8683614633565b95508019841693508086168417925050509392505050565b6000819050919050565b60006146b76146b26146ad846131f8565b614692565b6131f8565b9050919050565b6000819050919050565b6146d18361469c565b6146e56146dd826146be565b848454614640565b825550505050565b600090565b6146fa6146ed565b6147058184846146c8565b505050565b5b818110156147295761471e6000826146f2565b60018101905061470b565b5050565b601f82111561476e5761473f8161460e565b61474884614623565b81016020851015614757578190505b61476b61476385614623565b83018261470a565b50505b505050565b600082821c905092915050565b600061479160001984600802614773565b1980831691505092915050565b60006147aa8383614780565b9150826002028217905092915050565b6147c382613146565b67ffffffffffffffff8111156147dc576147db6136e8565b5b6147e68254613a31565b6147f182828561472d565b600060209050601f8311600181146148245760008415614812578287015190505b61481c858261479e565b865550614884565b601f1984166148328661460e565b60005b8281101561485a57848901518255600182019150602085019450602081019050614835565b868310156148775784890151614873601f891682614780565b8355505b6001600288020188555050505b505050505050565b7f4552433732313a207472616e7366657220746f206e6f6e20455243373231526560008201527f63656976657220696d706c656d656e7465720000000000000000000000000000602082015250565b60006148e8603283613151565b91506148f38261488c565b604082019050919050565b60006020820190508181036000830152614917816148db565b9050919050565b600081905092915050565b600061493482613146565b61493e818561491e565b935061494e818560208601613162565b80840191505092915050565b60006149668285614929565b91506149728284614929565b91508190509392505050565b600081519050919050565b600082825260208201905092915050565b60006149a58261497e565b6149af8185614989565b93506149bf818560208601613162565b6149c88161318c565b840191505092915050565b60006080820190506149e8600083018761328d565b6149f5602083018661328d565b614a026040830185613430565b8181036060830152614a14818461499a565b905095945050505050565b600081519050614a2e816130b7565b92915050565b600060208284031215614a4a57614a49613081565b5b6000614a5884828501614a1f565b91505092915050565b7f4e487b7100000000000000000000000000000000000000000000000000000000600052601260045260246000fd5b6000614a9b826131f8565b9150614aa6836131f8565b925082614ab657614ab5614a61565b5b828204905092915050565b6000614acc826131f8565b9150614ad7836131f8565b925082614ae757614ae6614a61565b5b82820690509291505056fea26469706673582212206f368eb5dfd17cca27a30f71fd7f3550574fb0cc5df90bd529d34d1a53206b2c64736f6c63430008110033",
  "immutableReferences": {},
  "source": "// SPDX-License-Identifier: MIT\npragma solidity ^0.8.7;\n\nimport '@openzeppelin/contracts/token/ERC721/ERC721.sol';\nimport '@openzeppelin/contracts/utils/Counters.sol';\nimport '@openzeppelin/contracts/access/Ownable.sol';\nimport '@openzeppelin/contracts/token/ERC721/extensions/ERC721URIStorage.sol';\nimport '@openzeppelin/contracts/token/ERC721/extensions/ERC721Enumerable.sol';\n\ncontract OpenPlanet is ERC721URIStorage, Ownable, ERC721Enumerable {\n  using Counters for Counters.Counter;\n  Counters.Counter private _tokenIds;\n\n  constructor() public ERC721('openPlanetNFT', 'OPNFT') {}\n\n  mapping(uint256 => uint256) public nftTokenPrices;\n  mapping(uint256 => string) public nftTokenCollections;\n  uint256[] public onSaleNftTokenArray;\n\n  function _beforeTokenTransfer(\n    address from,\n    address to,\n    uint256 tokenId\n  ) internal override(ERC721, ERC721Enumerable) {\n    super._beforeTokenTransfer(from, to, tokenId);\n  }\n\n  function _burn(uint256 tokenId) internal override(ERC721, ERC721URIStorage) {\n    super._burn(tokenId);\n  }\n\n  function supportsInterface(bytes4 interfaceId)\n    public\n    view\n    override(ERC721, ERC721Enumerable)\n    returns (bool)\n  {\n    return super.supportsInterface(interfaceId);\n  }\n\n  function tokenURI(uint256 tokenId)\n    public\n    view\n    override(ERC721, ERC721URIStorage)\n    returns (string memory)\n  {\n    return super.tokenURI(tokenId);\n  }\n\n  function mintNFT(\n    address recipient,\n    string memory tokenURI,\n    string memory collectionName\n  ) public returns (uint256) {\n    _tokenIds.increment();\n\n    uint256 newItemId = _tokenIds.current();\n    _mint(recipient, newItemId);\n    _setTokenURI(newItemId, tokenURI);\n    _setCollection(newItemId, collectionName);\n    return newItemId;\n  }\n\n  function _setCollection(uint256 _tokenId, string memory collectionName)\n    private\n  {\n    nftTokenCollections[_tokenId] = collectionName;\n  }\n\n  function listUserNFTs(address owner)\n    external\n    view\n    returns (uint256[] memory)\n  {\n    uint256 balance = balanceOf(owner);\n    uint256[] memory tokens = new uint256[](balance);\n    for (uint256 i = 0; i < balance; i++) {\n      tokens[i] = (tokenOfOwnerByIndex(owner, i));\n    }\n\n    return tokens;\n  }\n\n  struct NftTokenData {\n    uint256 nftTokenId;\n    string nftTokenURI;\n    string nftTokenCollection;\n  }\n\n  function getCollectionTokens() public view returns (NftTokenData[] memory) {\n    uint256 totalLength = totalSupply();\n    NftTokenData[] memory nftTokenData = new NftTokenData[](totalLength);\n    for (uint256 i = 0; i < totalLength; i++) {\n      uint256 nftTokenId = tokenByIndex(i);\n      string memory nftTokenURI = tokenURI(nftTokenId);\n      nftTokenData[i] = NftTokenData(\n        nftTokenId,\n        nftTokenURI,\n        getCollectionName(nftTokenId)\n      );\n    }\n\n    return nftTokenData;\n  }\n\n  function getNftTokens(address _nftTokenOwner)\n    public\n    view\n    returns (NftTokenData[] memory)\n  {\n    uint256 balanceLength = balanceOf(_nftTokenOwner);\n    NftTokenData[] memory nftTokenData = new NftTokenData[](balanceLength);\n    for (uint256 i = 0; i < balanceLength; i++) {\n      uint256 nftTokenId = tokenOfOwnerByIndex(_nftTokenOwner, i);\n      string memory nftTokenURI = tokenURI(nftTokenId);\n      nftTokenData[i] = NftTokenData(\n        nftTokenId,\n        nftTokenURI,\n        getCollectionName(nftTokenId)\n      );\n    }\n\n    return nftTokenData;\n  }\n\n  function addToMarket(uint256 _tokenId, uint256 _price) public {\n    // nft    \n    address nftTokenOwner = ownerOf(_tokenId);\n\n    //    \n    require(nftTokenOwner == msg.sender, 'Caller is not nft token owner.');\n    // require(_price > 0, \"Price is zero or lower.\");\n    // require(nftTokenPrices[_tokenId] == 0, \"This nft token is already on sale.\");\n\n    setApprovalForAll(address(this), true);\n\n    //  \n    removeToken(_tokenId);\n\n    nftTokenPrices[_tokenId] = _price;\n\n    // push   \n    onSaleNftTokenArray.push(_tokenId); // nft list\n  }\n\n  // ,    Loop  \n  function getMarketList() public view returns (NftTokenData[] memory) {\n    uint256[] memory onSaleNftToken = getSaleNftToken();\n    NftTokenData[] memory onSaleNftTokens = new NftTokenData[](\n      onSaleNftToken.length\n    );\n\n    for (uint256 i = 0; i < onSaleNftToken.length; i++) {\n      uint256 tokenId = onSaleNftToken[i];\n      onSaleNftTokens[i] = NftTokenData(\n        tokenId,\n        tokenURI(tokenId),\n        getCollectionName(tokenId)\n      );\n    }\n\n    return onSaleNftTokens;\n  }\n\n  function getCollectionName(uint256 _tokenId)\n    public\n    view\n    returns (string memory)\n  {\n    return nftTokenCollections[_tokenId];\n  }\n\n  function getSaleNftToken() public view returns (uint256[] memory) {\n    return onSaleNftTokenArray;\n  }\n\n  function getNftTokenPrice(uint256 _tokenId) public view returns (uint256) {\n    return nftTokenPrices[_tokenId];\n  }\n\n  //, payable !!\n  function buyNft(uint256 _tokenId) public payable {\n    // \n    uint256 price = nftTokenPrices[_tokenId];\n    //  nft \n    address nftTokenOwner = ownerOf(_tokenId);\n\n    // , owner  .\n    require(price > 0, 'nft token not sale.');\n    // require(price  <= msg.value, \"caller sent lower than price.\");\n    require(nftTokenOwner != msg.sender, 'caller is nft token owner.');\n    //  false  .\n    require(\n      isApprovedForAll(nftTokenOwner, address(this)),\n      'nft token owner did not approve token.'\n    );\n\n    //   nft transfer\n    payable(nftTokenOwner).transfer(msg.value);\n\n    //  . IERC721  \n    IERC721(address(this)).safeTransferFrom(\n      nftTokenOwner,\n      msg.sender,\n      _tokenId\n    );\n\n    //  \n    removeToken(_tokenId);\n  }\n\n  function burn(uint256 _tokenId) public {\n    address addr_owner = ownerOf(_tokenId);\n    require(\n      addr_owner == msg.sender,\n      'msg.sender is not the owner of the token'\n    );\n    _burn(_tokenId);\n    removeToken(_tokenId);\n  }\n\n  function removeToken(uint256 _tokenId) private {\n    nftTokenPrices[_tokenId] = 0;\n    for (uint256 i = 0; i < onSaleNftTokenArray.length; i++) {\n      if (nftTokenPrices[onSaleNftTokenArray[i]] == 0) {\n        onSaleNftTokenArray[i] = onSaleNftTokenArray[\n          onSaleNftTokenArray.length - 1\n        ];\n        onSaleNftTokenArray.pop();\n      }\n    }\n  }\n}\n",
  "sourcePath": "/Users/yjs/Documents/GitHub/nft-marketplace-nextjs/backend/contracts/OpenPlanet.sol",
  "compiler": {
    "name": "solc",
    "version": "0.8.17+commit.8df45f5f.Emscripten.clang"
  },
  "schemaVersion": "3.4.9",
  "updatedAt": "2022-09-16T19:16:46.025Z",
  "networkType": "ethereum",
  "devdoc": {
    "kind": "dev",
    "methods": {
      "approve(address,uint256)": {
        "details": "See {IERC721-approve}."
      },
      "balanceOf(address)": {
        "details": "See {IERC721-balanceOf}."
      },
      "getApproved(uint256)": {
        "details": "See {IERC721-getApproved}."
      },
      "isApprovedForAll(address,address)": {
        "details": "See {IERC721-isApprovedForAll}."
      },
      "name()": {
        "details": "See {IERC721Metadata-name}."
      },
      "owner()": {
        "details": "Returns the address of the current owner."
      },
      "ownerOf(uint256)": {
        "details": "See {IERC721-ownerOf}."
      },
      "renounceOwnership()": {
        "details": "Leaves the contract without owner. It will not be possible to call `onlyOwner` functions anymore. Can only be called by the current owner. NOTE: Renouncing ownership will leave the contract without an owner, thereby removing any functionality that is only available to the owner."
      },
      "safeTransferFrom(address,address,uint256)": {
        "details": "See {IERC721-safeTransferFrom}."
      },
      "safeTransferFrom(address,address,uint256,bytes)": {
        "details": "See {IERC721-safeTransferFrom}."
      },
      "setApprovalForAll(address,bool)": {
        "details": "See {IERC721-setApprovalForAll}."
      },
      "symbol()": {
        "details": "See {IERC721Metadata-symbol}."
      },
      "tokenByIndex(uint256)": {
        "details": "See {IERC721Enumerable-tokenByIndex}."
      },
      "tokenOfOwnerByIndex(address,uint256)": {
        "details": "See {IERC721Enumerable-tokenOfOwnerByIndex}."
      },
      "totalSupply()": {
        "details": "See {IERC721Enumerable-totalSupply}."
      },
      "transferFrom(address,address,uint256)": {
        "details": "See {IERC721-transferFrom}."
      },
      "transferOwnership(address)": {
        "details": "Transfers ownership of the contract to a new account (`newOwner`). Can only be called by the current owner."
      }
    },
    "version": 1
  },
  "userdoc": {
    "kind": "user",
    "methods": {},
    "version": 1
  }
}