{
  "_format": "hh-sol-artifact-1",
  "contractName": "Marketplace",
  "sourceName": "contracts/MarketPlace.sol",
  "abi": [
    {
      "inputs": [],
      "stateMutability": "nonpayable",
      "type": "constructor"
    },
    {
      "anonymous": false,
      "inputs": [
        {
          "indexed": false,
          "internalType": "address",
          "name": "nftContract",
          "type": "address"
        },
        {
          "indexed": false,
          "internalType": "uint256",
          "name": "tokenId",
          "type": "uint256"
        },
        {
          "indexed": false,
          "internalType": "address",
          "name": "seller",
          "type": "address"
        },
        {
          "indexed": false,
          "internalType": "address",
          "name": "owner",
          "type": "address"
        },
        {
          "indexed": false,
          "internalType": "uint256",
          "name": "price",
          "type": "uint256"
        }
      ],
      "name": "NFTListed",
      "type": "event"
    },
    {
      "anonymous": false,
      "inputs": [
        {
          "indexed": false,
          "internalType": "address",
          "name": "nftContract",
          "type": "address"
        },
        {
          "indexed": false,
          "internalType": "uint256",
          "name": "tokenId",
          "type": "uint256"
        },
        {
          "indexed": false,
          "internalType": "address",
          "name": "seller",
          "type": "address"
        },
        {
          "indexed": false,
          "internalType": "address",
          "name": "owner",
          "type": "address"
        },
        {
          "indexed": false,
          "internalType": "uint256",
          "name": "price",
          "type": "uint256"
        }
      ],
      "name": "NFTSold",
      "type": "event"
    },
    {
      "inputs": [],
      "name": "LISTING_FEE",
      "outputs": [
        {
          "internalType": "uint256",
          "name": "",
          "type": "uint256"
        }
      ],
      "stateMutability": "view",
      "type": "function"
    },
    {
      "inputs": [
        {
          "internalType": "address",
          "name": "_nftContract",
          "type": "address"
        },
        {
          "internalType": "uint256",
          "name": "_tokenId",
          "type": "uint256"
        }
      ],
      "name": "buyNft",
      "outputs": [],
      "stateMutability": "payable",
      "type": "function"
    },
    {
      "inputs": [],
      "name": "getListedNfts",
      "outputs": [
        {
          "components": [
            {
              "internalType": "address",
              "name": "nftContract",
              "type": "address"
            },
            {
              "internalType": "uint256",
              "name": "tokenId",
              "type": "uint256"
            },
            {
              "internalType": "address payable",
              "name": "seller",
              "type": "address"
            },
            {
              "internalType": "address payable",
              "name": "owner",
              "type": "address"
            },
            {
              "internalType": "uint256",
              "name": "price",
              "type": "uint256"
            },
            {
              "internalType": "bool",
              "name": "listed",
              "type": "bool"
            }
          ],
          "internalType": "struct Marketplace.NFT[]",
          "name": "",
          "type": "tuple[]"
        }
      ],
      "stateMutability": "view",
      "type": "function"
    },
    {
      "inputs": [],
      "name": "getListingFee",
      "outputs": [
        {
          "internalType": "uint256",
          "name": "",
          "type": "uint256"
        }
      ],
      "stateMutability": "view",
      "type": "function"
    },
    {
      "inputs": [],
      "name": "getMyListedNfts",
      "outputs": [
        {
          "components": [
            {
              "internalType": "address",
              "name": "nftContract",
              "type": "address"
            },
            {
              "internalType": "uint256",
              "name": "tokenId",
              "type": "uint256"
            },
            {
              "internalType": "address payable",
              "name": "seller",
              "type": "address"
            },
            {
              "internalType": "address payable",
              "name": "owner",
              "type": "address"
            },
            {
              "internalType": "uint256",
              "name": "price",
              "type": "uint256"
            },
            {
              "internalType": "bool",
              "name": "listed",
              "type": "bool"
            }
          ],
          "internalType": "struct Marketplace.NFT[]",
          "name": "",
          "type": "tuple[]"
        }
      ],
      "stateMutability": "view",
      "type": "function"
    },
    {
      "inputs": [],
      "name": "getMyNfts",
      "outputs": [
        {
          "components": [
            {
              "internalType": "address",
              "name": "nftContract",
              "type": "address"
            },
            {
              "internalType": "uint256",
              "name": "tokenId",
              "type": "uint256"
            },
            {
              "internalType": "address payable",
              "name": "seller",
              "type": "address"
            },
            {
              "internalType": "address payable",
              "name": "owner",
              "type": "address"
            },
            {
              "internalType": "uint256",
              "name": "price",
              "type": "uint256"
            },
            {
              "internalType": "bool",
              "name": "listed",
              "type": "bool"
            }
          ],
          "internalType": "struct Marketplace.NFT[]",
          "name": "",
          "type": "tuple[]"
        }
      ],
      "stateMutability": "view",
      "type": "function"
    },
    {
      "inputs": [
        {
          "internalType": "uint256",
          "name": "_tokenId",
          "type": "uint256"
        }
      ],
      "name": "getNft",
      "outputs": [
        {
          "components": [
            {
              "internalType": "address",
              "name": "nftContract",
              "type": "address"
            },
            {
              "internalType": "uint256",
              "name": "tokenId",
              "type": "uint256"
            },
            {
              "internalType": "address payable",
              "name": "seller",
              "type": "address"
            },
            {
              "internalType": "address payable",
              "name": "owner",
              "type": "address"
            },
            {
              "internalType": "uint256",
              "name": "price",
              "type": "uint256"
            },
            {
              "internalType": "bool",
              "name": "listed",
              "type": "bool"
            }
          ],
          "internalType": "struct Marketplace.NFT",
          "name": "",
          "type": "tuple"
        }
      ],
      "stateMutability": "view",
      "type": "function"
    },
    {
      "inputs": [
        {
          "internalType": "address",
          "name": "_nftContract",
          "type": "address"
        },
        {
          "internalType": "uint256",
          "name": "_tokenId",
          "type": "uint256"
        },
        {
          "internalType": "uint256",
          "name": "_price",
          "type": "uint256"
        }
      ],
      "name": "listNft",
      "outputs": [],
      "stateMutability": "payable",
      "type": "function"
    },
    {
      "inputs": [
        {
          "internalType": "address",
          "name": "_nftContract",
          "type": "address"
        },
        {
          "internalType": "uint256",
          "name": "_tokenId",
          "type": "uint256"
        },
        {
          "internalType": "uint256",
          "name": "_price",
          "type": "uint256"
        }
      ],
      "name": "resellNft",
      "outputs": [],
      "stateMutability": "payable",
      "type": "function"
    }
  ],
  "bytecode": "0x6080604052655af3107a400060035534801561001a57600080fd5b506001600055600480546001600160a01b031916331790556110bf806100416000396000f3fe6080604052600436106100865760003560e01c806341f63bfd1161005957806341f63bfd146101045780634ddf4f8f146101315780638d6cb3fb14610144578063b8fe6abe14610159578063c922b17c1461016e57600080fd5b8063047b07bf1461008b5780631f4cc4db146100b65780632b86ae38146100cb57806334f5b624146100ef575b600080fd5b34801561009757600080fd5b506100a0610181565b6040516100ad9190610f64565b60405180910390f35b3480156100c257600080fd5b506100a061034a565b3480156100d757600080fd5b506100e160035481565b6040519081526020016100ad565b6101026100fd366004610e9c565b610565565b005b34801561011057600080fd5b5061012461011f366004610ecf565b6107bb565b6040516100ad9190610fe9565b61010261013f366004610e72565b61082d565b34801561015057600080fd5b506100a0610a29565b34801561016557600080fd5b506003546100e1565b61010261017c366004610e9c565b610b97565b6060600061018e60025490565b90506000805b828110156101ef5733600560006101ac846001610ffd565b81526020810191909152604001600020600301546001600160a01b031614156101dd57816101d98161102c565b9250505b806101e78161102c565b915050610194565b5060008167ffffffffffffffff81111561020b5761020b611073565b60405190808252806020026020018201604052801561024457816020015b610231610e21565b8152602001906001900390816102295790505b5090506000805b84811015610340573360056000610263846001610ffd565b81526020810191909152604001600020600301546001600160a01b0316141561032e5760056000610295836001610ffd565b81526020808201929092526040908101600020815160c08101835281546001600160a01b0390811682526001830154948201949094526002820154841692810192909252600381015490921660608201526004820154608082015260059091015460ff16151560a082015283518490849081106103145761031461105d565b6020026020010181905250818061032a9061102c565b9250505b806103388161102c565b91505061024b565b5090949350505050565b6060600061035760025490565b90506000805b828110156103e6573360056000610375846001610ffd565b81526020810191909152604001600020600201546001600160a01b03161480156103c15750600560006103a9836001610ffd565b815260208101919091526040016000206005015460ff165b156103d457816103d08161102c565b9250505b806103de8161102c565b91505061035d565b5060008167ffffffffffffffff81111561040257610402611073565b60405190808252806020026020018201604052801561043b57816020015b610428610e21565b8152602001906001900390816104205790505b5090506000805b8481101561034057336005600061045a846001610ffd565b81526020810191909152604001600020600201546001600160a01b03161480156104a657506005600061048e836001610ffd565b815260208101919091526040016000206005015460ff165b1561055357600560006104ba836001610ffd565b81526020808201929092526040908101600020815160c08101835281546001600160a01b0390811682526001830154948201949094526002820154841692810192909252600381015490921660608201526004820154608082015260059091015460ff16151560a082015283518490849081106105395761053961105d565b6020026020010181905250818061054f9061102c565b9250505b8061055d8161102c565b915050610442565b600260005414156105915760405162461bcd60e51b815260040161058890610fb2565b60405180910390fd5b60026000908155828152600560205260409020600301546001600160a01b031633146106125760405162461bcd60e51b815260206004820152602a60248201527f4f6e6c79206974656d206f776e65722063616e20706572666f726d20746869736044820152691037b832b930ba34b7b760b11b6064820152608401610588565b600081116106625760405162461bcd60e51b815260206004820152601c60248201527f5072696365206d757374206265206174206c65617374203120776569000000006044820152606401610588565b60035434146106b35760405162461bcd60e51b815260206004820181905260248201527f4e6f7420656e6f75676820657468657220666f72206c697374696e67206665656044820152606401610588565b6040516323b872dd60e01b8152336004820152306024820152604481018390526001600160a01b038416906323b872dd90606401600060405180830381600087803b15801561070157600080fd5b505af1158015610715573d6000803e3d6000fd5b50505060008381526005602081905260409091206002810180546001600160a01b0319908116331790915560038201805490911630179055908101805460ff191660019081179091556004820184905590915061077190610dca565b7fa0c6c0d02d86fdacecbaa5fdf5894bab204e31a778250474108540733a9b8d1984843330866040516107a8959493929190610f31565b60405180910390a1505060016000555050565b6107c3610e21565b50600090815260056020818152604092839020835160c08101855281546001600160a01b03908116825260018301549382019390935260028201548316948101949094526003810154909116606084015260048101546080840152015460ff16151560a082015290565b600260005414156108505760405162461bcd60e51b815260040161058890610fb2565b6002600090815581815260056020526040902060048101543410156108c65760405162461bcd60e51b815260206004820152602660248201527f4e6f7420656e6f75676820657468657220746f20636f7665722061736b696e6760448201526520707269636560d01b6064820152608401610588565b600281015460405133916001600160a01b0316903480156108fc02916000818181858888f19350505050158015610901573d6000803e3d6000fd5b5060018201546040516323b872dd60e01b81523060048201526001600160a01b0383811660248301526044820192909252908516906323b872dd90606401600060405180830381600087803b15801561095957600080fd5b505af115801561096d573d6000803e3d6000fd5b50506004546003546040516001600160a01b03909216935080156108fc029250906000818181858888f193505050501580156109ad573d6000803e3d6000fd5b506003820180546001600160a01b0319166001600160a01b03831617905560058201805460ff191690556001805481019055600182015460028301546040517f16f1dbd97e6bf646d429ed186cce832f1f7fd9907814293b83181e9970ab7bd2926107a89288926001600160a01b039091169086903490610f31565b60606000610a3660025490565b90506000610a4360015490565b610a4d9083611015565b905060008167ffffffffffffffff811115610a6a57610a6a611073565b604051908082528060200260200182016040528015610aa357816020015b610a90610e21565b815260200190600190039081610a885790505b5090506000805b848110156103405760056000610ac1836001610ffd565b815260208101919091526040016000206005015460ff1615610b855760056000610aec836001610ffd565b81526020808201929092526040908101600020815160c08101835281546001600160a01b0390811682526001830154948201949094526002820154841692810192909252600381015490921660608201526004820154608082015260059091015460ff16151560a08201528351849084908110610b6b57610b6b61105d565b60200260200101819052508180610b819061102c565b9250505b80610b8f8161102c565b915050610aaa565b60026000541415610bba5760405162461bcd60e51b815260040161058890610fb2565b600260005580610c0c5760405162461bcd60e51b815260206004820152601c60248201527f5072696365206d757374206265206174206c65617374203120776569000000006044820152606401610588565b6003543414610c5d5760405162461bcd60e51b815260206004820181905260248201527f4e6f7420656e6f75676820657468657220666f72206c697374696e67206665656044820152606401610588565b6040516323b872dd60e01b8152336004820152306024820152604481018390526001600160a01b038416906323b872dd90606401600060405180830381600087803b158015610cab57600080fd5b505af1158015610cbf573d6000803e3d6000fd5b50505050610cd1600280546001019055565b6040805160c0810182526001600160a01b0380861682526020808301868152338486018181523060608701818152608088018a8152600160a08a0181815260008e81526005998a90528c90209a518b54908b166001600160a01b0319918216178c559751918b0191909155935160028a018054918a1691881691909117905590516003890180549190981695169490941790955591516004860155905193909101805493151560ff199094169390931790925591517fa0c6c0d02d86fdacecbaa5fdf5894bab204e31a778250474108540733a9b8d1992610db89287928792908790610f31565b60405180910390a15050600160005550565b805480610e195760405162461bcd60e51b815260206004820152601b60248201527f436f756e7465723a2064656372656d656e74206f766572666c6f7700000000006044820152606401610588565b600019019055565b6040805160c081018252600080825260208201819052918101829052606081018290526080810182905260a081019190915290565b80356001600160a01b0381168114610e6d57600080fd5b919050565b60008060408385031215610e8557600080fd5b610e8e83610e56565b946020939093013593505050565b600080600060608486031215610eb157600080fd5b610eba84610e56565b95602085013595506040909401359392505050565b600060208284031215610ee157600080fd5b5035919050565b80516001600160a01b03908116835260208083015190840152604080830151821690840152606080830151909116908301526080808201519083015260a0908101511515910152565b6001600160a01b039586168152602081019490945291841660408401529092166060820152608081019190915260a00190565b6020808252825182820181905260009190848201906040850190845b81811015610fa657610f93838551610ee8565b9284019260c09290920191600101610f80565b50909695505050505050565b6020808252601f908201527f5265656e7472616e637947756172643a207265656e7472616e742063616c6c00604082015260600190565b60c08101610ff78284610ee8565b92915050565b6000821982111561101057611010611047565b500190565b60008282101561102757611027611047565b500390565b600060001982141561104057611040611047565b5060010190565b634e487b7160e01b600052601160045260246000fd5b634e487b7160e01b600052603260045260246000fd5b634e487b7160e01b600052604160045260246000fdfea264697066735822122011c50f3e0f210004c23d665ff9eaaf9d25f6b6c78135affbd1b581b8cd422b4364736f6c63430008070033",
  "linkReferences": {},
  "deployedLinkReferences": {}
}